:100000000C9416040C9433040C9433040C943304B1
:100010000C9433040C9433040C9433040C94330484
:100020000C9433040C9433040C9496180C94181606
:100030000C94462B0C9433040C9433040C9433042A
:100040000C9433040C9433040C9433040C94330454
:100050000C9433040C94D3120C9433040C94330496
:100060000C9433040C9433040C9433040C94330434
:100070000C9433040C9433040C9433040C94330424
:100080000C9433040C9433040C9433040C94330414
:100090000C9433040C9433040C9433040C94330404
:1000A0000C9433040C9433040C94330400010101C8
:1000B0000101010101010202020202020202020325
:1000C00003030303030303040404040404040505F5
:1000D00005050506060606060707070707080808B8
:1000E00008090909090A0A0A0B0B0B0C0C0C0D0D67
:1000F0000D0E0E0E0F0F0F101011111112121313FF
:100100001414151516161717181819191A1A1B1B77
:100110001C1D1D1E1E1F20202122222324242526D3
:1001200026272829292A2B2C2D2D2E2F303132320B
:10013000333435363738393A3B3C3D3E3F40414217
:10014000434445464748494A4C4D4E4F50515354FD
:10015000555658595A5B5D5E5F61626465666869B1
:100160006B6C6D6F7072737577787A7B7D7E808231
:10017000838587888A8C8E8F91939596989A9C9E7A
:10018000A0A2A3A5A7A9ABADAFB1B3B5B7BABCBE8A
:10019000C0C2C4C6C9CBCDCFD1D4D6D8DBDDDFE257
:1001A000E4E7E9EBEEF0F3F5F8FAFDFFFFAA7F557F
:1001B000402223252628292A2C2D2F30323335366C
:1001C000383A3B3D3E4042434547494A4C4E5051E8
:1001D000535557595A5C5E6062646668696B6D6F0F
:1001E00071737577797B7D7F81838587898A8C8E12
:1001F00090929496989A9C9E9FA1A3A5A7A8AAAC1A
:10020000AEAFB1B3B4B6B8B9BBBCBEBFC1C2C3C553
:10021000C6C7C9CACBCCCDCED0D1D2D2D3D4D5D6F5
:10022000D7D7D8D9D9DADADBDBDBDCDCDCDCDCDD28
:10023000DDDDDDDCDCDCDCDCDBDBDBDADAD9D9D80C
:10024000D7D7D6D5D4D3D2D2D1D0CECDCCCBCAC9A4
:10025000C7C6C5C3C2C1BFBEBCBBB9B8B6B4B3B1D3
:10026000AFAEACAAA8A7A5A3A19F9E9C9A9896946E
:1002700092908E8C8A89878583817F7D7B79777543
:1002800073716F6D6B6968666462605E5C5A595722
:10029000555351504E4C4A4947454342403E3D3BE1
:1002A0003A3836353332302F2D2C2A29282625236B
:1002B0002235002B002A00E100E00000001E00149F
:1002C0000004001D44000FE3001F001A0016001B6D
:1002D00000000702512000080007000600E200E1CC
:1002E000002100150009001900E00001002200179C
:1002F000000A0005000000290011502E0200002E07
:1003000000000001001550085D0000095D000001BB
:100310000023001C000B00110000004C00240018FA
:10032000000D0010002800010025000C000E003612
:100330000050002C00260012000F0037005100036F
:100340005127001300330038435200E70031002DDD
:10035000003400E5004F0000000100010001000131
:10036000000100000001000100010001000100E0A7
:100370000001000100010001000100010001000175
:100380000001000100010001000100010001000165
:1003900000E3000100010001000100010000000174
:1003A00000105001000000010000000100010001E8
:1003B0000000000100000001000100010001000137
:1003C0000000000100010001000100010001000126
:1003D0000001000100010001000100010001000115
:1003E0000001000100010001000100010001000105
:1003F000000100E400010001000100010001000013
:100400000001000100010001000100000001001EC8
:1004100002200222020100010001001F022102232A
:10042000020100010001002F0226022F000100013D
:1004300000010030022702300001000100010031FC
:10044000022E0035020000010010500100000001E2
:100450000000000100105001000000010000000138
:100460000001005200510024020000010029005F39
:10047000005C00590062000100530060005D005AFA
:100480000085000100010061005E005B0063000167
:1004900000540055005600580058000100010001AA
:1004A000000100010001000000010001004C0001FA
:1004B000000100000001000100010001000100F640
:1004C0000001000100F2000100010001000100F044
:1004D00000F10001000100F40001000100F300013F
:1004E0000001000100010001000100010000000105
:1004F00000010001000000010000000100010001F6
:1005000000000001000000010001000100010001E5
:10051000000000010001004A00500001000100013C
:100520000001005200510001000100F70001004DE0
:10053000004F000100010001000100010001000165
:1005400000010001000100010001000100010000A4
:100550000001000100010001000100000001000194
:1005600000010001000100085D01000100AC00AACB
:10057000000100010001000100AE00A8000100CA56
:100580005C01000100AB00A9000100055D01000154
:1005900000010001000000C35C005C0100000001DC
:1005A000000000035D145C055D0000065D0000C2F4
:1005B0005C3A003F0044006B000000045D3B0040DB
:1005C0000045006C00075D065D3C00410068006D61
:1005D000000100C55C3D00420069006E000100C6DC
:1005E0005C3E0043006A006F000100095D7000710D
:1005F0000072007300010000000000000000000015
:10060000000000000000001E0014000400000000B4
:100610000000001F001A0016000000190000002052
:100620000008000700000006000000210015000976
:1006300000000000000000220017000A0000002A4D
:1006400000105025020000250200004C001150252A
:10065000020000250200002800000023001C000BFF
:100660000000002C000000240018000D0000000015
:1006700000000025000C000E000000100000002605
:100680000012000F000000110000002700130033CB
:100690000000000000000000002F003400000000F7
:1006A0000000047F3F1F643214643214783C1E1E25
:1006B000140A0505010902A10185020901A100052D
:1006C0000919012905150025019505750181029576
:1006D00001750381010501093009311581257F95D7
:1006E000027508810609381581257F9501750881F5
:1006F00006050C0A38021581257F950175088106CB
:10070000C0C005010980A10185031A81002A830068
:10071000160100260300950175108100C0050C0923
:1007200001A10185041A01002A9C02160100269CE1
:1007300002950175108100C005010906A10185051A
:10074000050719E029E715002501950875018102C3
:100750000507190029EF1500250195F075018102A3
:100760000508190129059505750191029501750383
:100770009101C005010906A101050719E029E71546
:100780000025019508750181029501750881010513
:1007900007190029FF150026FF009506750881003E
:1007A0000508190129059505750191029501750343
:1007B0009101C009023B00020100A0FA09040000F7
:1007C0000103010100092111010001224000070578
:1007D000810308000A090401000103000000092147
:1007E0001101000122C0000705820320000A120146
:1007F000100100000008EDFE0713010001020301D3
:1008000004033000000016034500720067006F000B
:1008100064006F007800200045005A0000000803C3
:100820005A005300410000000403090411241FBEB4
:10083000CFEFDAE0DEBFCDBF11E0A0E0B1E0E6E34C
:10084000FCE502C005900D92A23FB107D9F726E062
:10085000A2EFB1E001C01D92AD37B207E1F70E94EF
:1008600010280C94EE2D0C940000E8EDF0E080814F
:100870008E7F80831092E2001092DA001092E100E5
:10088000A0EEB0E08C9181608C9380818F77808323
:1008900019BCA7EDB0E08C918E7F8C9380818F7E08
:1008A00080831092480608952091E4003091E5007D
:1008B00095E6A9012091EC00822F817020FF06C0EF
:1008C0008091E80080FF06C080E008952091E80054
:1008D00022FD1AC080916F06882389F0853089F047
:1008E0008091EB0085FD0FC02091E4003091E50080
:1008F00042175307F9F29150E1F684E0089582E03F
:10090000089583E0089581E00895EF92FF920F9398
:100910001F93CF937C018B010E945404C82F811137
:1009200017C08091E80085FD0BC08091E8008E77AC
:100930008093E8000E945404882399F3C82F08C0CC
:10094000F70181917F018093F1000150110949F76E
:100950008C2FCF911F910F91FF90EF900895809170
:10096000710687FF13C08091E80082FF06C0809166
:10097000E8008B778093E80004C080916F068111B6
:10098000F2CF089580916F068823D9F38091E80013
:1009900080FFF8CF8091E8008E77ECCF982F90936E
:1009A000E900242F762F50E0891731F07091EC0088
:1009B0002091ED005091F00021FD07C09F5F97301E
:1009C00071F78093E90081E008953091EB003E7F5C
:1009D0003093EB003091ED003D7F3093ED0030918E
:1009E000EB0031603093EB007093EC002093ED004E
:1009F0005093F0002091EE0027FDE0CF80E00895B5
:100A0000CF92DF92EF92FF920F931F93CF93DF93DA
:100A1000C8EDD0E088818F7E8883E7EDF0E08081AB
:100A20008160808384E082BF81E080934806888172
:100A30008E7F888302EE10E0F80110821092DA00B7
:100A400081EEC82ED12CF601108288818F778883A1
:100A500088818068888388818F7D888319BC109203
:100A60006F061092700610926E0610926D0690EE50
:100A7000E92EF12CF70180818B7F80838881816052
:100A8000888342E060E080E00E94CE04F60180812D
:100A90008E7F8083F801808181608083808188607F
:100AA0008083F70180818E7F808388818061888345
:100AB000DF91CF911F910F91FF90EF90DF90CF903A
:100AC0000895FC0180917706909178068617970724
:100AD000A0F06115710529F49091E8009E7790933C
:100AE000E80090E06115710551F4911108C0809102
:100AF000E80082FF34C080E00895BC01F2CF80910D
:100B00006F068823C1F18530C1F18091E80083FD33
:100B100030C08091E80082FDEACF8091E80080FF3C
:100B2000E1CF8091F3002091F200382F611571051B
:100B300019F02830310558F091E02830310509F0DE
:100B400090E02091E8002E772093E800CBCF8191B0
:100B50008093F100615071092F5F3F4FE7CF809183
:100B60006F06882341F0853041F08091E80083FFD3
:100B7000BECF81E0089582E0089583E008958091DA
:100B80004706811107C080916F06843011F482E01E
:100B9000089581E00895089580914C0608959091FC
:100BA0002306803F41F48091240687FD109224069D
:100BB000992371F00895813F29F480912406181635
:100BC000ACF3F6CF823F81F497FFF2CF1092230669
:100BD0008091240690912506892B90912606892BD9
:100BE00049F7109227060895833F19F4191674F3F4
:100BF000DFCF893F39F4809125061816CCF6109284
:100C00002506D6CF8A3F29F48091250687FFD0CFCD
:100C1000F6CF8B3F39F48091260687FFC9CF10921B
:100C20002606C6CF8C3F29F4809126061816BCF301
:100C3000BFCF843F31F4809122068E7F80932206BD
:100C4000B7CF853F21F4809122068D7FF7CF863F75
:100C500021F4809122068B7FF1CF873F21F4809190
:100C60002206877FEBCF883F21F4809122068F7E7A
:100C7000E5CF8D3F31F48091F0058E7F8093F005B4
:100C800097CF8E3F21F48091F0058D7FF7CF8F3F76
:100C900009F08ECF8091F0058B7FF0CF8091F00529
:100CA00080FD16C081FD16C082FD16C0809127060A
:100CB0008823A1F0883280F428E0829FC0011124AB
:100CC00068E270E00E94482C862F672B39F0089567
:100CD00082E0089584E0089588E0089581E0089511
:100CE0008091F00580FD16C081FD16C082FD18C000
:100CF00080912706882391F08C3390F423E2829F21
:100D0000C00111246CE370E00E94482C862F672BF1
:100D100049F0089588E0089581E1089585E00895F7
:100D200083E2089581E00895803F31F40E947006C7
:100D30008195809324060895813F19F40E947006DE
:100D4000F8CF823F31F40E9470068195809323068C
:100D50000895833F19F40E947006F8CF893F29F463
:100D60000E944E068093250608958A3F21F40E9432
:100D70004E068195F7CF8B3F31F40E944E06819548
:100D80008093260608958C3F19F40E944E06F8CFF2
:100D9000843F31F480912206816080932206089579
:100DA000853F21F4809122068260F7CF863F21F4AF
:100DB000809122068460F1CF873F21F48091220642
:100DC0008860EBCF883F21F4809122068061E5CFD7
:100DD0008D3F31F48091F00581608093F005089596
:100DE0008E3F21F48091F0058260F7CF8F3FB9F7F5
:100DF0008091F0058460F1CFCF92DF92EF92FF9265
:100E00000F931F932FB7F8944091EC055091ED0587
:100E10006091EE057091EF052FBF6A017B01EE2412
:100E2000FF248C0130E020E0C016D106E206F30674
:100E300050F0481B590BCA011F910F91FF90EF9082
:100E4000DF90CF90089541505109F3CF8091E7058D
:100E500081111092E70508958091E6059091E505CE
:100E6000892B9091E405892B8093F2019091E705FD
:100E70009923A1F0892B8093F2018091230188238B
:100E800041F18091090687FF24C08EE1E4EFF1E093
:100E900090E0815000F591110E942607E091100624
:100EA000F09111063097E1F080912301882359F0E9
:100EB0008091090687FF07C08091F2018093F301BA
:100EC00085E08093F2010280F381E02D82EF91E0D2
:100ED000099486E0DBCF21912223D9F29F5FD9CFFD
:100EE0000895909123019923D1F09091090697FFDD
:100EF00016C0E82FE695E695E695EE31E0F4F0E0D1
:100F0000EE50FE4F282F277081E090E001C0880F3F
:100F10002A95EAF780959281892382830895E4EFE8
:100F2000F1E09191891303C0DF0111971C9291E0C8
:100F3000EA3FF907B1F70895909123019923C1F091
:100F40009091090697FF14C0E82FE695E695E6957F
:100F5000EE31F8F4F0E0EE50FE4F877021E030E023
:100F600001C0220F8A95EAF78281822B828308953D
:100F7000A4EFB1E0EFEF90E02D91821751F0EF3F39
:100F800019F4211101C0E92F9F5F9630A9F7EF3FB7
:100F900009F408950E2E000CFF0BEE50FE4FE6CF25
:100FA000E92FEE0FE90FEE0F8E0F982F97708695B1
:100FB0008695869525E0829FF0011124E455FA4F2D
:100FC00050E040E080E0219130E0092E02C03695EB
:100FD00027950A94E2F721703327042E01C0220FCF
:100FE0000A94EAF7822B4F5F5F4F4530510559F75E
:100FF0000895E92FEE0FE90FEE0F8E0F982F9770DF
:1010000041E001C0440F9A95EAF78695869586954A
:1010100095E0899FF0011124E455FA4F30E020E07B
:1010200070E05191DF011197CB01022E02C096951D
:1010300087950A94E2F78170819585278423852717
:101040008C932F5F3F4F2530310559F708958091DC
:10105000AB0590917A05981301C008958F5F877052
:10106000FACF882341F080959091E50589238093FC
:10107000E5050C942C070895882339F09091E50537
:10108000982B9093E5050C942C070895882341F044
:1010900080959091E60589238093E6050C942C07B2
:1010A0000895882339F09091E605982B9093E605F2
:1010B0000C942C0708952091590230915A02281758
:1010C000390771F090935A0280935902E09110060B
:1010D000F0911106309721F00084F185E02D0994FC
:1010E000089520915702309158022817390771F05E
:1010F0009093580280935702E0911006F0911106E8
:10110000309721F00680F781E02D09940895E09151
:101110001006F0911106309721F00190F081E02D3A
:10112000099480E008958091400680FF02C0869572
:10113000089580E0089580914006982F9E7F29F4BD
:10114000817082608093400608958A34E8F381704C
:101150008864F8CFAF92BF92DF92EF92FF920F9325
:101160001F93CF93DF93082F162FE901E42FF0E0B0
:10117000E455FF4F611110C0E4915E2F4E2F49835B
:10118000E8835A83DF91CF911F910F91FF90EF90E9
:10119000DF90BF90AF900895E62EF12C4491D42EAD
:1011A000E42FF0E026E0829FC00111242FEF30E011
:1011B000B9010E94342C802F90E0880F991F55E5CB
:1011C000569FD001579FB00D11248A1B9B0B982F5F
:1011D000990F890F5901AE18BF08AE9ED001AF9E7E
:1011E000B00DBE9EB00D11245B2F189F80011124FD
:1011F000012F11275901A01AB10AAE9E8001AF9E9E
:10120000100DBE9E100D11245901A81AB108AE9CF4
:10121000C001AF9C900DBE9C900D1124892F992781
:10122000281B390B2E9FC0012F9F900D3E9F900DC4
:101230001124E92F62307105A1F050F46115710598
:1012400009F49DCF6130710581F0EB2F512F97CFBD
:101250006430710569F080F06630710509F48FCF54
:10126000F4CFE42F4B2F592F8ACFE42F412F87CF74
:10127000EB2F542F492F83CF4B2F5D2DE12F7FCFA5
:101280009091090692FF06C0282F28712830F9F4A2
:10129000877F846093FF06C0282F28712831F1F4DE
:1012A000877E846120910A0620FF06C0382F38719E
:1012B0003830D9F4877F816021FF06C0282F28713C
:1012C0002831D1F4877E816194FD877E0895282F8F
:1012D00024712430F9F68B7F8860DCCF282F2471AD
:1012E000243101F78B7E8861DDCF382F31713130A9
:1012F00019F78E7F8860E0CF282F2171213121F7E7
:101300008E7E8861E1CFCF93DF93972F70E026E048
:10131000929F600D711D1124FB0134E5839FE00D48
:10132000F11D1124EE0FFF1FEF54FD4FC591D49115
:10133000CE01C238D105B9F1E8F5C133D10509F4C0
:1013400099C050F5C932D10509F48DC0CA32D10512
:1013500009F497C0C11540E5D40708F0C3C0C11512
:1013600050E4D50708F0C2C1C83ED10508F0A2C0BC
:10137000C13ED10568F5C83AD10508F089C0C53A23
:10138000D10508F00FC1C130D10511F1209709F442
:1013900043C02497E8F440C0C533D10509F45CC0CC
:1013A000C933D105B9F620910906237089F080EE82
:1013B00090E00EC0C33ED10591F168F4C03ED10566
:1013C000F9F0C23ED10531F62091090622FD20C078
:1013D000DF91CF910895C63ED10561F1C73ED10599
:1013E00081F1C43ED10509F0B5CF20910A0621FF55
:1013F000EFCF8091090684FD0FC087EE90E0E8CF23
:101400002091090620FDC2C130910A0630FFE0CFCD
:1014100083EE90E024FFDCCF90E080E0D9CF2091F4
:10142000090622FDB6C130910A0630FDC0CF24FF67
:10143000CFCFF2CF2091090623FFCACF24FDECCFF6
:10144000DCCF2091090623FDA7C130910A0631FFA8
:10145000EECF84EE90E0BCCF2091090625FFB8CFF7
:1014600089E290E0B5CF2091090625FFB1CF85E351
:1014700090E0AECF2091090626FFAACF8AE290E045
:10148000A7CF2091090626FFA3CF81E390E0A0CF4C
:10149000CF3BD10508F495C0FE01E05CF109E032D4
:1014A000F10508F0B9CFEE0FFF1FE455FF4F85910E
:1014B00094918ECFC11520E2D20760F4C11531E0BE
:1014C000D30708F085CFCE019065C03FD10508F065
:1014D0007FCFA2CFC11540E3D40708F0FFC0FE01C3
:1014E000FF70E1CFC11555E5D50748F5C11584E575
:1014F000D80708F02CC1C11592E5D90750F4C115E1
:1015000021E5D20708F4F6C09C2F8827816F906AE6
:101510005FCF9C2F96959695AE0143705527C115C8
:10152000D34508F005C121E030E002C0220F331F8F
:101530004A95E2F750E2959FC0011124F5C0C1150C
:101540004AE5D407A0F4C11559E5D50708F00EC146
:10155000C11586E5D80708F4FFC0C11598E5D9077D
:1015600008F45ACF9C2F8827806F906A31CFC1151D
:101570002BE5D20708F450CFCE01C1153CE5D307C7
:1015800008F401C190568115904208F045CF8D2F87
:101590008F710E94400990E0982F882788279F71BB
:1015A0008C2BE2C081E890E4C53AD10509F410CF54
:1015B00082E890E4C63AD10509F40ACF83E890E4C2
:1015C00007CF82EE94E4C83AD10509F401CF89EE41
:1015D00094E4C93AD10509F4FBCE8AEE94E4CA3A00
:1015E000D10509F4F5CE85EB94E4CB3AD10509F4A5
:1015F000EFCE86EB94E4CC3AD10509F4E9CE83EB47
:1016000094E4CB3BD10509F4E3CE84EB94E4CC3BEA
:10161000D10509F4DDCE87EB94E4CD3AD10509F488
:10162000D7CE8CEC94E4C03BD10509F4D1CE8DEC3F
:1016300094E4CE3AD10509F4CBCE83E895E4CF3AD1
:10164000D10509F4C5CE8AE895E4C13BD10509F47A
:10165000BFCE82E995E4C23BD10509F4B9CE84E955
:1016600095E4C33BD10509F4B3CE81E296E4C43BD3
:10167000D10509F4ADCE83E296E4C53BD10509F46A
:10168000A7CE84E296E4C63BD10509F4A1CE85E25B
:1016900096E4C73BD10509F49BCE86E296E4C83BAD
:1016A000D10509F495CE87E296E4C93BD10509F44A
:1016B0008FCE8FE694E4CD3BD10509F489CE80E747
:1016C00094E4CE3BD10509F483CE80E094E4CA3B98
:1016D000D10509F07DCE8AE296E47ACECE01992733
:1016E000D3FF02C0986C74CE906C72CECE019F7006
:1016F000906A6ECE9E01E4E036952795EA95E1F773
:1017000023708C2F86958695837050E2859FC0014B
:101710001124AC01522B9A01C37081E090E002C009
:10172000880F991FCA95E2F7822B932B9C6850CEA5
:1017300021E030E002C0220F331F4A95E2F740E279
:10174000949FC0011124822B932B9A6841CE9C2F29
:101750008827846F906A3CCE8C2F0E94400990E0CD
:10176000982F882788279F71906232CE8C2F8F7098
:101770000E94400934E0D695C7953A95E1F7CF70BD
:101780009C2F906925CE9927906622CE89E390E020
:101790001FCE82EE90E01CCE86EE90E019CEBF9276
:1017A000CF92DF92EF92FF920F931F93CF93DF932D
:1017B0008C01C0900C06D0900D06E0900E06F090C3
:1017C0000F068091E8059091E905A091EA05B09196
:1017D000EB05C82AD92AEA2AFB2ACFE1D0E0BC2EA1
:1017E000D701C6010C2E04C0B695A795979587958D
:1017F0000A94D2F780FD0EC0219788F7B12C8B2D6B
:10180000DF91CF911F910F91FF90EF90DF90CF90DC
:10181000BF900895B8018C2F0E948309019761F34E
:10182000EECFCF93DF93EC010E94CF0BBE01DF918F
:10183000CF910C9483090E94110C292F2F7092953F
:101840009F7092509E3078F4E92FF0E0E051F24D15
:101850000C945C2C803F19F020F4883E20F481E049
:101860000895843FE1F380E00895883EC0F3813F0E
:10187000D1F7F5CF822F869586958695089527987E
:101880002F98089526982E98089525982D980895B4
:1018900056985E980895279A2F9A0895269A2E9A18
:1018A0000895259A2D9A089584B1807F84B985B1D1
:1018B000807F85B98AB1837F8AB98BB1837F8BB9E9
:1018C0003E984698089580B38C7080BB81B3836F37
:1018D00081BB08950F931F93CF93DF9300D00F9296
:1018E000CDB7DEB78C010E94BF05823011F0843085
:1018F00021F584E089831B830A8382E08093E900D9
:101900008FEF9091E800815095FD06C095ED9A9576
:10191000F1F700008111F5CF8091E80085FF0DC03F
:1019200050E040E063E070E0CE0101960E94850443
:101930008091E8008E778093E8000F900F900F90D1
:10194000DF91CF911F910F910895CF93DF9300D036
:101950000F92CDB7DEB720916F06243031F523E02A
:101960002983805891099B838A8382E08093E900D0
:101970008FEF9091E800815095FD06C095ED9A9506
:10198000F1F700008111F5CF8091E80085FF0DC0CF
:1019900050E040E063E070E0CE0101960E948504D3
:1019A0008091E8008E778093E8000F900F900F9061
:1019B000DF91CF910895CF93DF93EC010E94BF0593
:1019C000823011F08430F9F482E08093E9008FEFE7
:1019D0009091E800815095FD06C095ED9A95F1F73C
:1019E00000008111F5CF8091E80085FF0CC050E028
:1019F00040E066E070E0CE010E9485048091E8003E
:101A00008E778093E800DF91CF910895CF93DF9395
:101A1000EC010E94BF05823011F08430B9F580914D
:101A200023018823B1F18091090687FF32C060E26B
:101A300082E08093E9008FEF9091E800815095FD5E
:101A400006C095ED9A95F1F700008111F5CF8091D0
:101A5000E80085FF1BC08091230170E050E040E06A
:101A6000811104C050E040E068E070E0CE010E94C7
:101A700085048091E8008E778093E80080E2FE0183
:101A8000ADE4B6E001900D928A95E1F7DF91CF9138
:101A9000089568E081E0CDCF8823B9F05198599A34
:101AA0005098589A95E09A95F1F70000509A5898F6
:101AB00095E09A95F1F70000882311F0519A599812
:101AC00085E08A95F1F700000895519A5998E8CF7A
:101AD000CF93DF93D82FC8E08D2F80780E944C0DD4
:101AE000DD0FC150C9F780E00E944C0D85E08A955A
:101AF000F1F7000085E08A95F1F7000080E0DF91C2
:101B0000CF9108950F931F93CF93DF938091400659
:101B100080FD0AC0E9E1F2E011821082128234965F
:101B200052E0E535F507C1F70FB71091BC00F89406
:101B30008091BC008B7F8093BC008BB18C7F8BB974
:101B40005098589A5198599A85E08A95F1F7000073
:101B50008AB18C7F8AB9E5E0EA95F1F70000519AE5
:101B60005998F5E0FA95F1F70000509A589855E029
:101B70005A95F1F7000084E80E94680DC9E1D2E0AF
:101B800089910E94680D82E0C535D807C9F7509841
:101B9000589AE5E0EA95F1F700005198599AF5E076
:101BA000FA95F1F700000FBF1093BC00579A3BB1B4
:101BB0003F772BB120684FB7F89489E192E0FC01A0
:101BC0005191CF0168E02BB9000000C057FF3BB92D
:101BD000550F000000C000C000C03BB900C06A95AE
:101BE00091F7F2E085359F0751F74FBFDF91CF9115
:101BF0001F910F910895EF92FF920F931F93CF9330
:101C0000DF938C01C9E1D2E0F12CE12CF801948141
:101C10006091420680914106F7E0EF16F104FCF472
:101C20009923F9F09E01409143060E94AA082FEFE4
:101C3000E21AF20A24968FE0E816F10439F70E94BE
:101C4000820DF801848190E0019681709927848348
:101C5000DF91CF911F910F91FF90EF9008959923FD
:101C600009F39E0140E0E1CFEF92FF921F93CF93E3
:101C7000DF93EC0189E1E82E82E0F82E10E08C8100
:101C800097014091430660914206810F0E94AA0885
:101C90001F5E84E0E80EF11C1F3F89F70E94820D51
:101CA0009A818C8190FF08C08F5F8C83DF91CF91E8
:101CB0001F91FF90EF9008958150F7CFBF92CF9280
:101CC000DF92EF92FF920F931F93CF93DF93FC016C
:101CD0008281DD24DA9480FD02C0DD24D39409E101
:101CE00012E0D0E0C0E02FE0B22EF80111821082A5
:101CF000128294E0E92EF12CC12C809116028C0DF9
:101D000080310CF43DC06B2D0E94262C892F082EAB
:101D1000000C990B8C179D0791F4809143068E9DC2
:101D2000A0018F9D500D11245595479555954795C8
:101D3000980160914206809141060E94AA08CD0C4C
:101D4000F1E0EF1AF108C9F621960C5F1F4FCF3072
:101D5000D10559F60E94820D8091160291E0D912A8
:101D600015C0811111C08EE080931602DF91CF91D2
:101D70001F910F91FF90EF90DF90CF90BF9008954B
:101D800087FFC5CF815FC3CF8150EECF90E0019632
:101D9000BE010E94482CE8CF0F931F93CF93DF938F
:101DA000C9E1D2E0FE01118210821282349682E0F3
:101DB000E535F807C1F710E000E080911702082E22
:101DC000000C990B081719078CF180911201082E4D
:101DD000000C990B801791074CF19E01409143062E
:101DE00060914206809141060E94AA080F5F1F4F32
:101DF00024960F30110509F70E94820D8091110180
:101E000090911702980F9093170220911201280FBA
:101E100020931201121614F49E301CF081958093C9
:101E20001101DF91CF911F910F91089519821882AE
:101E30001A82DCCFEF92FF920F931F93CF93DF9321
:101E4000EC018C819D810196817099279D838C8303
:101E500089E1E82E82E0F82E10E005E5812F8695D5
:101E60002C813D81820F932F911D817097014091AC
:101E7000430660914206809F802D11240E94AA088B
:101E80001F5F84E0E80EF11C1F3041F7DF91CF9116
:101E90001F910F91FF90EF900C94820D909140064E
:101EA00090FF0CC0E9E1F2E08183608342833496C5
:101EB00092E0E535F907C1F70C94820D08950F9370
:101EC0001F93CF93DF9300D000D0CDB7DEB78C0146
:101ED0008091180281110AC09E012F5F3F4F4FEF82
:101EE0006FEF0E94AA088A8180931802F80164812A
:101EF000613069F08091180240E0662361F040E0B3
:101F0000623011F44091180280E060E004C06091FA
:101F1000180240E080E00E944E0FF801848190E0BA
:101F2000019663E070E00E94482C84830F900F902C
:101F30000F900F90DF91CF911F910F910895CF9344
:101F4000DF9300D000D0CDB7DEB79091400690FF70
:101F50000AC09E012F5F3F4F0E94AA084B816981F2
:101F60008A810E944E0F0F900F900F900F90DF917B
:101F7000CF910895CF93DF93EC01EC81F0E0EF5423
:101F8000FE4F4491E0E4F6E0628181810E949F0F60
:101F90008C818F5F8C83DF91CF910895CF93DF93F6
:101FA000EC01E0E4F6E0438162818C810E949F0FA6
:101FB0008C818F5F8C83DF91CF910895EF92FF9298
:101FC0000F931F93CF93DF930E94480C0E94450C00
:101FD0000E94420C0E943F0C88E8E82EF12C8FEF03
:101FE00090E0F701918380830AE810E0F801918383
:101FF0008083CCE8D0E0998388830E94510CFFEF66
:1020000020E782E0F15020408040E1F700C000006E
:102010000E944E0C9FEFE0E7F2E09150E040F0406C
:10202000E1F700C000000E944B0C2FEF80E792E028
:10203000215080409040E1F700C000000E94450C14
:10204000EFEFF0E722E0E150F0402040E1F700C080
:1020500000000E94420C8FEF90E7E2E08150904038
:10206000E040E1F700C000000E943F0C8091F705BE
:102070008770FFEF8F9FC0011124959587959595E7
:1020800087959927F70191838083F8019183808355
:10209000998388830E94480C0E94450C0E94420C40
:1020A000DF91CF911F910F91FF90EF900C943F0C17
:1020B000CF9384E090E00E946E2CC82F81E290E0E4
:1020C0000E946E2C982F8C2FCF91089590E080E085
:1020D0000E947C2C21E08F3E9E4F09F020E0822F51
:1020E00008956091F3058CE090E00C94822CCF92DF
:1020F000DF92EF92FF926B017C010E949B08B70177
:10210000A60188E090E0FF90EF90DF90CF900C94D4
:10211000942C5F926F927F928F929F92AF92BF9218
:10212000CF92DF92EF92FF920F931F93CF93DF93A3
:1021300000D000D0CDB7DEB7182F762E042F622E38
:102140009091400690FF29C0E92FE695AE2FB0E0B0
:10215000AC5DBE4F8C91809345069E7F923089F591
:102160009E012F5F3F4F812F0E94AA084B816981FA
:102170008A810E944E0F109341067092420600938E
:102180004306662051F060914006709141068091AF
:102190004206909143060E9477100F900F900F9087
:1021A0000F90DF91CF911F910F91FF90EF90DF90F3
:1021B000CF90BF90AF909F908F907F906F905F90E7
:1021C0000895823019F400914306D5CF863019F472
:1021D00010914106D0CF8930D9F3893161F6E951A8
:1021E0008E2F8170582EE695F0E0E455FE4FA590B5
:1021F000B490BB2489E1E82E82E0F82ED12CC12CCA
:102200009FE0892E912CC601B4010E94342C812FAD
:10221000511013C0860F9701402F672D0E94AA0806
:10222000CA0CDB1C84E0E80EF11C85E5E81682E0B0
:10223000F80649F70E94820D9ECF861BECCFE0E4A2
:10224000F6E080818E7F80836081718182819381BD
:102250000E947710109246062FEF80E792E02150FF
:1022600080409040E1F700C000000C94820DE0E453
:10227000F6E083E0808311828FEF82838383148270
:1022800060817181828193810C9477106FEE7EEF73
:1022900090E080E00E94A02C60E082E090E00E944C
:1022A000822C60E083E090E00E94822C1092E8058E
:1022B0001092E9051092EA051092EB0560E084E0C7
:1022C00090E00E94822C60E081E290E00E94822CEB
:1022D00060E085E090E00E94822C60E086E090E083
:1022E0000E94822C6FEF87E090E00E94822C40E0F9
:1022F00050E0BA0188E090E00E94942C60E08DE00C
:1023000090E00E94822C40E050E0BA0188E190E029
:102310000E94942C60E087E190E00E94822C40E0D3
:1023200050E0BA018CE190E00E94942C60E080E2E1
:1023300090E00E94822C1092F7051092F8051092FE
:10234000F9051092FA0584E080618093F7054091C9
:10235000F7055091F8056091F9057091FA058FE045
:1023600090E00E94942C40E050E0BA0183E190E0BC
:102370000C94942CCF93C82F873070F5809117015F
:1023800090911801892B89F564E670E080E40E9441
:10239000732B9093180180931701892BD1F464E675
:1023A00070E082E10E94CF2B909318018093170177
:1023B000892B79F481E090E001C0880FCA95EAF793
:1023C00064E670E080950E94CF2B90931801809373
:1023D0001701CF910C94222C8A30B9F040F4883048
:1023E00071F0893079F0209A2898CF9108958C3037
:1023F00091F070F08D30B9F73E9A4698F6CF219A59
:102400002998F3CF229A2A98F0CF239A2B98EDCFD0
:10241000529A5A98EACF539A5B98E7CF80E290E0BD
:1024200090931801809317018091150281110EC0BD
:102430000E946D2B81E0809315022FEF83ED90E3D6
:10244000215080409040E1F700C0000064E670E059
:1024500080E40E94732B9093180180931701892BBD
:1024600009F04EC064E670E080E00E94CF2B9093AC
:10247000180180931701892B09F042C064E670E0CF
:1024800080E00E94CF2B9093180180931701892B35
:10249000B9F564E670E08FE30E94CF2B90931801AA
:1024A00080931701892B61F50E94222C64E670E06D
:1024B00080E40E94732B9093180180931701892B5D
:1024C000F9F464E670E08CE00E94CF2B9093180141
:1024D00080931701892BA1F464E670E080E00E94EC
:1024E000CF2B9093180180931701892B49F464E650
:1024F00070E08FE30E94CF2B909318018093170117
:102500000E94222C809117010895CF93873008F004
:1025100040C08091170190911801C0E0892B71F49F
:1025200064E670E080E40E94732B9093180180931E
:102530001701892B31F0C0E00E94222C8C2FCF9103
:10254000089564E670E083E10E94CF2B9093180118
:1025500080931701892B79F764E670E081E40E948B
:10256000732B9093180180931701892B21F784E630
:1025700090E00E94FE2B97FF05C090931801809376
:102580001701D9CFC82FC0951092180110921701CA
:10259000D3CFCFB18FB1869586958C73C3708C2BBA
:1025A000C82FC095CBCF78941F921FB61F921124CD
:1025B0008F939F93AF93BF938091EC059091ED051E
:1025C000A091EE05B091EF050196A11DB11D80937C
:1025D000EC059093ED05A093EE05B093EF05BF9148
:1025E000AF919F918F911F901FBE1F9018952FB78D
:1025F000F8948091EC059091ED05A091EE05B091D5
:10260000EF052FBF0895E0911006F0911106309765
:1026100049F082E0809321060480F581E02D81E27B
:1026200096E009950E94F712909329068093280658
:1026300008951092E5051092E4050E942C0786E0AB
:10264000E1E2F6E0DF011D928A95E9F71092270694
:102650001092F0050E94031390E080E00E94710840
:1026600090E080E00C945B086093E8057093E905C6
:102670008093EA059093EB050C9419131092E605EC
:1026800080912301E4EFF1E0882359F0809109065D
:1026900087FF07C08EE1DF011D928A95E9F70C9450
:1026A000191386E0F8CF1F93CF93DF93CDB7DEB732
:1026B000AA970FB6F894DEBF0FBECDBF81E796E0B4
:1026C0002091F100FC012193CF01F6E089379F07AB
:1026D000B9F780917206833009F46FC0B8F4813085
:1026E00009F446C0823009F4B0C08091E80083FF4D
:1026F00087C280917106909172069A3008F080C26C
:10270000E92FF0E0E250F24D0C945C2C8A3009F491
:102710008BC08B3009F46EC0893039F78091710617
:10272000813219F780917506909176060297E8F646
:102730008091E800877F8093E8008091E80082FF25
:1027400037C09091F3008091F200029729F48091B4
:10275000F1008B7F813021F48091F10080934C0651
:102760008091E8008B778093E8000E94AF04BDCF92
:1027700080917106813A09F0B8CF8091E800877F97
:102780008093E8008091750690917606892B61F41C
:1027900060E28DE496E070E00E9461058091E800BF
:1027A0008B778093E800A1CF60E090E080E0F3CFEA
:1027B00080916F068111C1CF98CF80917106813AC7
:1027C00009F093CF8091750690917606892B09F0D8
:1027D0008CCF8091E800877F8093E8008091E800AB
:1027E00080FFFCCF809123018093F1008091E8006D
:1027F0008E77B9CF80917106813209F076CF8091C2
:10280000750690917606892B09F06FCF8091E800CC
:10281000877F8093E8000E94AF04809173068093C5
:1028200023010E943E1361CF80917106813209F02D
:102830005CCF8091E800877F8093E8000E94AF041E
:102840008091740680934B0650CF80917106813A37
:1028500009F04BCF8091E800877F8093E80080915A
:10286000E80080FFFCCF80914B06BECF803899F006
:10287000823809F0C5C1809175068F70873008F0E5
:10288000BFC18093E9008091EB0085FB882780F928
:102890001092E90006C080916D0690916E0691112C
:1028A00082609091E800977F9093E8008093F10018
:1028B0001092F1008091E8008E779EC1882309F480
:1028C0008CC1823009F09CC18091730681118FC147
:1028D000809175068F702FEF280F263008F090C179
:1028E0008093E9002091EB0020FF81C1933031F407
:1028F0008091EB0080628093EB0079C19091EB00B6
:1029000090619093EB0021E030E001C0220F8A95A6
:10291000EAF72093EA001092EA008091EB008860C9
:10292000EACF81116DC1109173061F778091E3008A
:102930008078812B8093E3008091E800877F8093EB
:10294000E8000E94AF048091E80080FFFCCF8091F6
:10295000E30080688093E30082E0111183E08093BC
:102960006F064EC18058823008F04AC180917306CC
:10297000909174068C3D23E09207A1F583E08A8351
:102980008AE289834FB7F894DE01139620E03EE097
:1029900051E2E32FF0E050935700E49120FF03C091
:1029A000E295EF703F5FEF708E2F90E0EA30C0F05D
:1029B000C7968D939D932F5F243159F74FBF809118
:1029C000E800877F8093E8006AE270E0CE0101961C
:1029D0000E9461058091E8008B778093E80010C128
:1029E000C096E7CF4091750650917606292F332780
:1029F0002330310509F445C078F52130310509F45B
:102A00007BC08BE390E0E3EBF7E02230310509F087
:102A1000F7C02091E800277F2093E80020917706F7
:102A2000309178068217930708F49C0140E0211545
:102A3000310509F070C041116EC08091E80082FD3F
:102A4000C9CF80916F06882329F2853019F28091D1
:102A5000E80083FFF2CFBECF2132310509F440C038
:102A60002232310509F0CCC04115510509F44EC0A0
:102A70004130510509F0C4C080EC90E0E3EBF6E092
:102A8000C8CF992781309105D9F0009771F0823035
:102A90009105F1F0039709F0B3C0E0E0F8E0E491AC
:102AA0008E2F90E0E0E0F8E007C0E8E2F8E0E49183
:102AB0008E2F90E0E8E2F8E0009709F4A1C0A9CFDA
:102AC000EEE1F8E0E4918E2F90E0EEE1F8E0F4CF53
:102AD000E6E0F8E0E4918E2F90E0E6E0F8E0ECCF5D
:102AE0004115510571F04130510509F089C089E067
:102AF00090E0EEEDF7E08DCF82E190E0EEEEF7E0D2
:102B000088CF89E090E0E5ECF7E083CF80E490E0C7
:102B1000E3E7F7E07ECF80916F06882309F45ACF70
:102B2000853009F457CF8091E80083FD53CF809121
:102B3000E80082FD82CF8091E80080FF78CF9091FD
:102B4000F3008091F2002115310519F088309105CC
:102B500050F041E0089709F040E08091E8008E775E
:102B60008093E80064CF44914093F1003196215066
:102B700031090196E8CF803809F042C08091E80021
:102B8000877F8093E800809170068093F10092CE59
:102B9000811136C010917306123090F58091E800D3
:102BA000877F8093E800109370060E94AF04112382
:102BB00011F084E005C08091E30087FDFACF81E049
:102BC00080936F0642E061EC81E00E94CE0442E215
:102BD00061EC82E00E94CE0413C0809173068130C4
:102BE00079F481E0933009F080E080936E061092D2
:102BF000E9008091E800877F8093E8000E94AF049D
:102C00008091E80083FF0AC08091E800877F80936D
:102C1000E8008091EB0080628093EB00AA960FB6EB
:102C2000F894DEBF0FBECDBFDF91CF911F91089505
:102C30001F920F920FB60F9211242F933F934F9331
:102C40005F936F937F938F939F93AF93BF93CF9334
:102C5000DF93EF93FF93D091E900DF708091EC0058
:102C6000C82FC17080FDC0E81092E9008091F0008B
:102C7000877F8093F00078940E9453131092E900AC
:102C80008091F00088608093F000CD2BCF70C093CE
:102C9000E900FF91EF91DF91CF91BF91AF919F91AB
:102CA0008F917F916F915F914F913F912F910F90F5
:102CB0000FBE0F901F901895882309F459C08238D1
:102CC00071F40E94870881FF53C089E30E949C072A
:102CD0000E942C0789E30E9471070C942C0783380B
:102CE00059F40E94870880FF43C083E50E949C0737
:102CF0000E942C0783E5EFCF843859F40E9487089F
:102D000082FF36C087E40E949C070E942C0787E45C
:102D1000E2CF9CEF980F913AF0F290E2980F983042
:102D200088F4877021E030E0A90102C0440F551FEC
:102D30008A95E2F7CA0180959091E60589238093F0
:102D4000E605CBCF9BE5980F933020F490E080E030
:102D50000C94710898E5980F973120F490E080E08A
:102D60000C945B08803F20F00E94CF050C94031365
:102D70000895882309F408C18238B9F40E948708AD
:102D800081FD02C189E30E949C070E942C072FEF5E
:102D900081EE94E0215080409040E1F700C00000B7
:102DA00089E30E9471070C942C078338A1F40E94D8
:102DB000870880FDE9C083E50E949C070E942C07DC
:102DC0002FEF81EE94E0215080409040E1F700C069
:102DD000000083E5E6CF8438A1F40E94870882FDD5
:102DE000D3C087E40E949C070E942C072FEF81EE3E
:102DF00094E0215080409040E1F700C0000087E45B
:102E0000D0CF9CEF980F913A18F40E949C07CBCF3B
:102E100090E2980F983068F4877021E030E001C0AC
:102E2000220F8A95EAF78091E605822B8093E605CA
:102E3000BACF9BE5980F933070F4853A31F0863A1B
:102E400039F083E890E00C94710881E890E0FBCFC2
:102E500082E890E0F8CF98E5980F973108F08EC09F
:102E6000883A09F446C0893A09F446C08A3A09F416
:102E700046C08B3A09F446C08C3A09F446C08B3BF5
:102E800009F446C08C3B09F446C08D3A09F446C0AB
:102E9000803B09F446C08E3A09F446C08F3A09F4E3
:102EA00046C0813B09F446C0823B09F446C0833BDF
:102EB00009F446C0843B09F446C0853B09F446C08A
:102EC000863B09F446C0873B09F446C0883B09F4B9
:102ED00046C0893B09F446C08D3B09F446C08E3B91
:102EE00009F446C08A3B09F446C090E080E00C94A7
:102EF0005B0882EE90E0FBCF89EE90E0F8CF8AEE9F
:102F000090E0F5CF85EB90E0F2CF86EB90E0EFCF4D
:102F100083EB90E0ECCF84EB90E0E9CF87EB90E09F
:102F2000E6CF8CEC90E0E3CF8DEC90E0E0CF83E84F
:102F300091E0DDCF8AE891E0DACF82E991E0D7CF66
:102F400084E991E0D4CF81E292E0D1CF83E292E0B4
:102F5000CECF84E292E0CBCF85E292E0C8CF86E28A
:102F600092E0C5CF87E292E0C2CF8FE690E0BFCF7C
:102F700080E790E0BCCF8AE292E0B9CF803F20F0BA
:102F80000E9494060C9403130895CF93C82F0E94B7
:102F9000B916C93349F42FEF87EE93E021508040F2
:102FA0009040E1F700C000008C2FCF910C945C168C
:102FB0000F931F93CF93DF93C62FD42F022FFC01C3
:102FC00082818823A1F060936E050E94F71290938E
:102FD000560280935502C77081E001C0880FCA95E0
:102FE000EAF7DF91CF911F910F910C945108109146
:102FF0006E05161335C080915502909156020E94BD
:10300000FC06883C910560F5C0E2CD0F1D17B9F0B4
:1030100080E2810F883040F4177081E001C0880F92
:103020001A95EAF70E944608C83048F481E09D2FBF
:10303000977001C0880F9A95EAF70E945108802F77
:103040000E94C517C83098F4D77081E001C0880F7E
:10305000DA95EAF7DF91CF911F910F910C94460812
:10306000C77081E001C0880FCA95EAF7F3CFDF91FE
:10307000CF911F910F91089560914006669570E081
:103080004BE050E086E091E00E94E12D892B19F49D
:1030900081E0809346060E94F71290933B0680934E
:1030A0003A0608959091400690FF36C091708111C4
:1030B00029C0926090934006662351F060914006CB
:1030C0007091410680914206909143060E947710CC
:1030D00060914006669570E04BE050E086E091E03C
:1030E0000E94E12D892BA9F01092460681E0809381
:1030F0003D0620E0409143066091420680914106E2
:103100000C948910853210F09864D4CF880F982BD6
:10311000D1CF0E943C18EACF0895E0E4F6E0808128
:103120008160808360E086950C9452181F920F9204
:103130000FB60F9211242F933F934F935F936F938A
:103140007F938F939F93AF93BF93EF93FF93809160
:10315000E10082FF09C08091E20082FF05C08091FA
:10316000E1008B7F8093E1008091DA0080FF24C032
:103170008091D80080FF20C08091DA008E7F8093FC
:10318000DA008091D90080FFA8C080E189BD82E18A
:1031900089BD09B400FEFDCF81E080936F06809168
:1031A0004806811109C00E9435040E9400058091E3
:1031B000E20084608093E2008091E10080FF17C00C
:1031C0008091E20080FF13C08091E2008E7F8093A7
:1031D000E2008091E20080618093E2008091D8005B
:1031E00080628093D80019BC85E080936F0680913F
:1031F000E10084FF36C08091E20084FF32C080E1AC
:1032000089BD82E189BD89B5982F917080FFFBCF80
:103210008091D8008F7D8093D8008091E1008F7ECF
:103220008093E1008091E2008F7E8093E2008091A4
:10323000E20081608093E20080917006882309F4A7
:1032400052C084E080936F060E943E130E9487085C
:1032500010924A068091490681110E948D180E94A1
:103260003C188091E10083FF27C08091E20083FF3A
:1032700023C08091E100877F8093E10082E080930A
:103280006F06109270068091E1008E7F8093E100BE
:103290008091E2008E7F8093E2008091E200806165
:1032A0008093E20042E060E080E00E94CE048091E2
:1032B000F00088608093F000FF91EF91BF91AF9193
:1032C0009F918F917F916F915F914F913F912F913E
:1032D0000F900FBE0F901F90189519BC10926F069B
:1032E0001092480669CF8091E30087FD93E09093A8
:1032F0006F06AACF61E00C94521880914006869523
:10330000815009F484E261E00C94521880914006E7
:1033100086958F5F853208F081E061E00C94521849
:10332000CF92DF92EF92FF92CF936B017C01C701A6
:10333000AA27BB27C0E10097A105B10519F4D70161
:10334000CB01C0E0492F5A2F6B2F7727411551052C
:103350006105710519F0C85FDB01CA01AC01BD014F
:10336000E4E07695679557954795EA95D1F741152D
:1033700051056105710519F0CC5FDB01CA01AC0193
:10338000BD0132E076956795579547953A95D1F707
:10339000411551056105710519F0CE5FDB01CA01C8
:1033A000B695A79597958795892B8A2B8B2B09F036
:1033B000CF5F0E94480C0E94450C0E94420C0E9464
:1033C0003F0CEFEFEC0FE73008F085C0F0E0E85F6E
:1033D000F14D0C945C2C0E94510C80916C05811174
:1033E00034C088E090E00E94762C60934006709391
:1033F0004106809342069093430660FF78C0862F73
:1034000081608093400686950E947A1980914006DB
:1034100086950E947A1921E0409143066091420608
:103420008091410610C00E944E0C80916C05811164
:103430000CC00E948D1860E081E00E94521820E0CC
:103440004CEB6FEF8BE20E948910C701B601CF9160
:10345000FF90EF90DF90CF9008950E944B0C8091E9
:103460006C058111F2CF0E948D1860E081E00E940E
:10347000521820E04BEC6FEF80E0E5CF0E94510C3A
:103480000E944E0C80916C058111DFCF0E948D1837
:1034900060E081E00E94521820E048EB6FEF84E486
:1034A000D2CF0E94510C0E944B0C80916C0581116F
:1034B000CCCF0E948D1860E081E00E94521820E07D
:1034C00044ED6FEF85EABFCF0E94510C0E944E0C75
:1034D0000E944B0C82CFC33011F220F4C23009F4A9
:1034E000A4CF7BCFC43071F2C530F9F276CF0E9401
:1034F0001F11ABCF0E94901960930C0670930D06BC
:1035000080930E0690930F060C9419130F931F933C
:1035100041E050E060E070E004C0440F551F661FBA
:10352000771F8A95D2F7CB01BA0160957095809587
:10353000909500910C0610910D0620910E06309189
:103540000F0660237123822393231F910F910C9404
:103550007A1A9091E305809589238093E305282FBB
:10356000277071F4282F082E000C330B92171306C6
:1035700039F08595859585950E94861A1092E30508
:1035800008950F931F9341E050E060E070E004C0A5
:10359000440F551F661F771F8A95D2F780910C063E
:1035A00090910D06A0910E06B0910F068A019B0125
:1035B000082B192B2A2B3B2BC901B8011F910F9106
:1035C0000C947A1A60E070E0CB010C947A1A4F9256
:1035D0005F926F927F928F929F92AF92BF92CF92A3
:1035E000DF92EF92FF920F931F93CF93DF9300D060
:1035F00000D00F92CDB7DEB77C01FC0183819481AE
:10360000892B41F01081D180812F8D218F3F11F0C6
:103610000C94FC230F900F900F900F900F90DF9160
:10362000CF911F910F91FF90EF90DF90CF90BF90BF
:10363000AF909F908F907F906F905F904F90089584
:103640000E94CF0B082F682F89819A810E94F90769
:10365000E12FF0E026E0D29EE00DF11D112434E5CB
:10366000039FE00DF11D1124EE0FFF1FEF54FD4FDE
:103670000591149102308DE51807E9F5F701828173
:103680008823C9F18091F70591E0980F9770887FA2
:10369000953008F4892B8093F7058091F7058770A2
:1036A000FFEF8F9FC001112495958795959587957C
:1036B0009927909389008093880090938B00809342
:1036C0008A0090938D0080938C004091F705509173
:1036D000F8056091F9057091FA058FE090E00E947D
:1036E000942C60910C0670910D0680910E069091BD
:1036F0000F060E94901980916B05811199C0F70106
:10370000828181110BC00630FDE51F0709F45EC000
:1037100060F505303DE5130709F44AC0F7018281E1
:103720000330FDE51F0709F40FC104302DE5120732
:1037300009F014C1882309F46DCF81E00F900F9038
:103740000F900F900F90DF91CF911F910F91FF90ED
:10375000EF90DF90CF90BF90AF909F908F907F9031
:103760006F905F904F900C947A1908308DE5180790
:10377000C9F109309DE5190789F6A0901301B090B1
:103780001401C0900C06D0900D06E0900E06F0904B
:103790000F060E943E130E94E21A03E615E0A016EF
:1037A000B106A9F1C8010E94E71A06501109F7CF26
:1037B0000E943E130E94E21A89E692E090936A0505
:1037C0008093690581E080936B0524CF0E943E13AE
:1037D0000E94E21A83E695E090936A05809369055A
:1037E00082E0F1CFA0901501B0901601C0900C06B8
:1037F000D0900D06E0900E06F0900F060E943E134A
:103800000E94E21A09E612E0A016B10659F40E94DD
:103810003E13C0920C06D0920D06E0920E06F09276
:103820000F06F8CEC8010E94E71A0A5F1F4FECCFBF
:103830000730EDE51E0779F128F00A302DE5120773
:1038400008F4E8CEF7019281813009F458C0823043
:1038500009F064CF2091150130911601A0916905FE
:10386000B0916A05911105C085E0A336B80709F447
:1038700055CFCD0106962817390709F44FCF86E0BA
:10388000F70101900D928A95E1F780916905909179
:103890006A05069754C0F7019281992309F4BACEBC
:1038A000813029F08230B9F010926B05B3CE80914F
:1038B000690590916A05F2E089369F0729F0FC01BD
:1038C00036972281211105C090931601809315012E
:1038D000EBCFCF01F0CF8091690590916A0525E08B
:1038E0008336920729F0FC0136962281211105C00A
:1038F0009093140180931301D7CFCF01F0CF209183
:10390000130130911401A0916905B0916A059111DC
:1039100005C0F2E0A936BF0709F400CFCD01069734
:103920002817390709F4FACE86E0F70101900D92C5
:103930008A95E1F78091690590916A0506969093C2
:103940006A0580936905EACE882309F463CE8091E5
:103950006C0591E0892780936C055CCE882391F0FB
:10396000033E3CE5130709F4DAC008F0C6C0013E87
:103970009CE5190709F4CEC081E0023EECE51E0784
:1039800009F4C5C017FFF8C0F7018281882309F444
:103990004DC08091E60580936D051092E6058091FB
:1039A000F305813009F4C3C0882309F4BCC0823018
:1039B00009F4CAC0843009F4CEC08FE39CE90197B2
:1039C000F1F700C000005801E894B7F84CE0C42EAD
:1039D000D12C95010C2C02C0369527950A94E2F75C
:1039E0002F7087E290E031F0822F90E02A3008F0CB
:1039F000B7C04D960E94C51794E0C91AD108ECEFE4
:103A0000CE16EFEFDE0629F78091F305813009F439
:103A1000ADC0882309F4A6C0823009F4A3C0843065
:103A200009F4A8C080916D058093E605F7018281B5
:103A3000882309F4F4C610926E050B3CFCE51F07C1
:103A400009F4A5C208F02EC1033C3CE5130709F4B4
:103A50002CC208F003C10631ECE51E0708F0DAC0FD
:103A60000230FCE51F0708F06AC101152CE51207BA
:103A700009F4B9C101301C4509F4F2C1F701008114
:103A80001181882309F4DAC3C8010E94CF0BD82E14
:103A9000682FC8010E94F907B8018D2D0E94830983
:103AA0008C01B82EF701C580C2943FE0C322D280BA
:103AB000D1101092E5058091E305877079F0DD2043
:103AC00069F080E2800F883048F082E00E94A91AF5
:103AD0008091E3058770AA24A3948111A12C912ED3
:103AE00092942FE09222FBE0F91508F4E1C3E92D4E
:103AF000F0E0E15FF14D0C945C2C043EFCE51F0707
:103B000081F084E0053E2CE5120709F03BCF80935D
:103B1000F30502C01092F3050E94711033CF82E0CA
:103B2000F6CF83E0F4CF82EE0E94B91646CF83E051
:103B30000E943C0888E10E94B91688E10E945C1648
:103B400083E00E94310839CF82EE0E94B91687E5E2
:103B50000E94C51732CF86EE0E94C51788E1F8CFC4
:103B6000069748CF82EE0E945C165CCF8CE20E94E2
:103B7000C51758CF88E2FBCF033FFCE51F07D9F1FB
:103B800040F5083D3CE5130791F1093D8CE5180728
:103B9000F1F1073D9CE5190709F048CF26E241EE17
:103BA00061EEC7010F900F900F900F900F90DF9173
:103BB000CF911F910F91FF90EF90DF90CF90BF902A
:103BC000AF909F908F907F906F905F904F900C94EC
:103BD000D817053FECE51E07B1F088F0063F2CE54D
:103BE000120709F023CF27E245EE66EEDACF27E28F
:103BF00045EE65EED6CF26E241EE60EED2CF27E26B
:103C000045EE64EECECF26E241EE62EECACF28E268
:103C100041E0EFCF06319CE5190709F4DFC2023C11
:103C20001C4509F02BCF8091400680FF39C10F90D1
:103C30000F900F900F900F90DF91CF911F910F91E8
:103C4000FF90EF90DF90CF90BF90AF909F908F90BC
:103C50007F906F905F904F900C941F11073CFCE594
:103C60001F0709F477C180F4053C3CE5130709F40C
:103C700052C108F435C18091410621E040914306CC
:103C8000609142068C504FC1093C9CE5190709F42C
:103C900074C108F46BC1409143062CE0421B08F448
:103CA00040E071C1033DFCE51F0709F4B4C120F5F4
:103CB0000F3C3CE5130709F496C178F40D3C9CE5F4
:103CC000190709F43ACD08F488C10E94930882507C
:103CD000833008F409C182E031CD013DFCE51F07C6
:103CE00009F491C108F487C10E949308855182307C
:103CF00008F4FAC085E122CD0D3D3CE5130709F437
:103D000096C188F4053DECE51E0709F48EC108F460
:103D100084C10C3D1C4509F0B1CE882309F47ACC4E
:103D20001092470677CC0E3D3CE5130709F4A1C07D
:103D300098012A5F3C452730310508F09FCE882343
:103D400009F49CCE0E946610811102C00E944611A7
:103D50000E94581090930A06809309060F309CE544
:103D6000190709F41CC208F09DC10830FCE51F07C3
:103D700009F4FFC108F070C104303CE5130709F4F1
:103D8000ECC108F058C102309CE5190709F4E1C103
:103D900080910906826003301C4509F46FC160916F
:103DA000090610910A0684E090E00E94822C612F9F
:103DB00081E290E00E94822C0F900F900F900F9064
:103DC0000F90DF91CF911F910F91FF90EF90DF90B7
:103DD000CF90BF90AF909F908F907F906F905F90AB
:103DE0004F900C943E130E943E138FEF94E3ECE04F
:103DF00081509040E040E1F700C00000F89481E07D
:103E00008093E00080E28093D8001092C9008FE197
:103E10009EE40197F1F700C000001DBA10926800FF
:103E20001CBC10BE1FBA10927A0010926E00109245
:103E30006F0010927100109272001092C9001092DF
:103E4000BC0014B817B81AB81DB810BA1092BC004C
:103E500015B818B81BB81EB811BA0C94003FDACBCD
:103E600090912B06892F8E7F90FF816080932B0687
:103E7000D1CB0F900F900F900F900F90DF91CF91BB
:103E80001F910F91FF90EF90DF90CF90BF90AF9078
:103E90009F908F907F906F905F904F900C94461101
:103EA000816080934006869549CC8091E6058272B8
:103EB000D9F00F900F900F900F900F90DF91CF914E
:103EC0001F910F91FF90EF90DF90CF90BF90AF9038
:103ED0009F908F907F906F905F904F900C947D1982
:103EE0008091E605827229F30F900F900F900F904A
:103EF0000F90DF91CF911F910F91FF90EF90DF9086
:103F0000CF90BF90AF909F908F907F906F905F9079
:103F10004F900C9486198091410621E04091430610
:103F200060914206845F0F900F900F900F900F905A
:103F3000DF91CF911F910F91FF90EF90DF90CF9085
:103F4000BF90AF909F908F907F906F905F904F90B9
:103F50000C948910609142062FEF620F08F46FEF06
:103F600021E04091430680914106DDCF60914206F9
:103F70002FEF621B08F460E0F3CF409143062CE082
:103F8000420F08F44FEF21E060914206ECCF8091A0
:103F90004406833018F48F5F809344066091400696
:103FA0007091410680914206909143060F900F90C8
:103FB0000F900F900F90DF91CF911F910F91FF9075
:103FC000EF90DF90CF90BF90AF909F908F907F90B9
:103FD0006F905F904F900C947710809144068823E7
:103FE000E9F28150D9CF0E9493088650823008F4BC
:103FF0007BCF86E0A3CB0E9493088950853008F4DC
:1040000073CF89E09BCB0E9493088F50853008F4D2
:104010006BCF8FE093CB88E191CB0E9493088951BD
:10402000893008F461CF89E189CB83E287CB82E0D4
:1040300080934706EFCA8091090680610630FCE54F
:104040001F07E1F080910906886007301C45B0F039
:1040500080910906806212C00B303CE5130709F419
:1040600096C078F409309CE5190709F486C0809160
:1040700009068C600A301C4509F091CE8093090630
:104080008ECE809109068B7F0D30FCE51F07B1F3C2
:10409000809109068D7F0E301C4580F380910906C2
:1040A000877FECCF0A3F3CE5130709F45AC048F577
:1040B00002319CE5190709F47AC060F40031FCE58F
:1040C0001F0709F470C0809109068F7B01311C45E0
:1040D000A9F265CE04313CE5130709F476C008F473
:1040E0006CC005311C4509F05ACE8091090682FB4F
:1040F000992790F921E0922790FB82F990FB83F9B0
:10410000BDCF0D3FECE51E0709F445C070F40B3F31
:104110002CE5120751F180910A068E7F0C3F1C4559
:1041200009F03DCE80930A063ACE0F3F8CE5180782
:1041300009F447C040F101151D4509F030CE8091CA
:104140000A06982F909591708E7F892B90FB81F9AC
:10415000E9CF80910906816091CF80910906846042
:104160008DCF80910A068160DDCF80910A06826042
:10417000D9CF80910906806481CF0E943E1380913F
:10418000090680687BCF80910A068360CBCF80913F
:1041900009068E7F73CF80910A068D7FC3CF8091F1
:1041A00009068F7E6BCF809109068F7D67CF0E94B5
:1041B0003E13809109068F7761CF80910906837F36
:1041C0005DCF80910A068C7FADCF0E943E13909107
:1041D0000906892F97FB87F9805850CF8091E60513
:1041E0008A7A91E009F490E090936F0581111AC0EA
:1041F00089E20E949C070F900F900F900F900F90F4
:10420000DF91CF911F910F91FF90EF90DF90CF90B2
:10421000BF90AF909F908F907F906F905F904F90E6
:104220000C942C0785E3E5CF80916F05811104C0C4
:1042300089E20E947107DFCF85E3FBCFC8010E94AE
:10424000D007D82E29CC212F2F70C22E107F19F025
:10425000C29490EFC922DD20C9F0CC2069F080E241
:10426000800F883010F0B1100BC08091E605C82A8D
:10427000C092E6050E942C07802F0E94B91618C034
:104280008091E505C82AC092E505F4CF802F0E94F1
:104290005C16CC2069F0C094005E083010F0B110BC
:1042A0003CC08091E605C822C092E6050E942C071A
:1042B000292D2850330B2430310510F40E94870833
:1042C000AA2009F4A7C98091E30580FDA3C9F701DD
:1042D00012828595859585950E94C11AC7010E9415
:1042E000E71A8091E3058595859585950F900F9048
:1042F0000F900F900F90DF91CF911F910F91FF9032
:10430000EF90DF90CF90BF90AF909F908F907F9075
:104310006F905F904F900C94861A8091E505C822AB
:10432000C092E505C3CF312F3F70832E107F10322E
:1043300019F0829480EF8822802FBB2041F091E019
:10434000B91631F1DD2079F1CC2041F195CFDD2096
:1043500091F09091E705892F8829C11003C00E9430
:104360005108A6CFE1E0CE12FACF981709F4A0CFFA
:104370008093E7059DCFC11006C00E942607882DB7
:104380000E94460895CFF1E0CF1609F491CFF5CF02
:10439000DD2031F021E02C1508F48ACF882DDFCF05
:1043A000C11086CFECCFCC2051F3893349F43FEFD5
:1043B00087EE93E0315080409040E1F700C000006C
:1043C000802F0E945C1674CF812F8695869583700E
:1043D00061F0813009F06CCFC8019370D11002C038
:1043E00090E080E00E945B0863CFC8019370D11019
:1043F00002C090E080E00E9471085ACFDD2009F1F0
:10440000053F99F0063FB9F0043F49F480917005EB
:104410009091710581609093710580937005802F54
:104420000E9494060E94031343CF809170059091DF
:1044300071058260F0CF8091700590917105846064
:10444000EACF053F89F0063FA9F0043F49F4809187
:104450007005909171058E7F909371058093700522
:10446000802F0E94CF05DECF80917005909171055D
:104470008D7FF2CF80917005909171058B7FECCF8D
:10448000812F837009F066C0D11012CF802F8295E2
:1044900086958770880F880F602F6F70462E512C7D
:1044A000712C612C082E04C0440C551C661C771C12
:1044B0000A94D2F740E050E0BA0104FF0FC04FE089
:1044C00050E060E070E004C0440F551F661F771F86
:1044D0008A95D2F74095509560957095812F869575
:1044E00086958370823019F1D8F40091E805109117
:1044F000E9052091EA053091EB05813069F0442906
:10450000552966297729CB01BA01602371238223BB
:1045100093230E943413CCCE402A512A622A732A54
:10452000CB01BA016429752986299729F2CF44293C
:104530005529662977290091E8051091E905209110
:10454000EA053091EB05CB01BA016027712782277C
:104550009327DFCF8695DD2011F0812F817088238E
:1045600009F4A6CE802F829586958770880F880FD4
:10457000602F6F70462E512C712C612C082E04C0B8
:10458000440C551C661C771C0A94D2F740E050E09E
:10459000BA0104FF0FC04FE050E060E070E004C0DB
:1045A000440F551F661F771F8A95D2F74095509587
:1045B00060957095812F869586958370823019F16C
:1045C000D8F400910C0610910D0620910E06309142
:1045D0000F06813069F04429552966297729CB01D6
:1045E000BA0160237123822393230E947A1A60CE3A
:1045F000402A512A622A732ACB01BA0164297529FB
:1046000086299729F2CF44295529662977290091CF
:104610000C0610910D0620910E0630910F06CB016D
:10462000BA016027712782279327DFCF1F70DD2013
:1046300029F0812F0E94C11A802F91CE802F0E94D5
:104640004608812F0E94861A33CE802FE2EFBE16D5
:1046500009F44EC0EB1578F0F0EFBF1619F121EF19
:10466000B21609F43DC0DD2009F464C0C11004CEC7
:10467000812F8F713AC033EFB31609F43EC094EF27
:10468000B912F1CFDD2009F44AC01F71812F0E94B9
:10469000C11AF8E01F9FC001112483608093E305D5
:1046A000812F23C0DD20B9F0C11002CE1F7161E05F
:1046B00070E080E090E004C0660F771F881F991FAC
:1046C0001A95D2F700910C0610910D0620910E0656
:1046D00030910F06A6CFE1E0EC1508F4E9CDE6CF66
:1046E000812F8F71DD2009F4ADCF0E94C11AE0CD7A
:1046F000812F8F71DD20C9F3A5CFDD2069F01F71F7
:1047000061E070E080E090E004C0660F771F881FD2
:10471000991F1A95D2F769CF0E94E21AC9CD81E09C
:104720000E94A91A21E02C1508F0C2CD82E00E9457
:10473000A91ABECDC11039CE812F8F7183CFE2EF80
:10474000BE16D1F1EB1500F1F0EFBF1649F121EFE4
:10475000B216D1F180917205CC2009F441C08823B2
:1047600041F08091730591E0892780937305109241
:104770007205802FD11081CD0E945C1686E0F70172
:1047800011928A95E9F794CD34EFB316C1F0B316C0
:1047900088F085EFB812DECFD1108ACD81E007C056
:1047A000DD2009F485CD8091730591E08927809300
:1047B00073057ECD81E0D826D092730579CDD110D6
:1047C00077CD1092730574CDDD2039F0809172059C
:1047D000882349F3109272056BCDCC2021F368CD6C
:1047E000882309F465CDD11063CD8091730591E0E4
:1047F000892780937305EECF85E0DE011196019045
:104800000D928A95E1F7F701228189819A81211120
:104810000C94201B0E94D007082F0C94281B0B3CE3
:10482000FCE51F0711F40C940A1B48F5033C3CE51A
:10483000130711F40C940A1B10F00C940A1B063198
:10484000ECE51E0788F40230FCE51F0708F016C9E6
:1048500001152CE5120711F40C940A1B01301C45BC
:1048600011F40C940A1B0AC906319CE5190709F4D6
:10487000DBCC023C1C4511F40C940A1BFFC8033D21
:10488000FCE51F0711F40C940A1B10F40C940A1B8E
:104890000D3D3CE5130711F40C940A1B78F4053D1B
:1048A000ECE51E0711F40C940A1B10F40C940A1B7F
:1048B0000C3D1C4511F40C940A1BE0C80E3D1C4530
:1048C00011F40C940A1BDAC81F93CF93DF938091E5
:1048D0007905807FC1F4809176058823A1F08091CD
:1048E000AB05C0917A056091740570917505409192
:1048F000770550917805D62FD723DA01A095B0958A
:1049000016E0C81304C0DF91CF911F91089590E085
:104910004115510511F0DF3F31F401968770F1CF59
:104920002A0F3B1F17C0189FF001199FF00D11248B
:10493000E558FA4F21812713F0CF20812613EDCFC0
:1049400022812111EACF238134812417350740F3D6
:10495000241B350B283C310500F7209179052F7079
:1049600020612093790526E0289FF001299FF00D12
:104970001124E058FA4F80818F708061808384E732
:1049800095E00E94E71ADF91CF911F910C942708C0
:10499000BF92CF92DF92EF92FF920F931F93CF932C
:1049A000DF93CDB7DEB761970FB6F894DEBF0FBEC9
:1049B000CDBF8C0185E0F801DE011D9601900D92BE
:1049C0008A95E1F7D8012C9111963C911197129696
:1049D000EC9012978091770590917805009709F4F3
:1049E00063C14091740550917505642F65236F3F35
:1049F00009F45AC11396CD90DC90B0907605BB2097
:104A000009F413C1C816D906C0F1F601E81BF90B69
:104A1000CF01FF24F394883C910508F0F12C80919C
:104A20007905982F907FFF2009F4C1C091117DC0B6
:104A3000FE2C531327C0421325C0E11023C08F70F2
:104A400080618093790584E795E00E94E71A809160
:104A50007905D80115968C938F2D61960FB6F89431
:104A6000DEBF0FBECDBFDF91CF911F910F91FF90A1
:104A7000EF90DF90CF90BF900895809590958C0D2A
:104A80009D1DC7CFCD2829F0822F83238F3F09F0AA
:104A900035C180E0B82FB170DB2E80FF3CC0809123
:104AA000AB0540917A0556E0841315C02D873E87EB
:104AB0008D859E850E94110C292F22952F70223002
:104AC000F0F0243018F59F70F1F0F8019581907F97
:104AD000D1F4D12C1EC090E0589FF001599FF00DE9
:104AE0001124E558FA4F6181361306C06081261300
:104AF00003C06281E6120FC001968770D5CF9F7008
:104B000011F0882331F3805E883018F3C8010E94C9
:104B1000E71AFD2CA1CFEE2009F49ECF80917905F4
:104B2000816080937905F12C97CF531313C0421302
:104B300011C0E1100FC0D80115968C93C8010E94D6
:104B4000E71A86E0F801A4E7B5E001900D928A9596
:104B5000E1F782CF2D873E878D859E850E941B0CB5
:104B6000882309F1EE20F9F080917905803270F008
:104B7000209174053091750538872F831986DB865F
:104B8000CA868C87CE0107960E94E71A86E0F80154
:104B9000A4E7B5E001900D928A95E1F70E946424A4
:104BA000FF24F39459CFC8010E94E71AF9CF91115D
:104BB0000CC084E795E00E94E71A86E0E4E7F5E0A0
:104BC000DF011D928A95E9F747CF531312C04213B4
:104BD00010C0E1100EC0F8018583C8010E94E71AD9
:104BE000E4E7F5E086E0DF011D928A95E9F7FB2C0A
:104BF00033CF2D873E878D859E850E941B0C882391
:104C000091F2EE2081F280917905803208F4BECFD6
:104C100020917405309175053A8329831B82DD82CA
:104C2000CC828E83CE010196AFCFC816D90640F054
:104C3000C81AD90AB8ECCB16D10448F0F12CBDCF74
:104C4000809590958C0D9D1D883C9105B8F7FE2CA4
:104C5000EE2009F4A8CF531316C0421314C080915C
:104C6000790580FD6ECF982F907F09F46ACFF80107
:104C70008583903F09F462CF982F907F905F8F706B
:104C8000892B85835BCF2D873E878D859E850E94EE
:104C90001B0C81117BCF8091790581608093790510
:104CA000C8010E94E71AD8CEEE2009F47CCF2D87E8
:104CB0003E878D859E850E941B0CF82E882309F463
:104CC00072CF86E0F801A4E7B5E001900D928A95D5
:104CD000E1F780917405909175050E94110C9295F1
:104CE0009F70963041F48091730591E089278093FD
:104CF0007305909372050E946424AECE81E08E25E8
:104D0000C9CE1F93CF93DF93CDB7DEB767970FB6AA
:104D1000F894DEBF0FBECDBF6D8B7E8B8F8B8E89DF
:104D20009F89892BE1F0852F84238F3F09F098C05C
:104D30005FEF4FEF14C030917305332309F44EC079
:104D4000E42FF0E036E0539FE00DF11D1124EE0F4B
:104D5000FF1FE75BFE4F40815181822B8C931A8AA3
:104D6000198A4B8B5C8B85E0FE017396DE011D96E4
:104D700001900D928A95E1F786E0FE013D96DE01F5
:104D8000179601900D928A95E1F7CE0107960E9441
:104D9000C824811112C086E0FE013796DE0111960B
:104DA00001900D928A95E1F78A859B85892B29F0E0
:104DB0008F81988589238F3FC9F516E08091AB05D7
:104DC00090917A05891320C067960FB6F894DEBFDC
:104DD0000FBECDBFDF91CF911F91089580958223A3
:104DE000BDCF96E0929FD001939FB00D1124A5589E
:104DF000BA4FFE01319601900D929A95E1F780939A
:104E00007A050E942708D9CF819FC00111248558B7
:104E10009A4F0E94C8248823B9F28091AB0590E094
:104E20000196877099278093AB05C8CF20917A05AA
:104E300030E0C9010196877099274091AB0548176A
:104E4000190679F60E943E1310927A051092AB056E
:104E500086E0E4E7F5E0DF011D928A95E9F7ADCF42
:104E600081E090E0042E01C0880F0A94EAF7A52F94
:104E7000B0E0A55ABD4F2C913D8931115CCF322F46
:104E800038235BCF8F929F92AF92BF92CF92DF92E7
:104E9000EF92FF920F931F93CF93DF9380911701AF
:104EA00090911801892B91F0809114028F5F80936B
:104EB000140281110BC00E940E1290E09093180111
:104EC00080931701892B11F40E94DE0F0BEF15E080
:104ED0007801C0E0912C37E0C32ECC0E8C2F0E94BD
:104EE000BA118C2D0E94BA118C2F0E948512D70105
:104EF0009D917D01D12C891729F0FD013197808387
:104F0000DD24D3948C2D0E948512F7019681891798
:104F100009F466C0868381E08D29982A0E94540C8A
:104F2000CF5FC730C1F60E94F7126AEF70E00E94AF
:104F3000342C882ED0911302DD2309F45DC0109229
:104F40001302E091F105F091F2057F012EE0E20EEF
:104F5000F11C40E0CBEF2AEFC22ED12C51915B3FE8
:104F600081F0652F70E0282D392F8517D8F1261B89
:104F7000370B2E313105E4F19F0121503109D90160
:104F8000CC93EE16FF0651F740931302911002C026
:104F9000411134C010921202A091F105B091F205B6
:104FA00020911302E3E1F6E041E256E090E06191E6
:104FB000E80139918E01631751F06C916B3FD1F488
:104FC0008C93BF0161507109EB01388321E0119688
:104FD0004E175F0761F7209313029093120212C0DD
:104FE00080E09ACFD601A61BB70B2A0F3B1FC1CF7B
:104FF0004D2FC7CF91E0EBCF9110CCCF9091120203
:105000009111C8CF892DDF91CF911F910F91FF9002
:10501000EF90DF90CF90BF90AF909F908F900895CA
:10502000CDB7DEB72A970FB6F894DEBF0FBECDBF5F
:1050300084B7877F84BF0FB6F894A89580916000ED
:10504000886180936000109260000FBE80E88093BA
:1050500061001092610085B7806885BF85B7806860
:1050600085BF0E9435040E9400058091E2008460A3
:105070008093E200789480916F068823A1F01091CC
:10508000E9001F709091EC00892F817090FD80E8FD
:10509000182B1092E9008091E80083FD0E945313C1
:1050A0001F701093E90082E084BD93E095BD9AEFF4
:1050B00097BD80936E000E940E1290E090931801AD
:1050C000809317010E94540C0E94630CABEFB5E073
:1050D000E3E1F6E011921D9226E0E132F207D1F70A
:1050E0008EE090E00E94B62C8093F1059093F2053B
:1050F000FC010E962BEF21938E179F07E1F70E947C
:105100006610811102C00E9446118CE090E00E945E
:105110006E2C90E0B0E0A0E08093F3059093F4054E
:10512000A093F505B093F60589EA8093800089E0A5
:105130008093810024982C983F988AB18F7C8AB9FB
:105140006E98479A8BB180638BB9769A8FE090E026
:105150000E94762C6093F7057093F8058093F9050B
:105160009093FA0567704FEF649FB0011124759515
:105170006795759567957727709389006093880088
:1051800070938B0060938A0070938D0060938C0005
:105190000E94DE0F0E946610811102C00E9446111B
:1051A00082E090E00E946E2C80932B060E945810A3
:1051B00090930A068093090683E090E00E946E2C8B
:1051C000682F70E090E080E00E94341380910B061D
:1051D000811138C080912B06816080932B060E943C
:1051E0006610811104C00E9446110E94371188E0A8
:1051F00090E00E94762C6093400670934106809365
:105200004206909343066E7F71F40E94371188E046
:1052100090E00E94762C6093400670934106809344
:105220004206909343060E949B0810924606809186
:10523000400680FF04C060E086950E94521881E01D
:1052400080930B0660910C0670910D0680910E06FE
:1052500090910F060E94901989E191E090931106B8
:1052600080931006F1EAEF2EF6E0FF2E80916F0694
:10527000853009F4AEC00E944227ECE2F6E0A3E1DB
:10528000B6E010E000E0902F8D914191481709F4AD
:105290000FC130E020E0482750E0622F6A01022E63
:1052A00002C0D594C7940A94E2F7C0FEFBC02983DC
:1052B0009A8321E030E0690102C0CC0CDD1C6A95C4
:1052C000E2F790E08C219D21892B09F420E02B83CB
:1052D0000E94F7128160782F9D838C8349815A81C7
:1052E0006B818D810E948126F801E45DF94F8081F8
:1052F000C826C08280912806909129060E94FC064B
:105300009C0190912706992319F02431310578F0FA
:1053100020912306D09024061091250600912606A0
:105320002111DDC0812F8D29802B09F0ABC10E9496
:10533000870890912A06891721F00E948708809398
:105340002A0680914606882309F490CF809145066D
:10535000E0914006E695E81BE0933C06823009F0B8
:1053600022C1F0E0E155F94FE4910E2F10E0EAEB95
:10537000CE2EEFE0DE2E80913D06882389F010923C
:105380003D060E94F712980120953095820F931FD9
:1053900090933B0680933A0610923F0610923E0689
:1053A00080913A0690913B060E94FC068017910777
:1053B00008F45CCFE0913A06F0913B060E0F1F1FF8
:1053C00010933B0600933A068AE396E0F6010995AE
:1053D0004DCF80916F06843009F441C010921206BF
:1053E00088E190E020E40FB6F894A89580936000DF
:1053F0000FBE209360001092460680914A068111EC
:1054000017C081E080934A0680914006982F9170E2
:10541000909349068E7F809340068FEF90E7E2E0FD
:1054200081509040E040E1F700C000000E94820DF2
:1054300083B7817F846083BF83B7816083BF7894A3
:10544000889583B78E7F83BF0FB6F894A895809117
:105450006000886180936000109260000FBE8091B0
:105460006E06882309F402CF0E940E1290E09093FA
:105470001801809317010E94540C0E94630CE3E111
:10548000F6E0119226E0E132F207D9F70E944227B6
:10549000E3E1F6E081918111DFC046E0E132F407FB
:1054A000C9F7E4CE2F5F3F4F2630310509F0F5CE26
:1054B0000F5F1F4F0E30110509F0E5CE8FEF8E8381
:1054C0008F8318860E94F7128160782F9A878987C8
:1054D0004E815F8168858A850E9481260BCF9F3F20
:1054E00019F09F5F90932706121624F40E9470060D
:1054F000809323068091230687FF05C00E947006D3
:105500008195809323061D1424F40E9470068093D5
:1055100024068091240687FF05C00E9470068195AD
:1055200080932406309123063323A1F02091240692
:10553000222381F045EB3403C0011124992359F152
:105540009093230645EB240390011124332339F172
:1055500030932406111624F40E944E0680932506EB
:105560008091250687FF05C00E944E068195809395
:105570002506101624F40E944E068093260680917C
:10558000260687FF05C00E944E0681958093260659
:105590000E940313CCCE81E080932306D3CF81E019
:1055A00080932406D7CF863059F4F0E0E455F94FC4
:1055B000E4910E2F10E07EECC72E7FE0D72EDBCEDD
:1055C000893061F4E695F0E0E755F94FE4910E2F4C
:1055D00010E064E3C62E6EE0D62ECDCE8F3061F49F
:1055E000E695F0E0EA55F94FE4910E2F10E05EE504
:1055F000C52E5EE0D52EBFCE853159F4F0E0ED55D5
:10560000F94FE4910E2F10E04CECC42E4EE0D42E56
:10561000B2CE08EE13E09AE1C92E9FE0D92E883170
:1056200009F4A9CE833241F4F701059114913FE5C5
:10563000C32E3FE0D32E9FCE04EF11E02BEFC22EFE
:105640002DE0D22E843209F496CE00ED17E08BECDB
:10565000C82E85E0D82E8FCE80E189BD82E189BD3C
:1056600009B400FEFDCF8091D8008F7D8093D800D3
:105670008091E00082608093E0008091E00081FDF5
:10568000FCCFF4CD9F3F09F02CCF3DCF1F921FB62A
:105690001F9211248F939F93AF93BF938091120613
:1056A000811113C08091EC059091ED05A091EE055C
:1056B000B091EF054196A11DB11D8093EC0590932B
:1056C000ED05A093EE05B093EF05BF91AF919F91CB
:1056D0008F911F901FBE1F9018951092B9008CE0FB
:1056E0008093B8000895EF92FF920F931F93CF938A
:1056F000DF93182FEB011092BC0084EA8093BC006A
:105700000E94F7127C018091BC0087FF27C0809126
:10571000B900887F883029F08091B900887F803176
:10572000D9F51093BB0084E88093BC000E94F71267
:105730008C018091BC0087FF24C02091B900287F94
:1057400090E080E02831B1F081E090E0203411F465
:1057500090E080E09195819591090CC0CF3FDC07E6
:1057600091F20E94F7128E199F098C179D0758F22B
:105770008EEF9FEFDF91CF911F910F91FF90EF90F0
:105780000895CF3FDC07A9F20E94F712801B910B0E
:105790008C179D0770F2ECCF8FEF9FEFEBCF0F933D
:1057A0001F93CF93DF93EB018093BB0084E880933A
:1057B000BC000E94F7128C018091BC0087FF11C0D1
:1057C0002091B900287F81E090E0283211F490E028
:1057D00080E0919581959109DF91CF911F910F9173
:1057E0000895CF3FDC0741F30E94F712801B910B15
:1057F0008C179D0708F38EEF9FEFEECF0F931F934B
:10580000CF93DF93EC0184E88093BC000E94F712F1
:105810008C018091BC0087FF08C08091BB0090E0A4
:10582000DF91CF911F910F910895CF3FDC0789F34E
:105830000E94F712801B910B8C179D0750F38EEF7F
:105840009FEFEECF84E98093BC00089587FB082E7C
:10585000062687FD819567FD61950E94622C0EF4F6
:10586000919507FC81950895AA1BBB1B51E107C0C8
:10587000AA1FBB1FA617B70710F0A61BB70B881FE0
:10588000991F5A95A9F780959095BC01CD0108956F
:1058900097FB072E16F4009407D077FD09D00E94DD
:1058A000342C07FC05D03EF4909581959F4F0895C8
:1058B000709561957F4F0895EE0FFF1F0590F4914D
:1058C000E02D0994991B79E004C0991F961708F000
:1058D000961B881F7A95C9F780950895F999FECF90
:1058E00092BD81BDF89A992780B50895A6E1B0E0F0
:1058F00044E050E00C94A82CA8E1B0E042E050E075
:105900000C94A82C262FF999FECF92BD81BDF89A50
:10591000019700B4021639F01FBA20BD0FB6F894F3
:10592000FA9AF99A0FBE08950396272F0E94832CA6
:105930000E94822C252F0E94832C242F0C94832CD0
:105940000196272F0E94832C0C94822CDC01CB0122
:10595000FC01F999FECF06C0F2BDE1BDF89A31967F
:1059600000B40D9241505040B8F708950F931F9323
:10597000CF93DF938230910510F482E090E0E091C4
:105980007B06F0917C0630E020E0B0E0A0E03097AC
:1059900099F42115310509F447C0281B390B24302F
:1059A0003105C0F58A819B816115710571F1FB019B
:1059B00093838283FE0111C0408151810281138152
:1059C00048175907F8F04817590799F4109761F0EC
:1059D00012960C93129713961C933296CF01DF9177
:1059E000CF911F910F91089500937B0610937C0631
:1059F000F4CF2115310519F04217530718F49A0115
:105A0000BD01EF01DF01F801C2CF90937C068093C6
:105A10007B06D0CFFE01E20FF31F819391932250BA
:105A2000310939832883DACF2091790630917A06BB
:105A3000232B41F4209102013091030130937A0627
:105A40002093790620910001309101012115310543
:105A500041F42DB73EB74091040150910501241B3C
:105A6000350B4091790650917A064217530708F09A
:105A7000B5CF241B350B2817390708F4AFCFBC016D
:105A80006E5F7F4F2617370708F4A8CF640F751F86
:105A900070937A0660937906FA01819391939ECF71
:105AA000CF93DF930097E9F0FC01329713821282C3
:105AB000C0917B06D0917C06DE0130E020E020978B
:105AC000A1F420813181820F931F209179063091BA
:105AD0007A062817390709F067C0F0937A06E09331
