:100000000C940C040C9453040C9453040C9453045B
:100010000C9453040C9453040C9453040C94530404
:100020000C9453040C9453040C941E2A0C94F02A40
:100030000C94371F0C9453040C9453040C945304E5
:100040000C9453040C9453040C9453040C945304D4
:100050000C9453040C949F1F0C9453040C9453045D
:100060000C9453040C9453040C9453040C945304B4
:100070000C9453040C9453040C9453040C945304A4
:100080000C9453040C9453040C9453040C94530494
:100090000C9453040C9453040C9453040C94530484
:1000A0000C9453040C9453040C945304090F0C0F38
:1000B000140F190F1E0F230F280F2D0F320F370F9C
:1000C0003C0F410F430F460F490F4C0F4F0F520F7C
:1000D000540F590FCE14CE14001500154D156D1583
:1000E000CD16CD16AF154C165D165D16BD16CD1688
:1000F000CD16C6164F174F1761176117581761179E
:10010000611761174F174F175D17611761175D175B
:10011000712467247F24D824DF24DF24D824DF241B
:10012000DF24A024DF24AA24B424DF24DF24DF2456
:10013000DF24D824DF24DF24D824DF248D24DF2407
:10014000DF24C424C424C424C424C424C424C42454
:10015000C424C424DA24DF2471246424DF24DF24AB
:10016000DF24DF24DF24DF24DF24DF24DF24DF2477
:10017000DA24DF24DF24D824DF24C224C224C224CA
:10018000C224C224C224C224C224C224DA245D2B85
:10019000842B762C842B762CD02BF32B762C492C8D
:1001A000582C35001E001F00200021002200115095
:1001B00029001250230024002500260027003100CA
:1001C0002B0014001A000800150017002F004C0027
:1001D00030001C0018000C00120013002D002A0033
:1001E00004001600070009000A002602AE002702DC
:1001F0000B000D000E000F0033003400E1001D4421
:100200001B000600190005002E02A800670011005F
:100210001000360037003843E500E0000F55075561
:10022000E200E000E1000251E30003512C0028004D
:100230005000510052004F00010001000100010078
:100240000100010000530100025301000100010000
:100250000100010001000100010001000100010096
:100260000100010001000100010001000100010086
:100270000100010001000100010001000100010076
:100280000100010001000100010001000100010066
:100290000100010001000100010001000100010056
:1002A0000100010001000100010001000100010046
:1002B0000100010001000100E30001000100E00075
:1002C0000100010001000100010001000100000027
:1002D000000000000000000000000000010001001C
:1002E00000005300540055005600000001001E029B
:1002F0001F022F02300231020000010000005200F4
:100300005F00600061005700000001002002210230
:1003100026022702670000000000000051005C0078
:100320005D005E00850035000100220223022F00DF
:1003300030003502000000000000240259005A007D
:100340005B006700010001000100010001000100E5
:100350000100010001000100010062006200630071
:100360005800000000000000000000000000000035
:10037000000000000000000000000000000000007D
:100380000000010000000000F000F400F500000093
:100390000000000000004A0052004D000000000074
:1003A00001000000F200F100F30000000000000076
:1003B00000000000500051004F000000000001004C
:1003C000000000000000000000000000000000002D
:1003D000000000000000000000000000010001001B
:1003E0000100010001000100010001000100010005
:1003F00000000000000000000000000000000000FD
:10040000000000000000005C0100145C3A003B00AA
:100410003C003D003E00700001000000E3000000D1
:10042000000000000000010000003F00400041000B
:1004300042004300710001000000AC00AE00AB00C0
:100440000000000000000000440045006800690052
:100450006A00720001000000AA00A800A9000000C4
:100460000000000000006B006C006D006E006F006B
:100470007300010001000100010001000100010002
:100480000100010001000000000000000000000069
:1004900000047F3F1F643214643214783C1E1E1423
:1004A0000A052223252628292A2C2D2F30323335E0
:1004B00036383A3B3D3E4042434547494A4C4E5010
:1004C00051535557595A5C5E6062646668696B6D3A
:1004D0006F71737577797B7D7F81838587898A8C3E
:1004E0008E90929496989A9C9E9FA1A3A5A7A8AA45
:1004F000ACAEAFB1B3B4B6B8B9BBBCBEBFC1C2C37A
:10050000C5C6C7C9CACBCCCDCED0D1D2D2D3D4D513
:10051000D6D7D7D8D9D9DADADBDBDBDCDCDCDCDC3C
:10052000DDDDDDDDDCDCDCDCDCDBDBDBDADAD9D914
:10053000D8D7D7D6D5D4D3D2D2D1D0CECDCCCBCAA2
:10054000C9C7C6C5C3C2C1BFBEBCBBB9B8B6B4B3C8
:10055000B1AFAEACAAA8A7A5A3A19F9E9C9A98965E
:100560009492908E8C8A89878583817F7D7B797731
:100570007573716F6D6B6968666462605E5C5A5911
:1005800057555351504E4C4A4947454342403E3DD2
:100590003B3A3836353332302F2D2C2A2928262560
:1005A0002322FFAA7F554000010101010101010141
:1005B0000102020202020202020203030303030316
:1005C00003030404040404040405050505050606E4
:1005D00006060607070707070808080809090909A2
:1005E0000A0A0A0B0B0B0C0C0C0D0D0D0E0E0E0F48
:1005F0000F0F1010111111121213131414151516D8
:10060000161717181819191A1A1B1B1C1D1D1E1E48
:100610001F20202122222324242526262728292999
:100620002A2B2C2D2D2E2F303132323334353637C4
:1006300038393A3B3C3D3E3F4041424344454647C2
:1006400048494A4C4D4E4F50515354555658595A9B
:100650005B5D5E5F616264656668696B6C6D6F703F
:1006600072737577787A7B7D7E8082838587888AAE
:100670008C8E8F91939596989A9C9EA0A2A3A5A7E5
:10068000A9ABADAFB1B3B5B7BABCBEC0C2C4C6C9E1
:10069000CBCDCFD1D4D6D8DBDDDFE2E4E7E9EBEE9A
:1006A000F0F3F5F8FAFDFF0403300000000A0358E8
:1006B0000044003700350000000C03780069007525
:1006C000006400690000000403090409023B000201
:1006D0000100A0FA09040000010301010009211131
:1006E0000100012240000705810308000A090401F6
:1006F00000010300000009211101000122C00007D0
:1007000005820320000A1201100100000008CDCD6F
:10071000757501000102030105010902A1018502AD
:100720000901A100050919012905150025019505F3
:1007300075018102950175038101050109300931B7
:100740001581257F95027508810609381581257F59
:10075000950175088106050C0A38021581257F95DB
:100760000175088106C0C005010980A10185031A31
:1007700081002A830016010026030095017510816F
:1007800000C0050C0901A10185041A01002A9C0280
:10079000160100269C02950175108100C005010913
:1007A00006A1018505050719E029E7150025019532
:1007B00008750181020507190029EF15002501952B
:1007C000F07501810205081901290595057501914A
:1007D00002950175039101C005010906A1010507F4
:1007E00019E029E715002501950875018102950199
:1007F000750881010507190029FF150026FF0095DE
:1008000006750881000508190129059505750191EE
:1008100002950175039101C011241FBECFEFDAE0EC
:10082000DEBFCDBF04B603FE27C080919502909134
:100830009602A0919702B09198028730904BA74002
:10084000B04BD1F41092950210929602109297023A
:100850001092980214BE84B7877F84BF0FB6F894B5
:10086000A89580916000886180936000109260007C
:100870000FBEE0E0F8E3099511E0A0E0B1E0E2E9A5
:10088000FAE502C005900D92A636B107D9F722E02D
:10089000A6E6B1E001C01D92A539B207E1F70E94BA
:1008A00045270C94472D0C9400000C94F2070C94EF
:1008B0007B040C94BF042A9A0895229A0C945B043A
:1008C0008F9A0895879A0C9460048C980895849A5E
:1008D0000C9465048D9A0895859A0C946A040E947C
:1008E0005D040E9462040E9467040E946C040C94E0
:1008F000F10781E0089581E008951F93CF93DF937E
:1009000000D000D01F92CDB7DEB749835A83209123
:10091000A00189819A81211112C0662349F00E94A9
:10092000741C182F682F89819A810E94191C03C09A
:100930000E94481C182F69817A81812F04C00E946F
:10094000741C69817A810F900F900F900F900F9017
:10095000DF91CF911F910C944B05FC014081518197
:100960006281738184810C947D040E94A41D811195
:1009700002C00E944E1E0C946F040C9455040895FE
:1009800081E008950C94C004CF93C82F0E945904AD
:100990008C2F0E94C204CF91089508950E943F17A2
:1009A0000E94CD042FEF84E39CE0215080409040D2
:1009B000E1F700C000000C94C51F0F931F93CF9365
:1009C000DF93EC010E94AD048C01BE010E9457042C
:1009D000882309F456C0BE01C8010E94051088236F
:1009E00009F44FC0BE01C8010E944610882309F4D3
:1009F00048C0BE01C8010E94F20E882309F441C01C
:100A00008A81882371F001158CE5180739F00E3DB5
:100A10008CE5180731F40E944E1E33C00E94CE04AC
:100A200030C006311C4531F50E94F41C282F8A8104
:100A30004091100150911101882379F02A7A91E0B8
:100A400009F490E090936601911102C069E201C03F
:100A500065E3CA010E94BA1E0AC080916601811135
:100A600002C069E201C065E3CA010E94C51E0E947E
:100A7000401D07C0CE01DF91CF911F910F910C94C3
:100A8000790480E0DF91CF911F910F91089580E06C
:100A900090E0089508959FE0799FF00111249BE470
:100AA000899FE00DF11D1124E60FF11DEE0FFF1FD0
:100AB000EE55FE4F859194910895880F991FFC0182
:100AC000E057FB4F859194910895CF93DF930E9457
:100AD0004B050E941A07EC01811520E59207F0F5FD
:100AE000811530E4930708F024C1883E910500F594
:100AF000803E910508F09AC1883A910570F4853AD4
:100B0000910508F09FC08130910509F48FC108F468
:100B100040C1049708F08AC13CC18F3B910508F49D
:100B20009CC0803C910508F434C1805C9109F4C0FC
:100B3000811540E2940758F4C11581E0D80708F008
:100B400075C1C03FD10508F424C1D0656FC18115BE
:100B500020E3920708F0E4C09F70DEC0811535E500
:100B6000930708F044C0811544E5940708F0F8C0E5
:100B7000C11582E5D80708F5C11521E5D20708F0AF
:100B8000DBC08C2F837021E030E002C0220F331FC6
:100B90008A95E2F73C68CE0174E0969587957A9540
:100BA000E1F78370382BCF70C695C69580E2C89F59
:100BB000E0011124C22BD32B39C12C2F2695269569
:100BC000CE0183709927C115D34508F0BAC040E221
:100BD000249F90011124C1E0D0E002C0CC0FDD1FA2
:100BE0008A95E2F72C2B3D2BE901DC681FC18115AA
:100BF00049E59407A0F4C11588E5D80708F0B5C009
:100C0000C11526E5D20708F0C4C08C2F0E94AE079C
:100C10008F71C82FD0E0DC2FCC27D06207C181159F
:100C20003AE5930708F4A6C090568115904208F063
:100C3000B0C08D2F8F710E94AE07DD27D0628F71FB
:100C4000D82BF4C0853A910509F4A6C0863A9105DF
:100C500009F0A5C0C2E8D0E4E9C0883A910509F4DA
:100C6000A1C0893A910509F4A0C08A3A910509F416
:100C70009FC08B3A910509F49EC08C3A910509F406
:100C80009DC08B3B910509F49CC08C3B910509F4F8
:100C90009BC08D3A910509F49AC0803B910509F4F7
:100CA00099C08E3A910509F498C08F3A910509F4DC
:100CB00097C0813B910509F496C0823B910509F4E8
:100CC00095C0833B910509F494C0843B910509F4D8
:100CD00093C0853B910509F492C0863B910509F4C8
:100CE00091C0873B910509F490C0883B910509F4B8
:100CF0008FC0893B910509F48EC08D3B910509F4A5
:100D00008DC08E3B910509F48CC08A3B910509F496
:100D10008BC0C0E0D4E48AC00E945D05EC0186C0AF
:100D20009927D3FF03C0EC01D86C80C0EC01D06CD4
:100D30007DC0DF70D06A7AC0DC2FCC27C16FD06A4B
:100D400075C040E2249F90011124C1E0D0E002C0B0
:100D5000CC0FDD1F8A95E2F7C22BD32BDA6866C071
:100D6000D82FCC27C46FD06A61C0DC2FCC27C06FCE
:100D7000D06A5CC08F700E94AE0794E0D695C7958C
:100D80009A95E1F7CF70D0E0DC2FCC27D069C82B43
:100D90004DC0C0E0D0E04AC0C1E8D0E447C0C3E8DD
:100DA000D0E444C0C2EED4E441C0C9EED4E43EC0B5
:100DB000CAEED4E43BC0C5EBD4E438C0C6EBD4E4FF
:100DC00035C0C3EBD4E432C0C4EBD4E42FC0C7EBCE
:100DD000D4E42CC0CCECD4E429C0CDECD4E426C0BF
:100DE000C3E8D5E423C0CAE8D5E420C0C2E9D5E40D
:100DF0001DC0C4E9D5E41AC0C1E2D6E417C0C3E2FD
:100E0000D6E414C0C4E2D6E411C0C5E2D6E40EC0F4
:100E1000C6E2D6E40BC0C7E2D6E408C0CFE6D4E40D
:100E200005C0C0E7D4E402C0CAE2D6E4CE01DF9137
:100E3000CF9108958238910569F1B0F4813391051D
:100E400009F46DC048F48932910509F463C08A320F
:100E5000910509F469C008958533910509F455C0D9
:100E600089339105B9F00895833E910569F138F40D
:100E7000803E9105B1F0823E910509F10895863ECC
:100E80009105A9F1873E9105B9F1843E910509F0DC
:100E900064C023C02091860220FD4FC021FD4DC0BB
:100EA00008958091860280FD44C08091870280FF72
:100EB00044C08091860284FD42C083EE4DC0809183
:100EC000860282FF38C0F5CF8091860282FD33C052
:100ED0008091870280FD31C0ECCF8091870281FF35
:100EE00032C08091860284FD2AC087EE35C0809191
:100EF000860283FF26C0F5CF8091860283FD21C044
:100F00008091870281FD1FC0ECCF8091860285FD14
:100F10001CC01DC08091860285FD19C016C080913D
:100F2000860286FD16C017C08091860286FD13C01A
:100F300010C089E311C082EE0FC080EE0DC080E0CA
:100F40000BC086EE09C084EE07C089E205C085E3C8
:100F500003C08AE201C081E390E008959091860287
:100F600092FF0DC0282F2871283019F4877F8460E4
:100F700006C0282F2471243011F48B7F886093FFE2
:100F80000DC0282F2871283119F4877E846106C08E
:100F9000282F2471243111F48B7E886120918702DF
:100FA00020FF0DC0382F3871383019F4877F8160E9
:100FB00006C0382F3171313011F48E7F886021FFE7
:100FC0000DC0282F2871283119F4877E816106C051
:100FD000282F2171213111F48E7E886194FD877E46
:100FE000089508950895E82FF0E0EE0FFF1FE959E6
:100FF000FE4F8081918108950895A2E3B1E041E020
:1010000050E025E02A0F8D91E82FE295EF70F0E097
:1010100031A18F70BA0102C0660F771F8A95E2F77F
:10102000CB01962F9095932391A392A1892B82A314
:101030002A13E9CFA3E2B1E041E050E02FE02A0F0C
:101040008D91E82FE295EF70F0E031A18F70BA0139
:1010500002C0660F771F8A95E2F7CB01962F909515
:10106000932391A392A1892B82A32A13E9CFE1E7CD
:10107000F1E0A7E6B1E0119211921D921D9271E08C
:10108000EB37F707C1F785E00E94DF080C94B50441
:101090005F926F927F928F929F92AF92BF92CF9208
:1010A000DF92EF92FF920F931F93CF93DF9302E3B0
:1010B00011E0A1E7B1E0612CEE24E394F12C5D0195
:1010C0008D909C90119711961C921E92E801899127
:1010D0008E01E82FE295EF70F0E091A18F70A701EB
:1010E00001C0440F8A95EAF7892F842B81A382A13E
:1010F000542E5094852182A3D0EADA95F1F783E249
:10110000C82E81E0D82E80E090E0E60179906E0153
:10111000272D22952F7030E0E90168A12D913C9197
:10112000119770E0D72DDF7002C075956795DA953D
:10113000E2F760FD08C0B701082E02C0660F771FF6
:101140000A94E2F702C060E070E0262B372B11967C
:101150003C932E9301968F309105B9F681A1D52D40
:10116000D823D1A382A1482B42A3129681E0F50196
:10117000208131818216930609F480E0682AF1E02B
:10118000AB37BF0709F09BCF262D45E067E671E03E
:1011900081E791E00E94E0080E94BD04862DDF9166
:1011A000CF911F910F91FF90EF90DF90CF90BF9064
:1011B000AF909F908F907F906F905F90089508956B
:1011C000FF920F931F93CF93DF93F82E092F162FC3
:1011D000D72FC42F222349F081E080937D010E9404
:1011E000691F90937C0180937B0180917D0188230E
:1011F000D9F080917B0190917C010E94751F069728
:1012000098F0EF2DF02FA12FBD2F80E090E04C2F14
:1012100050E08417950734F4219131912D933D933B
:101220000196F7CF10927D01DF91CF911F910F9121
:10123000FF900895AF92BF92CF92DF92FF920F93EB
:101240001F93CF93DF93D62E372FE82FF0E0711145
:1012500006C0E955FA4F6491762F862F75C0C72FC7
:10126000D0E0E955FA4F2491F22E022F10E046E02B
:10127000649FC0011124EFEFF0E0BF010E94B82C81
:10128000AB016BEA6403C001659F900D11248D0DC5
:10129000911D8D0D911D982F990F890FDF01AC1BAA
:1012A000BD0B0A9FB0010B9F700D1A9F700D11248A
:1012B000972F839FD0011124AB2FBB276F01CA1A30
:1012C000DB0A0C9DD0010D9DB00D1C9DB00D1124AD
:1012D0005F01A81AB108AC9E6001AD9ED00CBC9E07
:1012E000D00C1124CD2DDD27EC1BFD0B0E9FE00152
:1012F0000F9FD00D1E9FD00D1124ED2F42305105B0
:1013000091F04CF441155105E1F041305105B9F42B
:10131000E22F2B2F16C04430510569F044F04630BF
:10132000510579F00CC0E22F272F9D2F0AC0272FDF
:101330009F2DEB2F06C0E72F922F2D2F02C0E72FF6
:101340009B2F6E2F722F892FDF91CF911F910F91BD
:10135000FF90DF90CF90BF90AF9008950895CF9306
:10136000DF93762FE901682F842F0E941A09798371
:1013700068838A83DF91CF91089580916902282F35
:10138000269530E02115310519F48170826005C081
:101390002532310524F081708864809369020895B4
:1013A00088E090E00C94072DCF93DF9300D000D01D
:1013B000CDB7DEB7AB01BC0149835A836B837C8315
:1013C0000E94BD0949815A816B817C8188E090E04F
:1013D0000F900F900F900F90DF91CF910C94252DCF
:1013E000E9E6F2E083E0808311828FEF82838383DA
:1013F000148260817181828193810C94D4098091DF
:10140000690280FF02C08695089580E0089580916A
:101410006D02833018F48F5F80936D0260916902D2
:1014200070916A0280916B0290916C020C94D409C5
:1014300080916D02882319F0815080936D02609134
:10144000690270916A0280916B0290916C020C9417
:10145000D4096091040170E08091690280FF0AC0A4
:101460008091820123E0829FC001112482599D4F07
:101470000C94950F8091810190910301891780F759
:10148000E82FF0E09F01220F331FE20FF31FE25914
:10149000FD4F1182108212828F5FF0CF909169020E
:1014A00090FF16C09091810120910301921770F472
:1014B000E92FF0E0DF01AA0FBB1FEA0FFB1FE25983
:1014C000FD4F8183608342839F5FF0CF0C94290A94
:1014D0000895CF93DF9300D01F92CDB7DEB79091E0
:1014E000690290FF0AC09E012F5F3F4F0E94AF0923
:1014F0004B8169818A810E944E0A0F900F900F9054
:10150000DF91CF910895CF93DF93EC01EC81F0E070
:10151000EE55FB4F4491E9E6F2E0628181810E9441
:10152000690A8C818F5F8C83DF91CF910895CF936F
:10153000DF93EC01E9E6F2E0438162818C810E9455
:10154000690A8C818F5F8C83DF91CF9108950F930F
:101550001F93CF93DF9300D01F92CDB7DEB78C01DE
:1015600080917E0181110AC09E012F5F3F4F4FEF96
:101570006FEF0E94AF098A8180937E01F801848118
:10158000813051F028F0823061F440917E010AC030
:1015900080917E0140E007C060917E0140E080E0E4
:1015A00003C040E080E060E00E944E0AF801248120
:1015B00030E0C901019663E070E00E94CC2C848386
:1015C0000F900F900F90DF91CF911F910F91089581
:1015D000AF92BF92CF92DF92EF92FF920F931F9341
:1015E000CF93DF9300D01F92CDB7DEB7182FF62E22
:1015F000042FE22E9091690290FF6EC0E92FE695CC
:10160000AE2FB0E0A95CBE4F8C9180938A019E7F83
:10161000923061F49E012F5F3F4F812F0E94AF09EE
:101620004B8169818A810E944E0A44C0823019F43C
:1016300000916C023FC0863019F410916A023AC0E2
:101640008930D9F38931B1F5E9518E2F8170D82EC7
:10165000E695F0E0EE55FA4FA590B490C12CBB246E
:1016600060910201C61620F5EC2DF0E0EA9DC00164
:10167000EB9D900DFA9D900D112470E00E94B82C06
:10168000812FD11002C0860F01C0861B909181016D
:10169000E90FF11D9F01220F331FE20FF31F9F017E
:1016A00022593D4F402F6F2D0E94AF09C394D8CFD0
:1016B0000E94290A10936A02F0926B0200936C0256
:1016C000EE2051F06091690270916A0280916B0284
:1016D00090916C020E94D4090F900F900F90DF91AF
:1016E000CF911F910F91FF90EF90DF90CF90BF901F
:1016F000AF900895E9E6F2E09181282F438162815D
:101700008CE0890F0C94E80A81E00C947A0BE9E6EE
:10171000F2E09181282F4381628184EF890F0C943C
:10172000E80A81E00C94870BE9E6F2E0628129E1A6
:10173000620F08F46FEF282F438181810C94E80A2F
:1017400081E00C94940BE9E6F2E0628129E1621BEE
:1017500008F460E0282F438181810C94E80A81E03D
:101760000C94A30BE9E6F2E043812CE0420F08F46D
:101770004FEF282F628181810C94E80A81E00C945C
:10178000B20BE9E6F2E043812CE0421B08F440E0B2
:10179000282F628181810C94E80A81E00C94C10BAE
:1017A00020E00C94E80AFF920F931F93CF93DF93EE
:1017B000EC01F12C0FEF10E060910201F616E8F455
:1017C0002091810130E02F0D311DC901880F991F33
:1017D000280F391F22593D4F70E0C8010E94CC2CC0
:1017E000962F8C8140916C0260916B02F99E800D66
:1017F00011240E94AF09F394DFCF0E94290A9A8135
:101800008C8190FF02C08F5F01C081508C83DF917B
:10181000CF911F910F91FF900895AF92BF92CF92F9
:10182000DF92EF92FF920F931F93CF93DF93FC0110
:10183000828180FF02C00FEF01C001E010E046E0AE
:10184000A42E80910201181708F043C0C12ED12C9C
:1018500080918101E601C80FD11DCE01880F991F2B
:10186000C80FD91FC259DD4F198218821A8234E07D
:10187000E32EF12CB12C809180018B0D87302CF060
:101880006A2D0E94AA2C892F05C087FF03C0909162
:101890000201890F082E000C990BC816D90691F485
:1018A00080916C028E9DA0018F9D500D1124559545
:1018B0004795559547959E0160916B0280916A020C
:1018C0000E94AF09B00EF1E0EF1AF108A1F61F5F18
:1018D000B8CF0E94290A80918001013031F4811132
:1018E00002C080910201815007C090E00196609192
:1018F000020170E00E94CC2C80938001DF91CF9197
:101900001F910F91FF90EF90DF90CF90BF90AF901D
:101910000895CF938091810190910301891770F40C
:10192000E82FF0E09F01220F331FE20FF31FE2596F
:10193000FD4F1182108212828F5FF0CFC0E0609164
:101940000201C617B8F5EC2FF0E070E0CF010E945D
:10195000CC2C40918101480F80917F01082E000C12
:10196000990B50E0E817F907C4F020910101022E0D
:10197000000C330B2E173F0784F09A01220F331F00
:10198000240F351F22593D4F40916C0260916B022C
:1019900080916A020E94AF090BC0FA01EE0FFF1F8F
:1019A0004E0F5F1FFA01E259FD4F11821082128221
:1019B000CF5FC5CF0E94290A2091000180917F014D
:1019C000820F80937F0190910101920F909301010A
:1019D00019165CF4082E000C990B4091020150E09E
:1019E00041505109841795071CF02195209300015F
:1019F000CF9108950F931F93CF93DF938C01FC0138
:101A00008481958101968170992795838483C0E0B4
:101A1000D5E580910201C817F8F42091810130E0EA
:101A20002C0F311DC901880F991F280F391F22590A
:101A30003D4F4C2F4695F80184819581840F911D6F
:101A4000817040916C0260916B028D9F802D1124FA
:101A50000E94AF09CF5FDDCFDF91CF911F910F9132
:101A60000C94290A0F931F93CF93DF93EC0100E0AE
:101A700010E080910201282F30E00217130724F5AF
:101A8000909181019801290F311DA901440F551F23
:101A9000240F351F22593D4F869590E04C81081741
:101AA00019071CF4442331F002C0411103C04091D6
:101AB0006C0201C040E060916B0280916A020E945A
:101AC000AF090F5F1F4FD5CF0E94290A2C8130E04C
:101AD0002F5F3F4F217033272C83DF91CF911F91D0
:101AE0000F910895E9E6F2E080818E7F8083608126
:101AF0007181828193810E94D40910928B012FEF12
:101B000080E792E0215080409040E1F700C0000063
:101B10000C94290A60916902669570E04BE050E0F0
:101B200085E091E00E94F22C892B19F481E08093EA
:101B30008B010E94691F9093840180938301089513
:101B40009091690290FF35C09170811102C092603E
:101B500006C0853210F0986402C0880F982B9093CD
:101B60006902662351F06091690270916A02809166
:101B70006B0290916C020E94D40960916902669593
:101B800070E04BE050E085E091E00E94F22C892B60
:101B900019F010928B0102C00E948A0D81E080939F
:101BA000860140916C0260916B0280916A020C94F4
:101BB000D00B0895682F90916902969581E0890F66
:101BC000853208F081E00C94A00D81E00C94DA0DD0
:101BD000682F9091690296958FEF890F09F484E23E
:101BE0000C94A00D81E00C94E80D61E00C94A00D24
:101BF000E9E6F2E080818160808386950C94F50DA2
:101C00008091690280FD0C94720D0C94F80D60E0D7
:101C10000C94A00D8091890181112EC00E94A41DF9
:101C2000811104C00E944E1E0E94F0090E94D0093A
:101C30006093690270936A0280936B0290936C02C6
:101C40006E7F61F40E94F0090E94D00960936902DE
:101C500070936A0280936B0290936C020E94BD099C
:101C600010928B018091690280FF03C086950E94CB
:101C7000070E81E08093890108950F931F93CF93FE
:101C8000DF9380918B01882309F48CC080918A01B5
:101C9000E0916902E695E81BE0938501823049F402
:101CA000F0E0E256FB4FE491CE2FD0E003E81AE0DB
:101CB00049C0863049F4F0E0E556FB4FE491CE2F61
:101CC000D0E007E91AE03EC0893051F4E695F0E033
:101CD000E856FB4FE491CE2FD0E003ED1BE032C07D
:101CE0008F3051F4E695F0E0EB56FB4FE491CE2FA8
:101CF000D0E00DE01CE026C0853149F4F0E0EE565E
:101D0000FB4FE491CE2FD0E009E81CE01BC08831E6
:101D100081F0833239F4E0E9F4E0C591D49107EA27
:101D20001AE010C0843251F4C4EFD1E002E31DE0A8
:101D300009C0C8EED3E00AEF1CE004C0C0EDD7E054
:101D40000EEA19E080918601882389F010928601BD
:101D50000E94691F9E0120953095820F931F9093DA
:101D600084018093830110928801109287018091F1
:101D70008301909184010E94751F8C179D0790F03C
:101D8000E0918301F0918401CE0FDF1FD093840195
:101D9000C093830183E891E0F801DF91CF911F9117
:101DA0000F910994DF91CF911F910F91089588238E
:101DB00011F0FA0101C0FB010994CF93DF93C82F02
:101DC000D62F0E94FF098C1740F00E94FF098D1743
:101DD00020F4DF91CF910C94E50D8C2FDF91CF9102
:101DE0000C94F50D0F931F93CF93FB01C281CC236D
:101DF00009F463C08C010E94F41C8272F801E25C59
:101E0000FC45E431F10508F059C0EA5AFF4F0C9443
:101E1000E02C0E94000E06C042EF5DE065EE7DE022
:101E20000E94D70EC0E04AC045EE5DE062EF7DE063
:101E3000F7CF41E95BE064E87BE0F2CF44E85BE0A8
:101E400061E97BE0EDCF4FEA5BE060EA7BE0E8CF61
:101E500040EA5BE06FEA7BE0E3CF4DEC5BE06EEBEA
:101E60007BE0DECF4EEB5BE06DEC7BE0D9CF48E171
:101E70005AE067E07AE0D4CF47E05AE068E17AE0E0
:101E8000CFCF81E017C065E082E010C068E086E057
:101E90000DC06EE089E00AC064E18FE007C067E131
:101EA00085E104C088E106C062E289E10E94DD0E9E
:101EB000B9CF83E20E94F50DB5CFC1E08C2FCF9151
:101EC0001F910F91089521B3342F3095232331B3FF
:101ED000432B3FB7F894FC01680F791FE617F7070B
:101EE00089F0819198E041BB000000C087FF21BBD1
:101EF000880F000000C000C000C021BB00C09A9540
:101F000091F7ECCF3FBF089520B3242B20BB9B015A
:101F1000220F331F620F731F0E94630F87EC90E044
:101F20000197F1F700C00000089540E40C94840F7D
:101F30000F931F93CF93DF93C62FD42F022FFC0153
:101F400082818823C9F060938E010E94691F90935B
:101F50008D0180938C0180E28C0F883008F050C096
:101F6000C77081E001C0880FCA95EAF7DF91CF9171
:101F70001F910F910C948E1410918E01161330C086
:101F800080918C0190918D010E94751F883C910574
:101F900038F5C0E2CD0F1D17B9F080E2810F88300F
:101FA00040F4177081E001C0880F1A95EAF70E948B
:101FB0009514C83048F481E09D2F977001C0880FB8
:101FC0009A95EAF70E948E14802F0E947B14C830E5
:101FD000B8F4D77081E001C0880FDA95EAF70AC03B
:101FE00080E28C0F883060F4C77081E001C0880FF8
:101FF000CA95EAF7DF91CF911F910F910C94951438
:10200000DF91CF911F910F9108959C01CB01233F48
:102010004CE53407F9F078F4283DFCE53F07B9F0CA
:10202000293D4CE5340711F1273D3C4531F526E2C9
:1020300041EE61EE1EC0253FFCE53F0799F070F0D0
:10204000263F3C45D1F427E245EE66EE12C027E27A
:1020500045EE0EC026E241EE60EE0BC027E245EEF3
:1020600064EE07C026E241EE62EE03C028E241E0E2
:1020700065EE0E94980F80E00895FC01828188231C
:1020800019F010928E01089581E00895CF93DF93A7
:10209000EC01FB018281882309F41FC1C230FCE5F9
:1020A000DF0708F41BC1C6319CE5D90738F09E0153
:1020B0002A5F3C452930310508F010C10E94C11D3E
:1020C0009093870280938602C031ECE5DE0709F425
:1020D000C3C008F041C0C8308CE5D80709F49AC0E5
:1020E000F0F4C430ECE5DE0709F487C068F4C230D0
:1020F0008CE5D80709F477C0C330DC4509F0E3C0AC
:1021000080918602826076C0C630ECE5DE0709F475
:102110006EC008F07BC08091860288606BC0CC30B6
:102120008CE5D80709F485C068F4CA30ECE5DE0711
:1021300009F474C008F079C00E943F1780918602AC
:10214000806858C0CE308CE5D80709F476C008F016
:102150007FC0809186028BC0CB3FECE5DE0709F49F
:102160004FC018F5C3318CE5D80709F47DC078F469
:10217000C131ECE5DE0709F473C0C231DC4509F07A
:10218000A2C00E943F17809186028F7733C0C5316D
:102190008CE5D80709F472C008F486C0CA3FDC4554
:1021A00009F091C0809187023EC0CF3FFCE5DF0778
:1021B00009F45FC058F4CD3F9CE5D90709F444C049
:1021C00008F43FC08091870282602DC0C130FDE5D8
:1021D000DF0709F475C008F45DC0C230DD4509F0C1
:1021E00072C080E06EC080918602816003C08091E1
:1021F000860280618093860266C08091860211C04B
:10220000809187028260809387025DC08091860200
:102210008062F0CF809186028064ECCF809186024C
:1022200088608460E7CF8160EECF809186028E7FE8
:10223000E1CF809186028D7FDDCF80918602877FFE
:10224000D9CF8091870218C0809187028D7FDBCF24
:10225000809186028F7ECECF809186028F7DCACFFD
:10226000809186028F7BC6CF80918602877F8B7F8D
:10227000C1CF809187028D7F8E7FC5CF80918602EE
:1022800082FB222720F991E0922790FB82F990FBB4
:1022900083F9B0CF80918702982F909591708E7FAF
:1022A000892B90FB81F9AFCF0E943F178091860266
:1022B00087FB222720F991E0922790FB87F99ACF9C
:1022C00081E00E94501E80918602909187020E94B8
:1022D000D21D0E943F1780E001C081E0DF91CF91C5
:1022E000089590939401809393010895E091930150
:1022F000F0919401309721F00190F081E02D099444
:1023000080E00895E0919301F0919401309799F065
:1023100020912201222359F02091860227FF07C035
:10232000DC012C9111962C93119725E02C930280BF
:10233000F381E02D09940895E0919301F0919401C7
:10234000309739F022E0DC012C930480F581E02DF8
:102350000994089520919101309192018217930779
:1023600071F09093920180939101E0919301F0912B
:102370009401309721F00680F781E02D09940895AB
:1023800020918F01309190018217930771F0909303
:10239000900180938F01E0919301F0919401309727
:1023A00021F00084F185E02D0994089585B78068B7
:1023B00085BF85B7806885BF0895089508950C94FA
:1023C000DE1108950C94E1110E94D6110E94DD11D6
:1023D0000C94DF1181E008950E94601F0E94FD07A8
:1023E0000E9435200E940A0E0C94E2117F928F9277
:1023F0009F92AF92BF92CF92DF92EF92FF920F9394
:102400001F93CF93DF93CDB7DEB72A970FB6F8941B
:10241000DEBF0FBECDBF0E9448080E94EA118111A5
:1024200011C08FEF89838A831B820E94691F81609C
:10243000782F9D838C8349815A816B818D810E9485
:10244000A6124FC036E9832E31E0932E00E010E053
:10245000702E802F0E94F3076C01F401A190B190BF
:102460004F01A826B926A114B10431F40F5F1F4F04
:102470000530110569F7D5CF8091380281FD0E94A2
:10248000FC0790E0EE24E394F12C97012A213B21F4
:10249000232B09F19E837F82CE20DF2091E0CD287F
:1024A00009F490E098870E94691F8160782F9A87CD
:1024B00089874E815F8168858A850E94A612000FF8
:1024C000111FF801EA56FE4F80819181E826F92616
:1024D000F182E08206C09F5FEE0CFF1C9F30A9F6E0
:1024E000C5CF0E94E922109195010E94761118171C
:1024F000C9F00E947611809395012A960FB6F89440
:10250000DEBF0FBECDBFDF91CF911F910F91FF9026
:10251000EF90DF90CF90BF90AF909F908F907F9083
:102520000C94C4042A960FB6F894DEBF0FBECDBF3C
:10253000DF91CF911F910F91FF90EF90DF90CF909F
:10254000BF90AF909F908F907F900895CF93DF932F
:10255000CDB7DEB72B970FB6F894DEBF0FBECDBF59
:102560004F83588769877A878B87DE01119686E0CB
:10257000FD0111928A95E9F785E0FE0137960190F9
:102580000D928A95E1F749815A816B817C818D8119
:102590009E810E94E9192B960FB6F894DEBF0FBEFC
:1025A000CDBFDF91CF910895FC01808191810E9480
:1025B000B51C0895CF93DF931F92CDB7DEB7882364
:1025C00009F42DC1682F8238C1F40E94761181FD73
:1025D00026C169E380911001909111010E94BA1EF9
:1025E0000E94401D2FEF81EE94E0215080409040EA
:1025F000E1F700C0000069E319C0833811F50E94BB
:10260000761180FD0CC163E580911001909111015C
:102610000E94BA1E0E94401D2FEF81EE94E02150CF
:1026200080409040E1F700C0000063E58091100118
:10263000909111010E94C51E0F90DF91CF910C94D3
:10264000401D8438C1F40E94761182FDE8C067E421
:1026500080911001909111010E94BA1E0E94401DAC
:102660002FEF81EE94E0215080409040E1F700C0D0
:10267000000067E4DBCF8CEF860F813A70F4862F81
:1026800069830E94F22469818111C9C0809110017F
:10269000909111010E94BA1ECFCF80E2860F883040
:1026A00048F4677081E001C0880F6A95EAF70E94DC
:1026B000F71CC2CF8BE5860F833088F4653A29F08A
:1026C000663A31F083E890E005C081E890E002C00E
:1026D00082E890E00F90DF91CF910C94AA1188E5E9
:1026E000860F873108F091C0683A09F445C0693A0D
:1026F00009F445C06A3A09F445C06B3A09F445C08B
:102700006C3A09F445C06B3B09F445C06C3B09F4D5
:1027100045C06D3A09F445C0603B09F445C06E3AC6
:1027200009F445C06F3A09F445C0613B09F445C05E
:10273000623B09F445C0633B09F445C0643B09F4BE
:1027400045C0653B09F445C0663B09F445C0673B9D
:1027500009F445C0683B09F445C0693B09F445C02C
:102760006D3B09F445C06E3B09F445C06A3B09F472
:1027700045C080E090E044C082EE90E041C089EE28
:1027800090E03EC08AEE90E03BC085EB90E038C020
:1027900086EB90E035C083EB90E032C084EB90E0B4
:1027A0002FC087EB90E02CC08CEC90E029C08DEC22
:1027B00090E026C083E891E023C08AE891E020C041
:1027C00082E991E01DC084E991E01AC081E292E0C3
:1027D00017C083E292E014C084E292E011C085E267
:1027E00092E00EC086E292E00BC087E292E008C061
:1027F0008FE690E005C080E790E002C08AE292E0B8
:102800000F90DF91CF910C94C011603F40F0862F64
:102810000E94F1210F90DF91CF910C94DE220F9056
:10282000DF91CF910895882309F464C0823879F448
:102830000E94761181FF5EC069E380911001909142
:1028400011010E94BA1E0E94401D69E310C0833826
:10285000B1F40E94761180FF4DC063E580911001B4
:10286000909111010E94BA1E0E94401D63E5809163
:102870001001909111010E94C51E0C94401D8438D6
:1028800079F40E94761182FF35C067E480911001CF
:10289000909111010E94BA1E0E94401D67E4E7CF8B
:1028A0009CEF980F913A10F4682FE1CF90E2980FC7
:1028B000983050F4877091E001C0990F8A95EAF73B
:1028C000892F0E94FD1CD9CF9BE5980F933020F4EF
:1028D00080E090E00C94AA1198E5980F973120F4CD
:1028E00080E090E00C94C011803F20F00E945922BB
:1028F0000C94DE220895CF93C82F0E94DA12C933B8
:1029000049F42FEF87EE93E0215080409040E1F7AB
:1029100000C000008C2FCF910C941314882321F059
:102920000E94F71C0C94401D0895882321F00E94FA
:10293000FD1C0C94401D0895BF92CF92DF92EF9240
:10294000FF920F931F93CF93DF937C01062FC72F26
:10295000FC01158112951F70D281D1110E94141DA6
:102960000E94ED1C882379F0DD2369F080E2800F5E
:10297000883048F082E00E948B1D0E94ED1C91E09F
:10298000B82EB92601C0B12CCC2EC2948FE0C8223B
:10299000D12CF601E659FF4F0C94E02C8C2F807F50
:1029A000CF70882311F0C295C07FDD2399F0CC232E
:1029B00009F4CEC180E2800F883010F0011104C00C
:1029C0008C2F0E94F71C03C08C2F0E94071D0E94B1
:1029D000401DBEC1802F0E941314CC2309F4DDC119
:1029E00080E2800F883010F0011104C08C2F0E940B
:1029F000FD1C03C08C2F0E940D1D0E94401DCDC1E7
:102A00008C2F807FCF70803211F0C295C07F002361
:102A100019F00130C9F022C0DD2371F0112341F01B
:102A2000113031F40E94271D8C2B0E942D1DB5C141
:102A30000E94271D8C2B1DC0112319F0113009F4A1
:102A4000ACC10E94361D25C0DD2321F0163008F0F0
:102A5000A4C10EC0153008F0A0C11BC0DD2361F079
:102A6000112331F0F701858180FF72C18F7085835A
:102A70008C2F0E948E1491C1112359F0093309F053
:102A800078C1FFEF27EE83E0F15020408040E1F76E
:102A90006EC18C2F0E94951480C18C2F86958695CF
:102AA000837090E0009719F0019761F076C1DD2303
:102AB00021F0802F9C2F937002C080E090E00E9454
:102AC000AA1176C1DD2321F0802F9C2F937002C0C4
:102AD00080E090E00E94C0116BC1DD23F9F0053F5A
:102AE00051F0063F71F0043FA9F48091800290916B
:102AF000810281600BC0809180029091810282608E
:102B000005C080918002909181028460909381023F
:102B100080938002802F0E94F1211EC0053F51F05A
:102B2000063F71F0043FA9F48091800290918102E8
:102B30008E7F0BC080918002909181028D7F05C0B5
:102B400080918002909181028B7F9093810280938B
:102B50008002802F0E9459220E94DE2229C18C2FE0
:102B6000837009F049C0D1111FC1402F429546958D
:102B70004770440F440F602F6F70862F90E0A0E0E5
:102B8000B0E0042E04C0880F991FAA1FBB1F0A942F
:102B9000D2F704FF10C00FE010E020E030E004C0E6
:102BA000000F111F221F331F4A95D2F70095109571
:102BB0002095309503C000E010E09801C695C695B9
:102BC000C370D0E0BC01CD01602B712B822B932B05
:102BD000C230D10559F0C330D10559F0219719F011
:102BE0000E942E1BE1C00E941C1BDEC00E94401BE5
:102BF000DBC00E941A1BD8C0DD2319F08C2F817016
:102C000001C08695882309F4CFC0402F4295469590
:102C10004770440F440F602F6F70862F90E0A0E044
:102C2000B0E0042E04C0880F991FAA1FBB1F0A948E
:102C3000D2F704FF10C00FE010E020E030E004C045
:102C4000000F111F221F331F4A95D2F700951095D0
:102C50002095309503C000E010E09801C695C69518
:102C6000C370D0E0BC01CD01602B712B822B932B64
:102C7000C230D10559F0C330D10559F0219719F070
:102C80000E94F41B91C00E94E21B8EC00E94061C91
:102C90008BC00E94551B88C0CF70DD2339F08C2F6C
:102CA0000E947B1B802F0E948E147EC0802F0E946A
:102CB00095148C2F0E949C1B77C0023F01F128F4D1
:102CC000003F41F0013FA1F03FC0033FF9F0043F56
:102CD00039F13AC0DD2341F0153008F05EC08C2F89
:102CE0008F710E94C11B59C0163008F056C0F7CF33
:102CF000DD2339F08C2F8F710E947B1B4EC0DD23AA
:102D0000C9F38C2F8F710E949C1B47C0DD2329F0D3
:102D10008C2F8F710E94661B40C00E94611B3DC0BA
:102D2000DD2349F0CF718C2F0E947B1B63E08C2F39
:102D30000E94761D32C081E00E948B1D123068F126
:102D400082E00E948B1D29C0DD2331F0112391F216
:102D5000802F0E94DA1221C0112399F2093349F41D
:102D60009FEFE7EEF3E09150E040F040E1F700C064
:102D70000000802F0E94131410C04C2F4F70602F42
:102D8000C7010E9447050E948D1A12C04C2F4F7038
:102D9000602FC7010E944A050BC028E0C21AD10863
:102DA00084E0C816D10420F40E9476110E94C40465
:102DB000BB20D1F00E94E91C80FD16C0F7011282F1
:102DC0000E94E31C0E947B1BC7010E94FE160E940A
:102DD000E31CDF91CF911F910F91FF90EF90DF9057
:102DE000CF90BF900C949C1BDF91CF911F910F91BE
:102DF000FF90EF90DF90CF90BF9008950F931F93B7
:102E0000CF93DF93EC01888199812B813C81232B27
:102E1000B9F09F3F11F48F3F99F0CE010E94DD047D
:102E2000882371F0688179818A810E94C01C8C019D
:102E30000E94181C0E94191BB801CE010E949C140C
:102E4000DF91CF911F910F9108950E94141D0E9450
:102E5000241D0E94401D0E9484230E94DE2280E0E7
:102E600090E00E94AA1180E090E00C94C011809143
:102E70001001909111010E94D01E0C9425170E9400
:102E8000041D0C943717E92FE295EF70F0E03297AC
:102E9000EE30F105B0F4E658FF4F0C94E02C803F83
:102EA00091F018F4883E68F40EC0843F51F40BC0D2
:102EB000883E48F0813F29F406C093FB882780F9BB
:102EC000089580E0089581E008950E94B51C0E9455
:102ED00043170895CF93DF9300D000D01F92CDB752
:102EE000DEB70F900F900F900F900F90DF91CF9162
:102EF0000895CF93DF9300D000D000D0CDB7DEB7D8
:102F000026960FB6F894DEBF0FBECDBFDF91CF91EE
:102F100008951F93CF93DF93C091A10116E0809194
:102F2000A201C81799F0D0E01C9FF0011D9FF00D81
:102F30001124ED55FE4F408151816281738184815E
:102F400095810E9479172196C770E9CFDF91CF91C3
:102F50001F9108954091D3015091D4016091D50102
:102F60007091D6018091D7019091D8010C94791776
:102F70008091D80182958F7009F054C08091D5015D
:102F8000882309F44FC08091A101A091A201609112
:102F9000D3017091D4014091D6015091D701B6E090
:102FA0008A1709F43FC090E041155105C1F17F3FF8
:102FB00011F46F3FA1F1B89FF001B99FF00D1124FA
:102FC000ED55FE4F218172132AC02081621327C064
:102FD0002281211124C0238134812417350710F464
:102FE00021503109241B350B283C3105C0F42091B8
:102FF000D8012F7020612093D80126E0289FF0018E
:10300000299FF00D1124E855FE4F80818F7080615B
:10301000808383ED91E00E94FE160C94891701963F
:103020008770BECF0895CF92DF92EF92FF920F93F9
:103030001F93CF93DF93CDB7DEB762970FB6F894A7
:10304000DEBF0FBECDBF8C0185E0F801DE011D960D
:1030500001900D928A95E1F7D8014C9111965C91FF
:10306000119712966C9112971396CD90DC9014974D
:103070003091D3017091D4018091D6019091D70104
:10308000009709F46BC17F3F19F43F3F09F466C113
:10309000E090D501EE2009F4C0C02091D801C816F7
:1030A000D90628F0F601E81BF90BCF0104C0809582
:1030B00090958C0D9D1DFF24F394883C910578F02C
:1030C000F12C207F09F0C6C07C2DD98AC88A898955
:1030D0000E946A1783ED91E00E94FE16B1C0822F14
:1030E000807F09F046C0751314C0341312C06111FB
:1030F00010C02F7020612093D8010E94AA1783ED81
:1031000091E00E94FE168091D801D80115968C930B
:103110002EC0CD2819F15F3F11F44F3FF9F0F62E84
:1031200061111CC08091A1012091A20136E082179B
:1031300009F45AC090E0389FF001399FF00D112436
:10314000ED55FE4F7181571306C07081471303C0C0
:103150007281711103C001968770E9CFF62E662344
:1031600009F427C18091D80181608093D801F12CA6
:1031700020C1751308C0341306C0611104C08091CA
:10318000D801D801C3C04D875E878D859E856A8B27
:103190000E9465176A898823E1F16623D1F12091A5
:1031A000D801822F82958F7090E0029774F0809101
:1031B000D3019091D40198878F831986DB86CA86C4
:1031C0002C87CE0107960E94FE1686E0F801A3ED3B
:1031D000B1E001900D928A95E1F70E94B8170E9424
:1031E000AA17FF24F394E5C04D875E878D859E85E1
:1031F0000E94B51C292F22952F7030E02230310516
:103200000CF0CBC09F7009F0C5C0805E883008F418
:10321000D0C0C8010E94FE16E4CFC816D90608F433
:1032200053C0F601E81BF90BCF01883C910508F467
:1032300050C0F12C7C2DD98AC88A89890E946A17CE
:10324000E3EDF1E086E0DF011D928A95E9F70E9447
:10325000AA17AFC0751314C0341312C0611110C087
:103260008091D801F8018583C8010E94FE1686E08E
:10327000E3EDF1E0DF011D928A95E9F7FE2C99C09C
:103280004D875E878D859E856A8B0E9465176A894A
:10329000882309F4BECF662309F4BBCF2091D8015F
:1032A000822F82958F7090E002970CF48ECF8091E0
:1032B000D3019091D4019A8389831B82DD82CC82D1
:1032C0002E83CE0101967FCF809590958C0D9D1D0C
:1032D000ACCFF62E662309F49CCF75132EC03413A1
:1032E0002CC02091D80120FD1FC0822F82958F70A5
:1032F000D9F0D80115962C9315978F3049F08F5F30
:10330000982F9295907F822F8F70892B15968C9392
:10331000C8010E94FE1686E0F801A3EDB1E001901D
:103320000D928A95E1F793CF86E0F801A3EDB1E025
:1033300001900D928A95E1F73CC04D875E878D859F
:103340009E850E946517811140CF8091D8018160D0
:103350008093D801C8010E94FE162BC0662309F491
:1033600058CF4D875E878D859E850E946517F82E04
:10337000882309F44ECF86E0F801A3EDB1E0019077
:103380000D928A95E1F783ED91E00E94D4120E949C
:10339000B8175DCF811139CF0CC0243031050CF046
:1033A00038CF9F7009F431CFF8019581907F09F0F3
:1033B0002CCF8F2D62960FB6F894DEBF0FBECDBF17
:1033C000DF91CF911F910F91FF90EF90DF90CF9001
:1033D00008951F93CF93DF93CDB7DEB72C970FB629
:1033E000F894DEBF0FBECDBF4F83588769877A87B9
:1033F0008B879C87CE0107960E941318882369F05B
:103400008F8198852A853B85232BF1F19F3F09F019
:1034100063C08F3F09F060C037C086E0FE01379679
:10342000DE01119601900D928A95E1F76F81788502
:10343000EA85FB85309741F17F3F11F46F3F21F121
:103440002091A20130E0C90101968770992740912F
:10345000A10150E08417950709F447C069837A8376
:10346000FD83EC8396E0929FD001939FB00D1124D1
:10347000AD55BE4FFE01319601900D929A95E1F740
:103480008093A2010E94891716E08091A10190917A
:10349000A2018917C1F1189FC00111248D559E4FBB
:1034A0000E941318882379F1E091A1011E9FF00179
:1034B0001124ED55FE4F40815181628173818481D9
:1034C00095810E9479178091A10190E00196877003
:1034D00099278093A101D9CF4F81588569857A8535
:1034E0008B859C850E947917CFCF0E943F17109241
:1034F000A2011092A101E3EDF1E086E0DF011D924F
:103500008A95E9F7C1CF2C960FB6F894DEBF0FBEAF
:10351000CDBFDF91CF911F910895EF92FF920F934E
:103520001F93CF93DF938C01892B09F46CC0F12C8E
:10353000EE24E394E8012196F8018491843740F465
:10354000843008F051C0813081F0823019F15BC0C5
:10355000853709F444C0A8F19CE7980F903708F02C
:1035600052C08F770E94131441C00E5F1F4FFE019F
:10357000C49180E28C0F883048F4C7708E2D01C052
:10358000880FCA95EAF70E94171D14C08C2F0E945D
:10359000DA122DC00E5F1F4FFE01C49180E28C0F26
:1035A000883058F4C7708E2D01C0880FCA95EAF78D
:1035B0000E941D1D0E94401D1AC08C2F0E941314D2
:1035C00016C00E5F1F4FFE01C491CC2381F08FE91E
:1035D0009FE00197F1F700C00000C150F6CF0E5FE9
:1035E0001F4FFE01F49003C00E94DA128E018F2D4E
:1035F000882309F49FCFEFE9FFE03197F1F700C08E
:1036000000008150F5CFDF91CF911F910F91FF9076
:10361000EF90089508950C940A1B0E940B1B609371
:103620000F027093100280931102909312020C9477
:10363000251708950C940D1B0F931F9300910F02F3
:10364000109110022091110230911202602B712B07
:10365000822B932B1F910F910C940D1B0F931F9393
:1036600000910F021091100220911102309112026C
:1036700060237123822393231F910F910C940D1BC0
:103680000F931F9300910F021091100220911102CD
:103690003091120260277127822793271F910F9183
:1036A0000C940D1B08950C94521B0E94531B6093A5
:1036B0000B0270930C0280930D0290930E020C94F7
:1036C000251760E070E0CB010C94551B0F931F93FE
:1036D00041E050E060E070E08A019B0104C0000F0F
:1036E000111F221F331F8A95D2F7C901B8011F91FC
:1036F0000F910C94551B0F931F9341E050E060E035
:1037000070E004C0440F551F661F771F8A95D2F7DB
:1037100080910B0290910C02A0910D02B0910E02CB
:103720008A019B01082B192B2A2B3B2BC901B801BD
:103730001F910F910C94551B0F931F9341E050E084
:1037400060E070E004C0440F551F661F771F8A9524
:10375000D2F7409550956095709580910B029091AD
:103760000C02A0910D02B0910E028A019B01082368
:1037700019232A233B23C901B8011F910F910C94EF
:10378000551B0F931F9341E050E060E070E004C0D0
:10379000440F551F661F771F8A95D2F780910B0241
:1037A00090910C02A0910D02B0910E028A019B0132
:1037B000082719272A273B27C901B8011F910F9114
:1037C0000C94551B0F931F9300910B0210910C0248
:1037D00020910D0230910E02602B712B822B932BC6
:1037E0001F910F910C94551B0F931F9300910B0287
:1037F00010910C0220910D0230910E026023712372
:10380000822393231F910F910C94551B0F931F93A9
:1038100000910B0210910C0220910D0230910E02CA
:1038200060277127822793271F910F910C94551BB6
:1038300008952FE0929F800D1124A82FA695A6959C
:10384000A695877051E001C0550F8A95EAF785E08B
:10385000A89FD001112420E030E070E0F901EA0FC8
:10386000FB1FE752FE4F4081CB01022E02C096950E
:1038700087950A94E2F7817099278195842785239B
:10388000842780832F5F3F4F2530310539F7089516
:103890002FE0929F800D1124682F6695669566959E
:1038A000982F977085E0689FB001112440E050E0A8
:1038B00080E0FA01E60FF71FE752FE4F208130E06B
:1038C000092E02C0369527950A94E2F72170332716
:1038D000042E01C0220F0A94EAF7822B4F5F5F4F3C
:1038E0004530510531F70895BF92CF92DF92EF92A4
:1038F000FF920F931F93CF93DF938C01C0900F0221
:10390000D0901002E0901102F090120280910B0210
:1039100090910C02A0910D02B0910E02C82AD92AF2
:10392000EA2AFB2ACFE1D0E0D701C6010C2E04C061
:10393000B695A795979587950A94D2F780FF07C00B
:10394000BC2EB8018C2F0E946505019719F42197B0
:1039500058F7B12C8B2DDF91CF911F910F91FF90D4
:10396000EF90DF90CF90BF900895CF93DF93EC015D
:103970000E94741CBE010E946505DF91CF910895DD
:103980001F93CF93DF93EB019091A001992321F036
:10399000CB010E94B51C13C0882349F0CB010E94C3
:1039A000741C182F682FCE010E94191C04C0CB0173
:1039B0000E94481C182FBE01812F0E946505DF91CF
:1039C000CF911F91089580911302859585958595D6
:1039D0000895809113028770089590911302977053
:1039E00081E009F480E00895809137020895909174
:1039F0003702892B80933702089580959091370282
:103A00008923809337020895109237020895909188
:103A10003602892B80933602089580959091360264
:103A2000892380933602089510923602089590916A
:103A30003502892B80933502089580959091350247
:103A4000892380933502089510923502089580915C
:103A50001402089508950C942A1D90911402981749
:103A600021F0809314020C942B1D08958091140270
:103A7000882329F01092140280E00C942B1D0895E5
:103A8000E0911001F0911101809137028083E09163
:103A90001001F0911101908180913602892B808371
:103AA000E0911001F0911101908180913502892BF4
:103AB000808380911402882381F0E0911001F091BD
:103AC00011019081892B80838091100190911101C7
:103AD0000E94551E81110E94361D80911001909107
:103AE00011010C94821108950C94731D98E0899F24
:103AF00090011124262B209313020E947B1B80919E
:103B000013028595859585950C94741D109213026A
:103B100080E00C94741D2091130280958223809381
:103B20001302982F977079F430E0482F082E000C7C
:103B3000550B2417350739F08595859585950E9495
:103B40009C1B0C94861D089580E090E00E940D2D32
:103B500021E08C3E9E4F09F020E0822F089582E004
:103B600090E00C94FF2C682F82E090E00C94132DD1
:103B700083E090E00C94FF2C682F83E090E00C949D
:103B8000132DCF9384E090E00E94FF2CC82F81E298
:103B900090E00E94FF2C2C2F30E0A901582BCA0185
:103BA000CF910895CF93C92F682F84E090E00E94B1
:103BB000132D6C2F81E290E0CF910C94132DAB016B
:103BC000BC018FE090E00C94252DAB01BC0183E19A
:103BD00090E00C94252D60E070E0CB010C94E51D85
:103BE00060E070E0CB010E94DF1D0C94EB1D6CEED9
:103BF0007EEF80E090E00E94312D60E082E090E076
:103C00000E94132D60E083E090E00E94132D10923B
:103C10000F0210921002109211021092120260E034
:103C200084E090E00E94132D60E081E290E00E9429
:103C3000132D60E085E090E00E94132D60E086E0A7
:103C400090E00E94132D6FEF87E090E00E94132D0B
:103C500040E050E0BA0188E090E00E94252D60E04D
:103C60008DE090E00E94132D40E050E0BA0188E121
:103C700090E00E94252D60E087E190E00E94132DE6
:103C800040E050E0BA018CE190E00E94252D60E018
:103C900080E290E00E94132D0C94F01D0C94F71D0F
:103CA000682F8EE090E00C94132DFC0132968091E9
:103CB0002201882331F08091860287FF02C09EE1B5
:103CC00001C096E080E0915028F021912223D9F3A1
:103CD0008F5FF9CF08959C01FC0132969FEF80E041
:103CE0004191461789F09F3F19F4411101C0982F67
:103CF0008F5F8630A9F79F3F39F0F901E90FF11D79
:103D000097FDFA95628308950895FC01329608960E
:103D10002081261301C010823196E817F907C1F7F8
:103D20000895262F2695269526952E3168F4FC01B8
:103D3000E20FF11D677021E030E001C0220F6A95AB
:103D4000EAF78281282B22830895262F269526952F
:103D500026952E3170F4FC01E20FF11D677021E011
:103D600030E001C0220F6A95EAF72095828128236E
:103D70002283089520912201222329F02091860296
:103D800027FD0C94911E0C946B1E2091220122237E
:103D900029F02091860227FD0C94A51E0C94851E07
:103DA00020912201FC013296222331F0809186027B
:103DB00087FF02C08EE101C086E0DF011D928A9577
:103DC000E9F7089508950C94E21E0E94E31E809185
:103DD0008C02843049F11092390220E488E190E0AD
:103DE0000FB6F894A895809360000FBE20936000F2
:103DF00080E00E94C4040E94E31E83B7817F846038
:103E000083BF83B7816083BF7894889583B78E7FA3
:103E100083BF0FB6F894A895809160008861809365
:103E20006000109260000FBE089508950895CF932A
:103E30000E94151F0E9448080E94161FC0E08C2F88
:103E40000E94F307892B29F4CF5FC530C1F780E0CA
:103E500001C081E0CF91089508950C942C1F0E9419
:103E60003F170E9476110E94C4040C942D1F1F92CC
:103E70000F920FB60F9211248F939F93AF93BF931E
:103E800080913902811113C0809182029091830246
:103E9000A0918402B09185024196A11DB11D80932D
:103EA000820290938302A0938402B0938502BF9113
:103EB000AF919F918F910F900FBE0F901F9018950B
:103EC00082E084BD93E095BD9AEF97BD80936E002C
:103ED00008952FB7F8948091820290918302A09167
:103EE0008402B09185022FBF0895CF92DF92EF92A6
:103EF000FF920F931F932FB7F89440918202509135
:103F0000830260918402709185022FBF6A017B0158
:103F1000EE24FF248C0120E030E0C016D106E2063A
:103F2000F30610F4415051099A01281B390BC901BD
:103F30001F910F91FF90EF90DF90CF9008957894AC
:103F40001F920F920FB60F9211248F939F93AF93EE
:103F5000BF938091820290918302A0918402B091DC
:103F600085020196A11DB11D809382029093830268
:103F7000A0938402B0938502BF91AF919F918F91DE
:103F80000F900FBE0F901F90189581E08093E00076
:103F900080E28093D8001092C9008FE19EE40197DF
:103FA000F1F700C0000087E090EBDC018093950200
:103FB00090939602A0939702B09398029CE088E1B8
:103FC0000FB6F894A895809360000FBE90936000A0
:103FD000FFCFAF92BF92CF92DF92EF92FF920F93FB
:103FE0001F93CF93C0E0CC24C394D12CE82EF12CA6
:103FF0008C2F0E94F3075C0100E010E09601002E78
:1040000002C0220F331F0A94E2F72A213B21232BFF
:1040100031F40F5F1F4F0F30110581F70AC0602F79
:104020007C2F80E00E944B05E816F90691F781E0AD
:1040300004C0CF5FC530E1F680E0CF911F910F91B2
:10404000FF90EF90DF90CF90BF90AF900895CF9307
:10405000C82F8CE20E94E91F882321F08C2FCF917A
:104060000C94E91F80E0CF910895CF930E94A41D86
:10407000811102C00E944E1EC5E6C15049F00E9447
:1040800048088FE39CE90197F1F700C00000F5CFE5
:1040900089E20E942720811120C18AE20E94272004
:1040A00081110E944E1E85E00E94272081110E94EE
:1040B000C51F0E94AF1D8093380287E00E94272011
:1040C0008823A9F18BE10E942720882351F0809159
:1040D000380281FB222720F991E0922790FB81F999
:1040E0000EC08EE00E942720882361F08091380264
:1040F00082FB222720F991E0922790FB82F980939E
:10410000380215C080E10E94272090913802882350
:1041100041F093FB222720F981E0822780FB93F96D
:1041200004C0892F809580FB90F99093380280918C
:1041300038020E94B31D0E94C11D90938702809394
:10414000860280EE0E942720882341F0809186021B
:10415000982F909590FB80F98093860289E30E94C6
:104160002720882359F08091860281FB222720F99D
:1041700091E0922790FB81F98093860282EE0E9463
:104180002720882359F08091860282FB222720F97C
:1041900091E0922790FB82F98093860286EE0E943E
:1041A0002720882359F08091860283FB222720F95B
:1041B00091E0922790FB83F98093860283EE0E9420
:1041C0002720882359F08091860284FB222720F93A
:1041D00091E0922790FB84F98093860285E30E9408
:1041E0002720882359F08091860285FB222720F919
:1041F00091E0922790FB85F98093860281E30E94EB
:104200002720882359F08091860286FB222720F9F7
:1042100091E0922790FB86F98093860281E10E94CB
:104220002720882359F08091860287FB222720F9D6
:1042300091E0922790FB87F9809386028091860215
:10424000909187020E94D21D87E20E942720C82FEA
:104250008EE10E9427208111C2608FE10E942720F9
:104260008111C46080E20E9427208111C86081E230
:104270000E9427208111C06182E20E9427208111C3
:10428000C06283E20E9427208111C06484E20E9400
:104290002720882311F0C06802C0CC2329F08C2F7E
:1042A0000E94BC1D6C2F03C00E94B81D682F70E0D7
:1042B00080E090E00E941A1B8FE00E942720882354
:1042C00019F081E00E94501E85E10E94272088237A
:1042D00021F080E0CF910C94501ECF9108958091F1
:1042E0003D0280FF0BC06091150185E0689FB00121
:1042F000112475956795759567952BC081FF09C049
:104300006091150185E0689FB0011124759567954E
:1043100020C082FF07C06091150185E0689FB00151
:10432000112417C090913C029923D1F0609114019F
:10433000961788F72091150185E0289F9001112498
:10434000929FA001939F500D112470E0CA010E941A
:10435000CC2C6038710540F46115710539F002C04C
:1043600065E070E0862F08958FE7089581E0089555
:1043700080913D0280FF08C06091130170E0759547
:1043800067957595679521C081FF06C060911301FF
:1043900070E07595679519C082FF04C060911301A4
:1043A00070E010C090913C029923C1F0609112011D
:1043B0009617A0F780911301899FC001112470E026
:1043C0000E94CC2C6038710528F46115710521F02C
:1043D000862F08958FE7089581E0089561E070E0E9
:1043E000F4CF803F21F40E946F21819504C0813F6A
:1043F00029F40E946F21809341020895823F21F4A5
:104400000E946F21819504C0833F29F40E946F218F
:10441000809340020895893F19F40E94B82105C095
:104420008A3F31F40E94B821819580934202089519
:104430008B3F21F40E94B821819504C08C3F29F460
:104440000E94B821809343020895843F21F4809113
:104450003F02816017C0853F21F480913F02826056
:1044600011C0863F21F480913F0284600BC0873FDA
:1044700021F480913F02886005C0883F31F480912B
:104480003F02806180933F0208958D3F21F4809127
:104490003D0281600BC08E3F21F480913D0282601D
:1044A00005C08F3F29F480913D02846080933D02D6
:1044B0000895803F39F48091410287FF6CC01092CB
:1044C000410269C0813F29F4809141021816BCF372
:1044D00062C090914002823F29F497FF5CC0109225
:1044E000400259C0833F19F41916CCF354C0893FD8
:1044F00041F48091420218160CF04DC01092420215
:104500004AC08A3F29F48091420287FF44C0F6CF17
:104510008B3F39F48091430287FF3DC010924302E4
:104520003AC08C3F29F4809143021816BCF333C083
:10453000843F21F480913F028E7F17C0853F21F494
:1045400080913F028D7F11C0863F21F480913F0210
:104550008B7F0BC0873F21F480913F02877F05C08E
:10456000883F31F480913F028F7E80933F0213C0D9
:104570008D3F21F480913D028E7F0BC08E3F21F450
:1045800080913D028D7F05C08F3F29F480913D02CF
:104590008B7F80933D028091400281110EC08091FB
:1045A000410281110AC080914202811106C08091AE
:1045B0004302811102C010923C0208958EE392E002
:1045C0000E949C110E94691F90933B0280933A02C3
:1045D00008951F93CF93DF9380913A0290913B020D
:1045E0000E94751FAC0190913C02992321F020910B
:1045F000160130E006C0209117018AE0289F900143
:1046000011244217530708F47BC080914002C091E7
:104610004102D091420210914302811107C0C111A1
:104620006BC0D11169C0111167C06AC09F3F19F0FA
:104630009F5F90933C02181624F40E946F21809390
:1046400040028091400287FF05C00E946F21819542
:10465000809340021C1624F40E946F218093410233
:104660008091410287FF05C00E946F218195809350
:104670004102309140023323E1F020914102222394
:10468000C1F045EB3403C0011124892F990F990B18
:10469000009709F481E08093400235EB2303C001C9
:1046A0001124892F990F990B009709F481E08093C9
:1046B00041021D1624F40E94B82180934202809189
:1046C000420287FF05C00E94B82181958093420273
:1046D000111624F40E94B821809343028091430272
:1046E00087FF05C00E94B821819580934302DF9126
:1046F000CF911F910C94DE229F3F09F099CFA1CF5B
:10470000DF91CF911F910895EEE3F2E086E0DF01A3
:104710001D928A95E9F710923C0210923D0208958D
:10472000833081F128F4813059F08230D1F008953E
:10473000853009F449C0B8F1863009F456C00895AF
:1047400080911701262F30E0280F311D2F3F3105B2
:1047500024F4680F6093170108958FEF8093170179
:10476000089580911601262F30E0280F311D2F3F2C
:10477000310524F4680F6093160108958FEF80933C
:104780001601089580911501262F30E0280F311D64
:104790002F3F310524F4680F6093150108958FEFC2
:1047A00080931501089580911401262F30E0280F81
:1047B000311D2F3F310524F4680F609314010895D3
:1047C0008FEF80931401089580911301262F30E01C
:1047D000280F311D2F3F310524F4680F609313011A
:1047E00008958FEF80931301089580911201262F71
:1047F00030E0280F311D2F3F310524F4680F6093FE
:10480000120108958FEF809312010895833011F102
:1048100028F4813049F0823091F00895853081F19B
:1048200020F18630C1F1089580911701681720F4B6
:10483000861B8093170108951092170108958091A7
:104840001601681720F4861B8093160108951092B4
:104850001601089580911501681720F4861B809336
:10486000150108951092150108958091140168179B
:1048700020F4861B8093140108951092140108956A
:1048800080911301681720F4861B8093130108950B
:1048900010921301089580911201681720F4861B6D
:1048A0008093120108951092120108950F931F939F
:1048B000482F50E0FA013597EF33F10508F07FC03B
:1048C000E857FF4F0C94E02C0E944E1E71C080915F
:1048D0003802817F8E7F8093380281E08093450289
:1048E0006FC00E943F170FEF13ED20E301501040FF
:1048F0002040E1F700C000000E94C51F59C0809110
:104900003802982F9095917090FB80F9809338022F
:1049100091114EC0897F877F10C08091380281FB42
:10492000222720F991E0922790FB81F980933802A9
:104930009923F1F18091380281608093380238C068
:104940008091380282FB222720F991E0922790FB88
:1049500082F9ECCF8091380283FB222720F991E085
:10496000922790FB83F9E2CF0E943F178091860245
:1049700087FB222720F991E0922790FB87F980930B
:10498000860216C0895301C08D5141E050E060E0BD
:1049900070E08A019B0104C0000F111F221F331F0A
:1049A0008A95D2F7C901B8010E941A1B0E943F17CD
:1049B00081E006C061E070E080E090E0F5CF80E04B
:1049C0001F910F91089580E0089580E008958E5121
:1049D0008A3030F4E82FF0E0E45AFE4F80810895E9
:1049E00080E00895CF93C82F80914502813051F027
:1049F00018F0823099F17DC00E94F41C823209F0D7
:104A00007AC004C00E94F41C823261F48C2F0E9490
:104A1000E324811104C08C2F0E9456241DC081E024
:104A200090E01AC08C2F0E94E524811114C0C4317B
:104A300079F048F4CB3079F0C03109F060C082E001
:104A40008093450208C0C93219F0C83321F057C01D
:104A50001092450254C081E0817053C0C93289F17F
:104A600018F5C43171F1B0F4C73009F046C08EE1D9
:104A70008093170182E3809316018AE080931501E9
:104A800084E18093140188E08093130188E280938D
:104A9000120133C082EE8C0F863078F58C2F0E9485
:104AA000E7248093440229C0CE34E9F020F4CB34CB
:104AB00021F56AE013C0C13579F0C235F1F461E047
:104AC0000DC080914402882319F01092440215C051
:104AD00081E08093450215C061E006C080914402E8
:104AE0000E9490230AC06AE0809144020E9406243A
:104AF00004C01092450280E004C081E002C080E062
:104B0000ABCFCF9108958091660208950F931F93C4
:104B1000CF93DF9300D01F92CDB7DEB78C010E94F8
:104B2000F127823011F0843021F584E089831B83E2
:104B30000A8382E08093E9008FEF9091E800815032
:104B400095FD06C095ED9A95F1F700008111F5CF1E
:104B50008091E80085FF0DC040E050E063E070E028
:104B6000CE0101960E940E288091E8008E778093F6
:104B7000E8000F900F900F90DF91CF911F910F9150
:104B80000895CF93DF9300D01F92CDB7DEB7209169
:104B90008C02243031F523E02983805891099B83CE
:104BA0008A8382E08093E9008FEF9091E800815042
:104BB00095FD06C095ED9A95F1F700008111F5CFAE
:104BC0008091E80085FF0DC040E050E063E070E0B8
:104BD000CE0101960E940E288091E8008E77809386
:104BE000E8000F900F900F90DF91CF910895CF9331
:104BF000DF93EC010E94F127823011F08430F9F448
:104C000082E08093E9009FEF8091E800915085FD5C
:104C100006C085ED8A95F1F700009111F5CF8091DE
:104C2000E80085FF0CC040E050E066E070E0CE0197
:104C30000E940E288091E8008E778093E800DF9133
:104C4000CF910895CF93DF93EC010E94F12782303A
:104C500011F08430D9F580912201882339F08091B8
:104C6000860287FF03C060E282E002C068E081E064
:104C70008093E9008FEF9091E800815095FD06C088
:104C800095ED9A95F1F700008111F5CF8091E8003C
:104C900085FF1CC080912201811105C040E050E0D9
:104CA00068E070E003C070E040E050E0CE010E9498
:104CB0000E288091E8008E778093E80080E2FE0164
:104CC000A6E4B2E001900D928A95E1F7DF91CF91D1
:104CD000089580918B02811109C00E94A3290E942E
:104CE000002A8091E20084608093E200089510928F
:104CF0008B020895089508950C942F1F42E061ECF3
:104D000081E00E941D2942E261EC82E00C941D29A1
:104D100080918E02833009F460C030F4813071F0EC
:104D2000823009F499C008958A3009F485C08B3027
:104D300009F46BC0893009F0A7C020C080918D02B2
:104D4000813A09F0A1C08091E800877F8093E80054
:104D50008091910290919202892B21F460E286E485
:104D600092E003C060E080E090E070E00E9459288B
:104D70008091E8008B778093E800089580918D0200
:104D8000813209F081C08091910290919202029744
:104D900008F07AC08091E800877F8093E8008091D6
:104DA000E80082FD05C080918C028111F8CF6CC0B3
:104DB0002091F3008091F20090E0922B029729F469
:104DC0008091F1008B7F813021F48091F1008093FC
:104DD00066028091E8008B7753C080918D02813A02
:104DE00009F052C08091910290919202892B09F0B2
:104DF0004BC08091E800877F8093E8008091E800B5
:104E000080FFFCCF8091220136C080918D028132DB
:104E1000D9F58091910290919202892BA9F5809108
:104E2000E800877F8093E8000E94522980918F02DA
:104E3000809322010C943F1780918D02813221F5DD
:104E40008091E800877F8093E8000E94522980913A
:104E5000900280936702089580918D02813AA1F4B7
:104E60008091E800877F8093E8008091E80080FFD0
:104E7000FCCF809167028093F1008091E8008E77EB
:104E80008093E8000C945229089584B7877F84BFEB
:104E90000FB6F894A89580916000886180936000B7
:104EA000109260000FBE90E080E80FB6F8948093F7
:104EB0006100909361000FBE0E94E4110E94A3293B
:104EC0000E94002A8091E20084608093E20078943E
:104ED0000E948F2C0E94EC1188E191E00E947111D8
:104EE00080918C02853069F40E94E51E80918A02CF
:104EF0008823B1F30E94171F882391F30E94F8279B
:104F0000EFCF0E94F6110E943D0EEACF0C94882745
:104F1000292F332723303105C9F064F421303105BE
:104F200081F02230310509F04CC08BE390E02BEC8E
:104F300036E04BC02132310521F12232310589F1B1
:104F400040C082E190E026E037E03FC09927813001
:104F5000910571F02CF4892BA1F5E7ECF6E00DC07A
:104F60008230910541F0039761F5E7EAF6E005C06C
:104F7000E9EBF6E002C0EDEAF6E0849190E09F01F3
:104F800024C06115710541F061307105D1F489E0EB
:104F900090E026EF36E019C089E090E02DED36E094
:104FA00014C06115710541F06130710551F480EC58
:104FB00090E028E137E009C080E490E028ED37E098
:104FC00004C080E090E020E030E0FA0131832083EB
:104FD000089580918C02843011F081E0089582E080
:104FE000089580916802811102C00C94E927089508
:104FF00080E189BD82E189BD09B400FEFDCF8091C9
:10500000D8008F7D8093D8008091E00082608093EB
:10501000E0008091E00081FDFCCF0895CF92DF9207
:10502000EF92FF920F931F93CF93DF93EC018B01CD
:105030006A010E947129811133C0C114D10439F071
:10504000F60180819181081B190BC80FD91FE12C33
:10505000F12C0115110519F18091E80085FD16C0AC
:105060008091E8008E778093E800C114D10449F064
:10507000F60180819181E80EF91EF182E08285E0DF
:105080000FC00E947129882321F30AC0899180935F
:10509000F10001501109FFEFEF1AFF0ADACF80E0AB
:1050A000DF91CF911F910F91FF90EF90DF90CF9004
:1050B000089520919302309194022617370748F003
:1050C0006115710539F42091E8002E772093E800EE
:1050D00001C0B90140E061157105A9F120918C0270
:1050E000222309F443C0253009F442C02091E8008E
:1050F00023FD40C02091E80022FD32C02091E8004D
:1051000020FFE9CF4091F3002091F20030E0342BF2
:10511000FC01CF016115710559F02830310540F4CB
:1051200081918093F100615071092F5F3F4FF1CF62
:1051300041E02830310509F040E02091E8002E7769
:105140002093E800C8CF4111C9CF0AC080918C02DA
:10515000882361F0853061F08091E80083FD0AC00A
:105160008091E80082FFF2CF80E0089582E0089508
:1051700083E0089581E00895209193023091940294
:105180002617370748F06115710539F42091E800BA
:105190002E772093E80001C0B901FC0120E06115E1
:1051A000710591F180918C02882309F440C085300B
:1051B00009F43FC08091E80083FD3DC08091E80084
:1051C00082FD2FC08091E80080FFE9CF2091F3009D
:1051D0008091F20090E0922B6115710559F08830B2
:1051E000910540F424912093F100319661507109AA
:1051F0000196F2CF21E0089709F020E08091E800C5
:105200008E778093E800CBCF2111CCCF0AC080915C
:105210008C02882361F0853061F08091E80083FD85
:105220000AC08091E80082FFF2CF80E0089582E01A
:10523000089583E0089581E00895982F973058F5F8
:105240009093E900981739F07091EC002091ED00EF
:105250005091F00003C0242F762F50E021FF19C099
:105260003091EB003E7F3093EB003091ED003D7FBD
:105270003093ED003091EB0031603093EB00709390
:10528000EC002093ED005093F0002091EE0027FFFA
:1052900007C09F5FD3CF8F708093E90081E00895AE
:1052A00080E0089580918D0287FF11C08091E80011
:1052B00082FD05C080918C028111F8CF11C08091D0
:1052C000E8008B770BC080918C02882349F0809195
:1052D000E80080FFF8CF8091E8008E778093E800A7
:1052E00008952091E4003091E50095E64091EC00AE
:1052F000842F817040FF22C08091E80080FD1CC097
:1053000080918C02882391F0853091F08091EB00A0
:1053100085FD10C04091E4005091E500421753070D
:1053200029F39A01915011F784E0089582E00895DD
:1053300083E0089581E0089580E008954091E800B9
:1053400042FFDECF08950E94112A0E94192AE0EE42
:10535000F0E0808181608083E8EDF0E080818F77EC
:10536000808319BCA7EDB0E08C918E7F8C938081F7
:105370008F7E808310928B0208950F931F93CF939B
:10538000DF930E94112A0E94192AC8EDD0E088817B
:105390008F77888388818068888388818F7D8883E0
:1053A00019BC10928C021092880210928A021092FC
:1053B000890200EE10E0F80180818B7F8083888174
:1053C0008160888342E060E080E00E941D29E1EE78
:1053D000F0E080818E7F8083E2EEF0E0808181606A
:1053E0008083808188608083F80180818E7F8083C4
:1053F000888180618883DF91CF911F910F910895FB
:10540000E8EDF0E080818F7E8083E7EDF0E0808141
:105410008160808384E082BF81E080938B020C9462
:10542000BD29E8EDF0E080818E7F80831092E2005C
:1054300008951092DA001092E10008951F920F92E1
:105440000FB60F9211242F933F934F935F936F9357
:105450007F938F939F93AF93BF93EF93FF9380912D
:10546000E10082FF0BC08091E20082FF07C08091C3
:10547000E1008B7F8093E1000E948E2C8091DA0006
:1054800080FF1FC08091D80080FF1BC08091DA0090
:105490008E7F8093DA008091D90080FF0DC080E17B
:1054A00089BD82E189BD09B400FEFDCF81E0809312
:1054B0008C020E94692605C019BC10928C020E94C1
:1054C00077268091E10080FF19C08091E20080FF83
:1054D00015C08091E2008E7F8093E2008091E2000F
:1054E00080618093E2008091D80080628093D80030
:1054F00019BC85E080938C020E947B268091E1009C
:1055000084FF30C08091E20084FF2CC080E189BD1F
:1055100082E189BD09B400FEFDCF8091D8008F7D66
:105520008093D8008091E1008F7E8093E10080918C
:10553000E2008F7E8093E2008091E20081608093A0
:10554000E20080918802882311F084E007C08091F6
:10555000E30087FD02C081E001C083E080938C02FC
:105560000E947C268091E10083FF29C08091E200A7
:1055700083FF25C08091E100877F8093E10082E076
:1055800080938C02109288028091E1008E7F80933C
:10559000E1008091E2008E7F8093E2008091E20042
:1055A00080618093E20042E060E080E00E941D297B
:1055B0008091F00088608093F0000E947A26FF912D
:1055C000EF91BF91AF919F918F917F916F915F917B
:1055D0004F913F912F910F900FBE0F901F901895F4
:1055E0001F920F920FB60F9211242F933F934F9358
:1055F0005F936F937F938F939F93AF93BF93CF935B
:10560000DF93EF93FF93C091E900CF708091EC009E
:10561000D82FD17080FDD0E81092E9008091F00081
:10562000877F8093F00078940E94342B1092E900D9
:105630008091F00088608093F000CD2BCF70C093F4
:10564000E900FF91EF91DF91CF91BF91AF919F91D1
:105650008F917F916F915F914F913F912F910F901B
:105660000FBE0F901F9018951F93CF93DF93CDB768
:10567000DEB7AA970FB6F894DEBF0FBECDBFEDE838
:10568000F2E088E08E0F9091F10091938E13FBCFA2
:105690000E9488268091E80083FF28C180918D02B6
:1056A00090918E02492F50E04A30510508F01EC1FA
:1056B000FA01E953FF4F0C94E02C803821F0823836
:1056C00009F014C108C08091890290918A0299233F
:1056D00089F082600FC0809191028F70873008F04E
:1056E00005C18093E9008091EB0085FB882780F954
:1056F0001092E9009091E800977F9093E8008093E2
:10570000F1001092F100D0C0282F2D7F09F0EEC0DB
:10571000882319F0823061F0E9C080918F028130D6
:1057200009F0E4C0933009F080E080938A022EC033
:1057300080918F0281112AC0809191028F702FEF8A
:10574000280F263008F0D2C08093E9002091EB00AA
:1057500020FF1CC0933021F48091EB00806214C0C4
:105760009091EB0090619093EB0021E030E0A90173
:1057700002C0440F551F8A95E2F74093EA00109249
:10578000EA008091EB0088608093EB001092E900C2
:105790008091E800877F8093E8000E945229A6C08C
:1057A0008111A4C010918F021F778091E30080784F
:1057B000812B8093E3008091E800877F8093E8004D
:1057C0000E9452298091E80080FFFCCF8091E30085
:1057D00080688093E300111102C082E001C083E081
:1057E00080938C0283C08058823008F07FC0809103
:1057F0008F02909190028C3D53E0950779F583E0FC
:105800008A838AE289834FB7F894DE01139620E0F9
:105810003EE051E2E32FF0E050935700E49120FF87
:1058200003C0E295EF703F5FEF708E2F90E0EA309B
:1058300010F0C79601C0C0968D939D932F5F2431C1
:1058400049F74FBF8091E800877F8093E8006AE2C4
:1058500070E0CE0101960E94592815C06091910216
:1058600070919202AE014F5F5F4F0E948627BC018C
:10587000892BE1F19091E800977F9093E80089816E
:105880009A810E94BC288091E8008B778093E80081
:105890002DC0803859F58091E800877F8093E8001B
:1058A000809188028093F1008091E8008E7773CF19
:1058B00081111CC090918F029230C0F48091E80059
:1058C000877F8093E800909388020E9452298091FC
:1058D0008802811106C08091E30087FD02C081E04B
:1058E00001C084E080938C020E947E268091E800B3
:1058F00083FF0AC08091E800877F8093E800809151
:10590000EB0080628093EB00AA960FB6F894DEBF9E
:105910000FBECDBFDF91CF911F9108950895CF9312
:1059200080918C028823A1F0C091E900CF70909102
:10593000EC00892F817090FD80E8C82B1092E9005F
:105940008091E80083FD0E94342BCF70C093E90062
:10595000CF91089587FB082E062687FD819567FD68
:1059600061950E94E62C0EF4919507FC81950895AF
:10597000AA1BBB1B51E107C0AA1FBB1FA617B70775
:1059800010F0A61BB70B881F991F5A95A9F7809591
:105990009095BC01CD01089597FB072E16F4009455
:1059A00007D077FD09D00E94B82C07FC05D03EF443
:1059B000909581959F4F0895709561957F4F0895BB
:1059C000EE0FFF1F0590F491E02D0994991B79E0EB
:1059D00004C0991F961708F0961B881F7A95C9F77F
:1059E00080950895FC014150504030F0019006161A
:1059F000D1F73197CF010895882799270895F9990C
:105A0000FECF92BD81BDF89A992780B50895A6E191
:105A1000B0E044E050E00C94392DA8E1B0E042E061
:105A200050E00C94392D262FF999FECF92BD81BDFF
:105A3000F89A019700B4021639F01FBA20BD0FB6CC
:105A4000F894FA9AF99A0FBE08950396272F0E94A8
:105A5000142D0E94132D252F0E94142D242F0C94F9
:105A6000142D0196272F0E94142D0C94132DDC0168
:105A7000CB01FC01F999FECF06C0F2BDE1BDF89A59
:105A8000319600B40D9241505040B8F70895F89403
:025A9000FFCF46
:105A9200010206060601191A1B1C1D1E1F202122C7
:105AA20015022808140A321E83252226F725C1254D
:105AB200862501F0F1C667663694313735349796FC
:105AC200333090919293950001020202020606067B
:105AD2000909090909090F0F0F0F0F0F15151518DD
