:100000000C94CC050C9413060C9413060C94130654
:100010000C9413060C9413060C9413060C941306FC
:100020000C9413060C9413060C94922A0C94642BD3
:100030000C94D51F0C9413060C9413060C94130601
:100040000C9413060C9413060C9413060C941306CC
:100050000C9413060C943D200C9413060C94130678
:100060000C9413060C9413060C9413060C941306AC
:100070000C9413060C9413060C9413060C9413069C
:100080000C9413060C9413060C9413060C9413068C
:100090000C9413060C9413060C9413060C9413067C
:1000A0000C9413060C9413060C9413060110041000
:1000B0000C10111016101B10201025102A102F10D4
:1000C000341039103B103E104110441047104A10B4
:1000D0004C1051106C156C159E159E15EB150B16DA
:1000E0006B176B174D16EA16FB16FB165B176B1793
:1000F0006B176417ED17ED17FF17FF17F617FF17AC
:10010000FF17FF17ED17ED17FB17FF17FF17FB176B
:100110000F2505251D2576257D257D2576257D2523
:100120007D253E257D25482552257D257D257D255E
:100130007D2576257D257D2576257D252B257D250F
:100140007D2562256225622562256225622562255C
:100150006225622578257D250F2502257D257D25B3
:100160007D257D257D257D257D257D257D257D257F
:1001700078257D257D2576257D25602560256025D2
:100180006025602560256025602560257825D12BB8
:10019000F82BEA2CF82BEA2C442C672CEA2CBD2CEB
:1001A000CC2C35481E001F0020002100220000003A
:1001B00029000153230024002500260027002E00DB
:1001C0002B0014001A000800150017004B004C000B
:1001D0004E001C0018000C00120013002D002A0015
:1001E00004001600070009000A004A0052004D00F2
:1001F0000B000D000E000F0033003400E1001D491C
:100200001B00060019000500500051004F001100AE
:1002100010003600370038003100E000000F000702
:10022000E200E300E1000451E3000A512C442800FD
:10023000590F5A0F5B0F5C0F010001000100010014
:100240000100010000530100025301000100010000
:100250000100010001000100010001000100010096
:100260000100010001000100010001000100010086
:100270000100010001000100010001000100010076
:100280000100010001000100010001000100010066
:100290000100010001000100010001000100010056
:1002A0000100010001000100010001000100010046
:1002B0000100010001000100E00001000100010057
:1002C0000100010001000100010001000100010026
:1002D000010001000100010001000153010003536E
:1002E0000100010001000100010001000100010006
:1002F000070015001A0005000100010001000D00B3
:100300000900180013003300010001000100010082
:100310000B00170001000100010001001C0011008A
:10032000080012000C000100010001000100100093
:10033000060019000100010001000E000F0001007D
:100340000100010001000100010001000100E300C3
:100350000100010001000100010001000100010095
:100360000100010001000100010001000100010085
:100370000253010000000100010001000100010022
:100380000100010001000100010001000100010065
:100390000100010001000100010001000100010055
:1003A0000100010001000100010001000100010045
:1003B0000100010001000100010001000100010035
:1003C0000100010001000100010001000100010025
:1003D0000100010001000100010001000100010015
:1003E00001000100E0000100010001000100010026
:1003F00001000100010001000100000000000000F8
:100400000000000000000000010000000000530098
:10041000540055005700000001001E021F022F0269
:100420003002310200000000000000005F006000A8
:10043000610056000000010020022102260227026E
:10044000310000000000000000005C005D005E0064
:100450002E0000000100220223022F00300035028E
:10046000000000000000000059005A005B00580026
:100470000000010001000100010001000100010075
:1004800001000100010062006200630058000000EA
:100490000100010001000100010001000100010054
:1004A0000100010001000100010001000100010044
:1004B0000100010001000100010001000100010034
:1004C0000100010001000100010001000100010024
:1004D0000100010001000100010001000100010014
:1004E0000100010001000100010001000100010004
:1004F00001000100010001000100010001000100F4
:1005000001000100010001000100010001000100E3
:1005100001000100010001000100010001000100D3
:1005200001000100010001000100010001000100C3
:1005300001000100010001000100010001000100B3
:1005400001000100010001000100010001000100A3
:100550000100010001000100010001000100010093
:100560000100010001000100010001000100010083
:100570000100010001000100010001000100010073
:100580000100010001000100010001000100010063
:100590000100010001000100010001000100010053
:1005A0000100010001000100010001000100010043
:1005B0000100010001000100010001000100010033
:1005C0000100010001000100010001000100010023
:1005D0000100010001000100010001000100010013
:1005E0000100010001000100010001000100010003
:1005F00001000100010001000100010001000100F3
:1006000001000100010001000100010001000100E2
:1006100001000100010001000100010001000100D2
:1006200001000100010001000100010001000100C2
:1006300001000100010001000100010001000100B2
:1006400001000100010001000100010001000100A2
:100650000100000000000000000000000000000099
:100660000100000000000000000000000000005C2D
:100670000100000000000000000000000000010078
:100680000000C35CCB5CC55CC75CC95C145C01004A
:10069000000000000000000000000000000000005A
:1006A000C45CCC5CC65CC85CCA5C00000100000095
:1006B000000000000000000000000000000000003A
:1006C0000000000000000000000001000100010027
:1006D0000100010001000100010001000100010012
:1006E00001000100C25CBF5C00003A003B003C001E
:1006F0003D003E000000010000003F0040004100BE
:100700004200430000000100440045006800690009
:100710006A000000010000006B006C006D006E00BC
:100720006F00000001000000AC00AE00AB00000054
:1007300000000000000000007000710072007300F3
:10074000000001000100AA00A800A90000000000AC
:100750000000000000000000000000000000000099
:100760000100010001000100010001000100010081
:100770000100010001000100010001000100000072
:100780000000000000000000000000000100000068
:100790000000000000000000000000000100000058
:1007A000F000F400F500000000000100000000006F
:1007B0004A0052004D00000000000100F200F1006C
:1007C000F3000000000000000000000000005000E6
:1007D00051004F0000000000010000000000000078
:1007E0000000000000000000000000004B000000BE
:1007F0004E000000000001000100010001000100A6
:1008000001000100010001000100010001000100E0
:100810000100010000047F3F1F6432146432147829
:100820003C1E1E140A052223252628292A2C2D2F9A
:100830003032333536383A3B3D3E404243454749F6
:100840004A4C4E5051535557595A5C5E606264662B
:1008500068696B6D6F71737577797B7D7F81838537
:1008600087898A8C8E90929496989A9C9E9FA1A339
:10087000A5A7A8AAACAEAFB1B3B4B6B8B9BBBCBE5D
:10088000BFC1C2C3C5C6C7C9CACBCCCDCED0D1D2D9
:10089000D2D3D4D5D6D7D7D8D9D9DADADBDBDBDCDB
:1008A000DCDCDCDCDDDDDDDDDCDCDCDCDCDBDBDB87
:1008B000DADAD9D9D8D7D7D6D5D4D3D2D2D1D0CEE7
:1008C000CDCCCBCAC9C7C6C5C3C2C1BFBEBCBBB9EC
:1008D000B8B6B4B3B1AFAEACAAA8A7A5A3A19F9E6A
:1008E0009C9A98969492908E8C8A89878583817F32
:1008F0007D7B79777573716F6D6B69686664626013
:100900005E5C5A5957555351504E4C4A49474543DE
:1009100042403E3D3B3A3836353332302F2D2C2A7B
:10092000292826252322FFAA7F5540000101010125
:10093000010101010102020202020202020203039A
:10094000030303030303040404040404040505056A
:10095000050506060606060707070707080808082C
:10096000090909090A0A0A0B0B0B0C0C0C0D0D0DD9
:100970000E0E0E0F0F0F101011111112121313146F
:1009800014151516161717181819191A1A1B1B1CE7
:100990001D1D1E1E1F202021222223242425262641
:1009A000272829292A2B2C2D2D2E2F303132323376
:1009B0003435363738393A3B3C3D3E3F404142437F
:1009C0004445464748494A4C4D4E4F505153545563
:1009D0005658595A5B5D5E5F616264656668696B13
:1009E0006C6D6F7072737577787A7B7D7E80828391
:1009F0008587888A8C8E8F91939596989A9C9EA0D5
:100A0000A2A3A5A7A9ABADAFB1B3B5B7BABCBEC0E1
:100A1000C2C4C6C9CBCDCFD1D4D6D8DBDDDFE2E4AA
:100A2000E7E9EBEEF0F3F5F8FAFDFF040330000020
:100A3000000A03580044003700350000000C03781A
:100A400000690075006400690000000403090409DE
:100A5000023B00020100A0FA0904000001030101A9
:100A6000000921110100012240000705810308004F
:100A70000A0904010001030000000921110100011D
:100A800022BC000705820320000A120110010000A9
:100A90000008CDCD757501000102030105010902B1
:100AA000A10185020901A100050919012905150007
:100AB00025019505750181029501750381010501E7
:100AC000093009311581257F95027508810609389D
:100AD0001581257F950175088106050C0A380215D8
:100AE00081257F950175088106C0C005010980A197
:100AF00001850319012AB700150126B70095017574
:100B0000108100C0050C0901A101850419012AA06A
:100B100002150126A002950175108100C00501098A
:100B200006A1018505050719E029E71500250195AE
:100B300008750181020507190029EF1500250195A7
:100B4000F0750181020508190129059505750191C6
:100B500002950175039101C005010906A101050770
:100B600019E029E715002501950875018102950115
:100B7000750881010507190029FF150026FF00955A
:100B8000067508810005081901290595057501916B
:100B900002950175039101C011241FBECFEFDAE069
:100BA000DEBFCDBF04B603FE27C08091F70290914F
:100BB000F802A091F902B091FA028730904BA74059
:100BC000B04BD1F41092F7021092F8021092F90291
:100BD0001092FA0214BE84B7877F84BF0FB6F894D0
:100BE000A8958091600088618093600010926000F9
:100BF0000FBEE0E0F8E3099511E0A0E0B1E0EAE71C
:100C0000FBE502C005900D92A83CB107D9F722E0A0
:100C1000A8ECB1E001C01D92A73FB207E1F70E9426
:100C2000BB270C94BB2D0C9400000C94E8080C948A
:100C30003B060C947F062A9A0895229A0C941B0670
:100C40008F9A0895879A0C9420068C980895849A18
:100C50000C9425068D9A0895859A0C942A060E9474
:100C60001D060E9422060E9427060E942C060C9454
:100C7000E70881E0089581E008951F93CF93DF9303
:100C800000D000D01F92CDB7DEB749835A832091A0
:100C9000EE0189819A81211112C0662349F00E94D8
:100CA000121D182F682F89819A810E94B71C03C0DA
:100CB0000E94E61C182F69817A81812F04C00E944E
:100CC000121D69817A810F900F900F900F900F90F5
:100CD000DF91CF911F910C94E306FC01408151817B
:100CE0006281738184810C943D060E94421E8111B1
:100CF00002C00E94EC1E0C942F060C941506089559
:100D000081E008950C948006CF93C82F0E941906A5
:100D10008C2F0E948206CF91089508950E94DD17BE
:100D20000E948D062FEF84E39CE02150804090408C
:100D3000E1F700C000000C9463200F931F93CF9342
:100D4000DF93EC010E946D068C01BE010E94170624
:100D5000882379F1BE01C8010E94FD10882349F162
:100D6000BE01C8010E943E11882319F1BE01C801CD
:100D70000E9469128823E9F0BE01C8010E94EA0FAF
:100D80008823B9F08A81882369F001158CE518075A
:100D900031F00E3D1C4531F40E94EC1E0AC00E9449
:100DA0008E0607C0CE01DF91CF911F910F910C9459
:100DB000390680E0DF91CF911F910F91089580E077
:100DC00090E0089508959FE0799FF00111249BE43D
:100DD000899FE00DF11D1124E60FF11DEE0FFF1F9D
:100DE000EE55FE4F859194910895880F991FFC014F
:100DF000EC5EF74F859194910895CF93DF930E9415
:100E0000E3060E941008EC01811520E59207F0F539
:100E1000811530E4930708F0CDC0883E910500F5B8
:100E2000803E910508F0F8C0883A910570F4853A43
:100E3000910508F09FC08130910509F4EDC008F4D8
:100E4000E9C0049708F0E8C0E5C08F3B910508F4BD
:100E500099C0803C910508F4DDC0805C91099DC07B
:100E6000811540E2940758F4C11581E0D80708F0D5
:100E7000D3C0C03FD10508F4CDC0D065CDC0811529
:100E800020E3920708F08DC09F7087C0811535E57B
:100E9000930708F044C0811544E5940708F0A1C009
:100EA000C11582E5D80708F5C11521E5D20708F07C
:100EB00084C08C2F837021E030E002C0220F331FEA
:100EC0008A95E2F73C68CE0174E0969587957A950D
:100ED000E1F78370382BCF70C695C69580E2C89F26
:100EE000E0011124C22BD32B97C02C2F26952695D9
:100EF000CE0183709927C115D34508F063C040E245
:100F0000249F90011124C1E0D0E002C0CC0FDD1F6E
:100F10008A95E2F72C2B3D2BE901DC687DC0811519
:100F200049E59407A0F4C11588E5D80708F05EC02C
:100F3000C11526E5D20708F06DC08C2F0E94A408C9
:100F40008F71C82FD0E0DC2FCC27D06265C081150F
:100F50003AE5930708F44FC090568115904208F087
:100F600059C08D2F8F710E94A408DD27D0628F7128
:100F7000D82B52C0C55AD0E0CF5ADE4FC881D0E03E
:100F8000D0644AC0C85AD0E0CC0FDD1FCD5DDE4F23
:100F90000990D881C02DD4643FC00E94F506EC01B1
:100FA0003BC09927D3FF03C0EC01D86C35C0EC01DE
:100FB000D06C32C0DF70D06A2FC0DC2FCC27C16F5D
:100FC000D06A2AC040E2249F90011124C1E0D0E001
:100FD00002C0CC0FDD1F8A95E2F7C22BD32BDA6853
:100FE0001BC0D82FCC27C46FD06A16C0DC2FCC27EB
:100FF000C06FD06A11C08F700E94A40894E0D6958B
:10100000C7959A95E1F7CF70D0E0DC2FCC27D06957
:10101000C82B02C0C0E0D0E0CE01DF91CF9108958F
:101020008238910569F1B0F48133910509F46DC0FE
:1010300048F48932910509F463C08A32910509F4B4
:1010400069C008958533910509F455C08933910528
:10105000B9F00895833E910569F138F4803E910519
:10106000B1F0823E910509F10895863E9105A9F1FE
:10107000873E9105B9F1843E910509F064C023C013
:101080002091E80220FD4FC021FD4DC008958091C0
:10109000E80280FD44C08091E90280FF44C0809155
:1010A000E80284FD42C083EE4DC08091E80282FFD9
:1010B00038C0F5CF8091E80282FD33C08091E9020B
:1010C00080FD31C0ECCF8091E90281FF32C0809178
:1010D000E80284FD2AC087EE35C08091E80283FFD4
:1010E00026C0F5CF8091E80283FD21C08091E902FE
:1010F00081FD1FC0ECCF8091E80285FD1CC01DC0A2
:101100008091E80285FD19C016C08091E80286FD35
:1011100016C017C08091E80286FD13C010C089E395
:1011200011C082EE0FC080EE0DC080E00BC086EED5
:1011300009C084EE07C089E205C085E303C08AE2E6
:1011400001C081E390E008959091E80292FF0DC004
:10115000282F2871283019F4877F846006C0282F33
:101160002471243011F48B7F886093FF0DC0282FE9
:101170002871283119F4877E846106C0282F2471D4
:10118000243111F48B7E88612091E90220FF0DC08B
:10119000382F3871383019F4877F816006C0382FB6
:1011A0003171313011F48E7F886021FF0DC0282FFE
:1011B0002871283119F4877E816106C0282F21719A
:1011C000213111F48E7E886194FD877E0895089503
:1011D0000895E82FF0E0EE0FFF1FEF53FD4F8081E1
:1011E00091810895089580EA8A95F1F70895A3E61C
:1011F000B1E041E050E025E02A0F8D91E82FE29523
:10120000EF70F0E031A18F70BA0102C0660F771F56
:101210008A95E2F7CB01962F9095932391A392A103
:10122000892B82A32A13E9CFA4E5B1E041E050E085
:101230002FE02A0F8D91E82FE295EF70F0E031A1B9
:101240008F70BA0102C0660F771F8A95E2F7CB0153
:10125000962F9095932391A392A1892B82A32A1371
:10126000E9CFE7EBF2E0A1ECB2E0119211921D920E
:101270001D9272E0E13CF707C1F785E00E94D709B3
:101280000C9475064F925F926F927F928F929F920D
:10129000AF92BF92CF92DF92EF92FF920F931F9384
:1012A000CF93DF9383E6A82E81E0B82E07EB12E000
:1012B000D12C88248394912C3801D8014D905C90D6
:1012C00011971D921C92F50181915F01C82FC29563
:1012D000CF70D0E099A18F70740101C0EE0C8A9597
:1012E000EAF7892F8E2989A38AA1CE2CC0948C215C
:1012F0008AA30E94F308E4E5F1E080E090E06191C8
:10130000A62FA295AF70B0E090964C91D8012D9188
:101310003C9150E06F7002C0559547956A95E2F791
:1013200040FD08C0A401082E02C0440F551F0A94B6
:10133000E2F702C040E050E0242B352BD8012D937A
:101340003C9301968F309105D1F689A1C822C9A29C
:101350008AA1E82AEAA20E5F1F4F81E0F3012081F3
:1013600031814216530609F480E0D82AF2E0013CAC
:101370001F0709F0A1CF2D2D45E061EC72E087EB4E
:1013800092E00E94D8090E947D068D2DDF91CF91B9
:101390001F910F91FF90EF90DF90CF90BF90AF9093
:1013A0009F908F907F906F905F904F9008950895D9
:1013B000FF920F931F93CF93DF93F82E092F162FD1
:1013C000D72FC42F222349F081E08093CA010E94C5
:1013D00007209093C9018093C8018091CA01882396
:1013E000D9F08091C8019091C9010E9413200697FD
:1013F00098F0EF2DF02FA12FBD2F80E090E04C2F23
:1014000050E08417950734F4219131912D933D9349
:101410000196F7CF1092CA01DF91CF911F910F91E2
:10142000FF900895AF92BF92CF92DF92FF920F93F9
:101430001F93CF93DF93D62E372FE82FF0E0711153
:1014400006C0E55DF64F6491762F862F75C0C72FD5
:10145000D0E0E55DF64F2491F22E022F10E046E039
:10146000649FC0011124EFEFF0E0BF010E942C2D1A
:10147000AB016BEA6403C001659F900D11248D0DD3
:10148000911D8D0D911D982F990F890FDF01AC1BB8
:10149000BD0B0A9FB0010B9F700D1A9F700D112498
:1014A000972F839FD0011124AB2FBB276F01CA1A3E
:1014B000DB0A0C9DD0010D9DB00D1C9DB00D1124BB
:1014C0005F01A81AB108AC9E6001AD9ED00CBC9E15
:1014D000D00C1124CD2DDD27EC1BFD0B0E9FE00160
:1014E0000F9FD00D1E9FD00D1124ED2F42305105BE
:1014F00091F04CF441155105E1F041305105B9F43A
:10150000E22F2B2F16C04430510569F044F04630CD
:10151000510579F00CC0E22F272F9D2F0AC0272FED
:101520009F2DEB2F06C0E72F922F2D2F02C0E72F04
:101530009B2F6E2F722F892FDF91CF911F910F91CB
:10154000FF90DF90CF90BF90AF9008950895CF9314
:10155000DF93762FE901682F842F0E94120A798386
:1015600068838A83DF91CF9108958091CB02282FE1
:10157000269530E02115310519F48170826005C08F
:101580002532310524F0817088648093CB02089560
:1015900088E090E00C947B2DCF93DF9300D000D0B7
:1015A000CDB7DEB7AB01BC0149835A836B837C8323
:1015B0000E94B50A49815A816B817C8188E090E064
:1015C0000F900F900F900F90DF91CF910C94992D69
:1015D000EBECF2E083E0808311828FEF82838383E0
:1015E000148260817181828193810C94CC0A8091F4
:1015F000CB0280FF02C08695089580E00895809117
:10160000CF02833018F48F5F8093CF026091CB02BA
:101610007091CC028091CD029091CE020C94CC0AB4
:101620008091CF02882319F081508093CF0260917E
:10163000CB027091CC028091CD029091CE020C949D
:10164000CC0A6091040170E08091CB0280FF0AC057
:101650008091CF0123E0829FC001112480539D4FD0
:101660000C948D108091CE0190910301891780F721
:10167000E82FF0E09F01220F331FE20FF31FE0532A
:10168000FD4F1182108212828F5FF0CF9091CB02BA
:1016900090FF16C09091CE0120910301921770F433
:1016A000E92FF0E0DF01AA0FBB1FEA0FFB1FE05399
:1016B000FD4F8183608342839F5FF0CF0C94210BA9
:1016C0000895CF93DF9300D01F92CDB7DEB79091EE
:1016D000CB0290FF0AC09E012F5F3F4F0E94A70AD6
:1016E0004B8169818A810E94460B0F900F900F9069
:1016F000DF91CF910895CF93DF93EC01EC81F0E07F
:10170000EA5DF74F4491EBECF2E0628181810E9447
:10171000610B8C818F5F8C83DF91CF910895CF9384
:10172000DF93EC01EBECF2E0438162818C810E945B
:10173000610B8C818F5F8C83DF91CF9108950F9324
:101740001F93CF93DF9300D01F92CDB7DEB78C01EC
:101750008091CB0181110AC09E012F5F3F4F4FEF57
:101760006FEF0E94A70A8A818093CB01F8018481E0
:10177000813051F028F0823061F44091CB010AC0F1
:101780008091CB0140E007C06091CB0140E080E058
:1017900003C040E080E060E00E94460BF801248135
:1017A00030E0C901019663E070E00E94402D84831F
:1017B0000F900F900F90DF91CF911F910F9108958F
:1017C000AF92BF92CF92DF92EF92FF920F931F934F
:1017D000CF93DF9300D01F92CDB7DEB7182FF62E30
:1017E000042FE22E9091CB0290FF6EC0E92FE69578
:1017F000AE2FB0E0A859BE4F8C918093D7019E7F49
:10180000923061F49E012F5F3F4F812F0E94A70A03
:101810004B8169818A810E94460B44C0823019F451
:101820000091CE023FC0863019F41091CC023AC02C
:101830008930D9F38931B1F5E9518E2F8170D82ED5
:10184000E695F0E0EA5DF64FA590B490C12CBB247C
:1018500060910201C61620F5EC2DF0E0EA9DC00172
:10186000EB9D900DFA9D900D112470E00E942C2D9F
:10187000812FD11002C0860F01C0861B9091CE012E
:10188000E90FF11D9F01220F331FE20FF31F9F018C
:1018900020533D4F402F6F2D0E94A70AC394D8CFED
:1018A0000E94210B1093CC02F092CD020093CE0245
:1018B000EE2051F06091CB027091CC028091CD026C
:1018C0009091CE020E94CC0A0F900F900F90DF9162
:1018D000CF911F910F91FF90EF90DF90CF90BF902D
:1018E000AF900895EBECF2E09181282F4381628163
:1018F0008CE0890F0C94E00B81E00C94720CEBEC03
:10190000F2E09181282F4381628184EF890F0C944A
:10191000E00B81E00C947F0CEBECF2E0628129E1BA
:10192000620F08F46FEF282F438181810C94E00B44
:1019300081E00C948C0CEBECF2E0628129E1621BFB
:1019400008F460E0282F438181810C94E00B81E052
:101950000C949B0CEBECF2E043812CE0420F08F47A
:101960004FEF282F628181810C94E00B81E00C9471
:10197000AA0CEBECF2E043812CE0421B08F440E0BF
:10198000282F628181810C94E00B81E00C94B90CCA
:1019900020E00C94E00BFF920F931F93CF93DF9303
:1019A000EC01F12C0FEF10E060910201F616E8F463
:1019B0002091CE0130E02F0D311DC901880F991FF4
:1019C000280F391F20533D4F70E0C8010E94402D61
:1019D000962F8C814091CE026091CD02F99E800DB0
:1019E00011240E94A70AF394DFCF0E94210B9A8151
:1019F0008C8190FF02C08F5F01C081508C83DF918A
:101A0000CF911F910F91FF900895AF92BF92CF9207
:101A1000DF92EF92FF920F931F93CF93DF93FC011E
:101A2000828180FF02C00FEF01C001E010E046E0BC
:101A3000A42E80910201181708F043C0C12ED12CAA
:101A40008091CE01E601C80FD11DCE01880F991FEC
:101A5000C80FD91FC053DD4F198218821A8234E093
:101A6000E32EF12CB12C8091CD018B0D87302CF021
:101A70006A2D0E941E2D892F05C087FF03C09091FB
:101A80000201890F082E000C990BC816D90691F493
:101A90008091CE028E9DA0018F9D500D11245595F1
:101AA0004795559547959E016091CD028091CC0256
:101AB0000E94A70AB00EF1E0EF1AF108A1F61F5F2D
:101AC000B8CF0E94210B8091CD01013031F48111FA
:101AD00002C080910201815007C090E001966091A0
:101AE000020170E00E94402D8093CD01DF91CF91E3
:101AF0001F910F91FF90EF90DF90CF90BF90AF902C
:101B00000895CF938091CE0190910301891770F4CD
:101B1000E82FF0E09F01220F331FE20FF31FE05385
:101B2000FD4F1182108212828F5FF0CFC0E0609172
:101B30000201C617B8F5EC2FF0E070E0CF010E946B
:101B4000402D4091CE01480F8091CC01082E000C11
:101B5000990B50E0E817F907C4F020910101022E1B
:101B6000000C330B2E173F0784F09A01220F331F0E
:101B7000240F351F20533D4F4091CE026091CD027E
:101B80008091CC020E94A70A0BC0FA01EE0FFF1F42
:101B90004E0F5F1FFA01E053FD4F11821082128237
:101BA000CF5FC5CF0E94210B209100018091CC0115
:101BB000820F8093CC0190910101920F90930101CB
:101BC00019165CF4082E000C990B4091020150E0AC
:101BD00041505109841795071CF02195209300016D
:101BE000CF9108950F931F93CF93DF938C01FC0146
:101BF0008481958101968170992795838483C0E0C3
:101C0000D5E580910201C817F8F42091CE0130E0AB
:101C10002C0F311DC901880F991F280F391F205320
:101C20003D4F4C2F4695F80184819581840F911D7D
:101C300081704091CE026091CD028D9F802D112444
:101C40000E94A70ACF5FDDCFDF91CF911F910F9147
:101C50000C94210B0F931F93CF93DF93EC0100E0C3
:101C600010E080910201282F30E00217130724F5BD
:101C70009091CE019801290F311DA901440F551FE4
:101C8000240F351F20533D4F869590E04C81081757
:101C900019071CF4442331F002C0411103C04091E4
:101CA000CE0201C040E06091CD028091CC020E9442
:101CB000A70A0F5F1F4FD5CF0E94210B2C8130E068
:101CC0002F5F3F4F217033272C83DF91CF911F91DE
:101CD0000F910895EBECF2E080818E7F808360812C
:101CE0007181828193810E94CC0A1092D8012FEFDA
:101CF00080E792E0215080409040E1F700C0000072
:101D00000C94210B6091CB02669570E04BE050E0A3
:101D100085E091E00E94662D892B19F481E0809383
:101D2000D8010E9407209093D1018093D00108959B
:101D30009091CB0290FF35C09170811102C09260EA
:101D400006C0853210F0986402C0880F982B9093DB
:101D5000CB02662351F06091CB027091CC0280914E
:101D6000CD029091CE020E94CC0A6091CB02669582
:101D700070E04BE050E085E091E00E94662D892BF9
:101D800019F01092D80102C00E94820E81E0809367
:101D9000D3014091CE026091CD028091CC020C948F
:101DA000C80C0895682F9091CB02969581E0890F19
:101DB000853208F081E00C94980E81E00C94D20EEC
:101DC000682F9091CB0296958FEF890F09F484E2EA
:101DD0000C94980E81E00C94E00E61E00C94980E47
:101DE000EBECF2E080818160808386950C94ED0EAF
:101DF0008091CB0280FD0C946A0E0C94F00E60E092
:101E00000C94980E8091D60181112EC00E94421E22
:101E1000811104C00E94EC1E0E94E80A0E94C80AB8
:101E20006093CB027093CC028093CD029093CE024C
:101E30006E7F61F40E94E80A0E94C80A6093CB0298
:101E40007093CC028093CD029093CE020E94B50A8B
:101E50001092D8018091CB0280FF03C086950E942A
:101E6000FF0E81E08093D60108950F931F93CF93C7
:101E7000DF938091D801882309F48CC08091D70129
:101E8000E091CB02E695E81BE093D201823049F461
:101E9000F0E0EE5DF74FE491CE2FD0E00BE71BE0D2
:101EA00049C0863049F4F0E0E15EF74FE491CE2F6F
:101EB000D0E00FE81BE03EC0893051F4E695F0E039
:101EC000E45EF74FE491CE2FD0E00BEC1CE032C083
:101ED0008F3051F4E695F0E0E75EF74FE491CE2FB6
:101EE000D0E005E01DE026C0853149F4F0E0EA5E6F
:101EF000F74FE491CE2FD0E001E81DE01BC0883100
:101F000081F0833239F4E4E1F8E0C591D4910FE92E
:101F10001BE010C0843251F4C4EFD1E00AE21EE0AD
:101F200009C0C8EED3E002EF1DE004C0C0EDD7E069
:101F300006EA1AE08091D301882389F01092D30138
:101F40000E9407209E0120953095820F931F909349
:101F5000D1018093D0011092D5011092D4018091CB
:101F6000D0019091D1010E9413208C179D0790F011
:101F7000E091D001F091D101CE0FDF1FD093D101BC
:101F8000C093D00180ED91E0F801DF91CF911F91D6
:101F90000F910994DF91CF911F910F91089588239C
:101FA00011F0FA0101C0FB010994CF93DF93C82F10
:101FB000D62F0E94F70A8C1740F00E94F70A8D175F
:101FC00020F4DF91CF910C94DD0E8C2FDF91CF9117
:101FD0000C94ED0E0F931F93CF93FB01C281CC2382
:101FE00009F463C08C010E94921D8272F801E25CC8
:101FF000FC45E431F10508F059C0EA5AFF4F0C9452
:10200000542D0E94F80E06C04AEE5EE06DED7EE0B3
:102010000E94CF0FC0E04AC04DED5EE06AEE7EE068
:10202000F7CF49E85CE06CE77CE0F2CF4CE75CE09E
:1020300069E87CE0EDCF47EA5CE068E97CE0E8CF66
:1020400048E95CE067EA7CE0E3CF45EC5CE066EB06
:102050007CE0DECF46EB5CE065EC7CE0D9CF40E194
:102060005BE06FEF7AE0D4CF4FEF5AE060E17BE0C6
:10207000CFCF81E017C065E082E010C068E086E065
:102080000DC06EE089E00AC064E18FE007C067E13F
:1020900085E104C088E106C062E289E10E94D50FB3
:1020A000B9CF83E20E94ED0EB5CFC1E08C2FCF9166
:1020B0001F910F91089521B3342F3095232331B30D
:1020C000432B3FB7F894FC01680F791FE617F70719
:1020D00089F0819198E041BB000000C087FF21BBDF
:1020E000880F000000C000C000C021BB00C09A954E
:1020F00091F7ECCF3FBF089520B3242B20BB9B0169
:10210000220F331F620F731F0E945B1087EC90E059
:102110000197F1F700C00000089540E40C947C1092
:102120000F931F93CF93DF93C62FD42F022FFC0161
:1021300082818823C9F06093DB010E94072090937D
:10214000DA018093D90180E28C0F883008F050C00A
:10215000C77081E001C0880FCA95EAF7DF91CF917F
:102160001F910F910C942C151091DB01161330C0A8
:102170008091D9019091DA010E941320883C910549
:1021800038F5C0E2CD0F1D17B9F080E2810F88301D
:1021900040F4177081E001C0880F1A95EAF70E9499
:1021A0003315C83048F481E09D2F977001C0880F27
:1021B0009A95EAF70E942C15802F0E941915C830B5
:1021C000B8F4D77081E001C0880FDA95EAF70AC049
:1021D00080E28C0F883060F4C77081E001C0880F06
:1021E000CA95EAF7DF91CF911F910F910C943315A7
:1021F000DF91CF911F910F9108959C01CB01233F57
:102200004CE53407F9F078F4283DFCE53F07B9F0D8
:10221000293D4CE5340711F1273D3C4531F526E2D7
:1022200041EE61EE1EC0253FFCE53F0799F070F0DE
:10223000263F3C45D1F427E245EE66EE12C027E288
:1022400045EE0EC026E241EE60EE0BC027E245EE01
:1022500064EE07C026E241EE62EE03C028E241E0F0
:1022600065EE0E94901080E00895FC018281882331
:1022700019F01092DB01089581E00895CF93DF9368
:10228000EC01FB018281882309F41FC1C230FCE507
:10229000DF0708F41BC1C6319CE5D90738F09E0161
:1022A0002A5F3C452930310508F010C10E945F1EAD
:1022B0009093E9028093E802C031ECE5DE0709F46F
:1022C000C3C008F041C0C8308CE5D80709F49AC0F3
:1022D000F0F4C430ECE5DE0709F487C068F4C230DE
:1022E0008CE5D80709F477C0C330DC4509F0E3C0BA
:1022F0008091E802826076C0C630ECE5DE0709F422
:102300006EC008F07BC08091E80288606BC0CC3062
:102310008CE5D80709F485C068F4CA30ECE5DE071F
:1023200009F474C008F079C00E94DD178091E802BA
:10233000806858C0CE308CE5D80709F476C008F024
:102340007FC08091E8028BC0CB3FECE5DE0709F44B
:102350004FC018F5C3318CE5D80709F47DC078F477
:10236000C131ECE5DE0709F473C0C231DC4509F088
:10237000A2C00E94DD178091E8028F7733C0C5317B
:102380008CE5D80709F472C008F486C0CA3FDC4562
:1023900009F091C08091E9023EC0CF3FFCE5DF0724
:1023A00009F45FC058F4CD3F9CE5D90709F444C057
:1023B00008F43FC08091E90282602DC0C130FDE584
:1023C000DF0709F475C008F45DC0C230DD4509F0CF
:1023D00072C080E06EC08091E802816003C080918D
:1023E000E80280618093E80266C08091E80211C033
:1023F0008091E90282608093E9025DC08091E802E9
:102400008062F0CF8091E8028064ECCF8091E80296
:1024100088608460E7CF8160EECF8091E8028E7F94
:10242000E1CF8091E8028D7FDDCF8091E802877F48
:10243000D9CF8091E90218C08091E9028D7FDBCF6E
:102440008091E8028F7ECECF8091E8028F7DCACF47
:102450008091E8028F7BC6CF8091E802877F8B7FD7
:10246000C1CF8091E9028D7F8E7FC5CF8091E80238
:1024700082FB222720F991E0922790FB82F990FBC2
:1024800083F9B0CF8091E902982F909591708E7F5B
:10249000892B90FB81F9AFCF0E94DD178091E80274
:1024A00087FB222720F991E0922790FB87F99ACFAA
:1024B00081E00E94EE1E8091E8029091E9020E9464
:1024C000701E0E94DD1780E001C081E0DF91CF9196
:1024D0000895CF93DF9386319C4541F5EB010E942F
:1024E000921D282F8A81409110015091110188235B
:1024F00079F02A7A91E009F490E09093DC0191114F
:1025000002C069E201C065E3CA010E94581F0AC007
:102510008091DC01811102C069E201C065E3CA015A
:102520000E94631F0E94DE1D80E001C081E0DF91F8
:10253000CF9108959093E2018093E1010895E09195
:10254000E101F091E201309721F00190F081E02D5E
:10255000099480E00895E091E101F091E201309763
:1025600099F020912201222359F02091E80227FFBF
:1025700007C0DC012C9111962C93119725E02C9328
:102580000280F381E02D09940895E091E101F0913A
:10259000E201309739F022E0DC012C930480F581D0
:1025A000E02D099408952091DF013091E001821718
:1025B000930771F09093E0018093DF01E091E101D6
:1025C000F091E201309721F00680F781E02D099427
:1025D00008952091DD013091DE018217930771F09B
:1025E0009093DE018093DD01E091E101F091E20141
:1025F000309721F00084F185E02D0994089585B786
:10260000806885BF85B7806885BF0895089508955F
:102610000C94071308950C940A130E94FF120E9451
:1026200006130C94081381E008950E94FE1F0E9477
:10263000F7080E94D3200E94020F0C940B137F9284
:102640008F929F92AF92BF92CF92DF92EF92FF92C2
:102650000F931F93CF93DF93CDB7DEB72A970FB6B3
:10266000F894DEBF0FBECDBF0E9442090E94131333
:10267000811111C08FEF89838A831B820E940720FA
:102680008160782F9D838C8349815A816B818D81F4
:102690000E94D1134FC034EE832E31E0932E00E020
:1026A00010E0702E802F0E94E9086C01F401A190C7
:1026B000B1904F01A826B926A114B10431F40F5FDF
:1026C0001F4F0530110569F7D5CF8091860281FD36
:1026D0000E94F20890E0EE24E394F12C97012A2165
:1026E0003B21232B09F19E837F82CE20DF2091E0C6
:1026F000CD2809F490E098870E9407208160782F08
:102700009A8789874E815F8168858A850E94D11367
:10271000000F111FF801EC51FE4F80819181E826D6
:10272000F926F182E08206C09F5FEE0CFF1C9F300D
:10273000A9F6C5CF0E94350F0E9487231091E301AF
:102740000E949F121817C9F00E949F128093E30104
:102750002A960FB6F894DEBF0FBECDBFDF91CF91A2
:102760001F910F91FF90EF90DF90CF90BF90AF90AF
:102770009F908F907F900C9484062A960FB6F894C1
:10278000DEBF0FBECDBFDF91CF911F910F91FF90A4
:10279000EF90DF90CF90BF90AF909F908F907F9001
:1027A0000895CF93DF93CDB7DEB72B970FB6F8948C
:1027B000DEBF0FBECDBF4F83588769877A878B876F
:1027C000DE01119686E0FD0111928A95E9F785E018
:1027D000FE01379601900D928A95E1F749815A8161
:1027E0006B817C818D819E810E94871A2B960FB60A
:1027F000F894DEBF0FBECDBFDF91CF910895FC01ED
:10280000808191810E94531D0895CF93DF931F9281
:10281000CDB7DEB7882309F4A0C0682F8238C1F491
:102820000E949F1281FD99C069E3809110019091EF
:1028300011010E94581F0E94DE1D2FEF81EE94E0CF
:10284000215080409040E1F700C0000069E319C0CA
:10285000833811F50E949F1280FD7FC063E580914F
:102860001001909111010E94581F0E94DE1D2FEF50
:1028700081EE94E0215080409040E1F700C00000DC
:1028800063E580911001909111010E94631F0F90E8
:10289000DF91CF910C94DE1D8438C1F40E949F1209
:1028A00082FD5BC067E480911001909111010E944C
:1028B000581F0E94DE1D2FEF81EE94E021508040D2
:1028C0009040E1F700C0000067E4DBCF8CEF860F9B
:1028D000813A70F4862F69830E9490256981811165
:1028E0003CC080911001909111010E94581FCFCFE0
:1028F00080E2860F883048F4677081E001C0880F5D
:102900006A95EAF70E94951DC2CFEBE5E60FE3302A
:1029100050F4F0E0E554FE4F808190E00F90DF919D
:10292000CF910C94D312E8E5E60FE73160F4F0E0C4
:10293000EE0FFF1FE357FE4F808191810F90DF91D3
:10294000CF910C94E912603F40F0862F0E948F22B5
:102950000F90DF91CF910C947C230F90DF91CF915A
:102960000895882309F464C0823879F40E949F1284
:1029700081FF5EC069E380911001909111010E9476
:10298000581F0E94DE1D69E310C08338B1F40E9415
:102990009F1280FF4DC063E580911001909111015D
:1029A0000E94581F0E94DE1D63E5809110019091E6
:1029B00011010E94631F0C94DE1D843879F40E947B
:1029C0009F1282FF35C067E4809110019091110140
:1029D0000E94581F0E94DE1D67E4E7CF9CEF980F0E
:1029E000913A10F4682FE1CF90E2980F983050F4AC
:1029F000877091E001C0990F8A95EAF7892F0E94AC
:102A00009B1DD9CF9BE5980F933020F480E090E098
:102A10000C94D31298E5980F973120F480E090E061
:102A20000C94E912803F20F00E94F7220C947C2342
:102A30000895CF93C82F0E940514C93349F42FEF8E
:102A400087EE93E0215080409040E1F700C0000005
:102A50008C2FCF910C94B114882321F00E94951DE6
:102A60000C94DE1D0895882321F00E949B1D0C9478
:102A7000DE1D0895BF92CF92DF92EF92FF920F93E7
:102A80001F93CF93DF937C01062FC72FFC01158185
:102A900012951F70D281D1110E94B21D0E948B1D10
:102AA000882379F0DD2369F080E2800F883048F0D8
:102AB00082E00E94291E0E948B1D91E0B82EB9264B
:102AC00001C0B12CCC2EC2948FE0C822D12CF601CB
:102AD000E659FF4F0C94542D8C2F807FCF708823A4
:102AE00011F0C295C07FDD2399F0CC2309F4CEC14B
:102AF00080E2800F883010F0011104C08C2F0E94FA
:102B0000951D03C08C2F0E94A51D0E94DE1DBEC115
:102B1000802F0E94B114CC2309F4DDC180E2800F24
:102B2000883010F0011104C08C2F0E949B1D03C03F
:102B30008C2F0E94AB1D0E94DE1DCDC18C2F807F8B
:102B4000CF70803211F0C295C07F002319F00130A0
:102B5000C9F022C0DD2371F0112341F0113031F4AE
:102B60000E94C51D8C2B0E94CB1DB5C10E94C51DA6
:102B70008C2B1DC0112319F0113009F4ACC10E9437
:102B8000D41D25C0DD2321F0163008F0A4C10EC0ED
:102B9000153008F0A0C11BC0DD2361F0112331F016
:102BA000F701858180FF72C18F7085838C2F0E9411
:102BB0002C1591C1112359F0093309F078C1FFEFA9
:102BC00027EE83E0F15020408040E1F76EC18C2F6A
:102BD0000E94331580C18C2F86958695837090E076
:102BE000009719F0019761F076C1DD2321F0802F65
:102BF0009C2F937002C080E090E00E94D31276C1B7
:102C0000DD2321F0802F9C2F937002C080E090E0A4
:102C10000E94E9126BC1DD23F9F0053F51F0063F38
:102C200071F0043FA9F48091E2029091E302816087
:102C30000BC08091E2029091E302826005C0809116
:102C4000E2029091E30284609093E3028093E202B7
:102C5000802F0E948F221EC0053F51F0063F71F069
:102C6000043FA9F48091E2029091E3028E7F0BC0B1
:102C70008091E2029091E3028D7F05C08091E20293
:102C80009091E3028B7F9093E3028093E202802F86
:102C90000E94F7220E947C2329C18C2F837009F0A7
:102CA00049C0D1111FC1402F429546954770440F2E
:102CB000440F602F6F70862F90E0A0E0B0E0042EEC
:102CC00004C0880F991FAA1FBB1F0A94D2F704FFE4
:102CD00010C00FE010E020E030E004C0000F111F32
:102CE000221F331F4A95D2F70095109520953095F5
:102CF00003C000E010E09801C695C695C370D0E00F
:102D0000BC01CD01602B712B822B932BC230D105DE
:102D100059F0C330D10559F0219719F00E94CC1B0E
:102D2000E1C00E94BA1BDEC00E94DE1BDBC00E9415
:102D3000B81BD8C0DD2319F08C2F817001C0869597
:102D4000882309F4CFC0402F429546954770440F21
:102D5000440F602F6F70862F90E0A0E0B0E0042E4B
:102D600004C0880F991FAA1FBB1F0A94D2F704FF43
:102D700010C00FE010E020E030E004C0000F111F91
:102D8000221F331F4A95D2F7009510952095309554
:102D900003C000E010E09801C695C695C370D0E06E
:102DA000BC01CD01602B712B822B932BC230D1053E
:102DB00059F0C330D10559F0219719F00E94921CA7
:102DC00091C00E94801C8EC00E94A41C8BC00E94D7
:102DD000F31B88C0CF70DD2339F08C2F0E94191CA3
:102DE000802F0E942C157EC0802F0E9433158C2FBF
:102DF0000E943A1C77C0023F01F128F4003F41F0E5
:102E0000013FA1F03FC0033FF9F0043F39F13AC060
:102E1000DD2341F0153008F05EC08C2F8F710E94C9
:102E20005F1C59C0163008F056C0F7CFDD2339F0CB
:102E30008C2F8F710E94191C4EC0DD23C9F38C2F7B
:102E40008F710E943A1C47C0DD2329F08C2F8F71AF
:102E50000E94041C40C00E94FF1B3DC0DD2349F0BE
:102E6000CF718C2F0E94191C63E08C2F0E94141EBE
:102E700032C081E00E94291E123068F182E00E9477
:102E8000291E29C0DD2331F0112391F2802F0E94E9
:102E9000051421C0112399F2093349F49FEFE7EE9D
:102EA000F3E09150E040F040E1F700C00000802FD7
:102EB0000E94B11410C04C2F4F70602FC7010E94A8
:102EC000DF060E942B1B12C04C2F4F70602FC701D2
:102ED0000E94E2060BC028E0C21AD10884E0C8169E
:102EE000D10420F40E949F120E948406BB20D1F0DE
:102EF0000E94871D80FD16C0F70112820E94811D6D
:102F00000E94191CC7010E949C170E94811DDF911D
:102F1000CF911F910F91FF90EF90DF90CF90BF90D6
:102F20000C943A1CDF91CF911F910F91FF90EF907D
:102F3000DF90CF90BF9008950F931F93CF93DF93AF
:102F4000EC01888199812B813C81232BB9F09F3F33
:102F500011F48F3F99F0CE010E949D06882371F0F5
:102F6000688179818A810E945E1D8C010E94B61C55
:102F70000E94B71BB801CE010E943A15DF91CF9194
:102F80001F910F9108950E94B21D0E94C21D0E94C0
:102F9000DE1D0E9422240E947C2380E090E00E949B
:102FA000D31280E090E00C94E9128091100190918E
:102FB00011010E946E1F0C94C3170E94A21D0C9455
:102FC000D517E92FE295EF70F0E03297EE30F1057A
:102FD000B0F4E658FF4F0C94542D803F91F018F454
:102FE000883E68F40EC0843F51F40BC0883E48F020
:102FF000813F29F406C093FB882780F9089580E07B
:10300000089581E008950E94531D0E94E1170895DC
:10301000CF93DF9300D000D01F92CDB7DEB70F90D3
:103020000F900F900F900F90DF91CF910895CF9355
:10303000DF9300D000D000D0CDB7DEB726960FB614
:10304000F894DEBF0FBECDBFDF91CF9108951F93DF
:10305000CF93DF93C091EF0116E08091F001C81784
:1030600099F0D0E01C9FF0011D9FF00D1124EF504E
:10307000FE4F4081518162817381848195810E94DC
:1030800017182196C770E9CFDF91CF911F9108954E
:1030900040912102509122026091230270912402FA
:1030A00080912502909126020C9417188091260297
:1030B00082958F7009F054C080912302882309F40F
:1030C0004FC08091EF01A091F001609121027091B9
:1030D00022024091240250912502B6E08A1709F499
:1030E0003FC090E041155105C1F17F3F11F46F3FA2
:1030F000A1F1B89FF001B99FF00D1124EF50FE4FE0
:10310000218172132AC02081621327C022812111DC
:1031100024C0238134812417350710F4215031094C
:10312000241B350B283C3105C0F4209126022F705A
:1031300020612093260226E0289FF001299FF00DB0
:103140001124EA50FE4F80818F708061808381E27C
:1031500092E00E949C170C94271801968770BECFAE
:103160000895CF92DF92EF92FF920F931F93CF9328
:10317000DF93CDB7DEB762970FB6F894DEBF0FBE10
:10318000CDBF8C0185E0F801DE011D9601900D9206
:103190008A95E1F7D8014C9111965C91119712969E
:1031A0006C9112971396CD90DC9014973091210278
:1031B000709122028091240290912502009709F4D7
:1031C0006BC17F3F19F43F3F09F466C1E0902302D1
:1031D000EE2009F4C0C020912602C816D90628F0B6
:1031E000F601E81BF90BCF0104C0809590958C0D7A
:1031F0009D1DFF24F394883C910578F0F12C207FED
:1032000009F0C6C07C2DD98AC88A89890E9408180D
:1032100081E292E00E949C17B1C0822F807F09F06A
:1032200046C0751314C0341312C0611110C02F7042
:103230002061209326020E94481881E292E00E94B9
:103240009C1780912602D80115968C932EC0CD280C
:1032500019F15F3F11F44F3FF9F0F62E61111CC0D8
:103260008091EF012091F00136E0821709F45AC0F5
:1032700090E0389FF001399FF00D1124EF50FE4F80
:103280007181571306C07081471303C07281711199
:1032900003C001968770E9CFF62E662309F427C193
:1032A00080912602816080932602F12C20C1751343
:1032B00008C0341306C0611104C080912602D801F1
:1032C000C3C04D875E878D859E856A8B0E940318DB
:1032D0006A898823E1F16623D1F120912602822FA9
:1032E00082958F7090E0029774F080912102909106
:1032F000220298878F831986DB86CA862C87CE01A7
:1033000007960E949C1786E0F801A1E2B2E00190C6
:103310000D928A95E1F70E9456180E944818FF24E2
:10332000F394E5C04D875E878D859E850E94531D71
:10333000292F22952F7030E0223031050CF0CBC0C0
:103340009F7009F0C5C0805E883008F4D0C0C80105
:103350000E949C17E4CFC816D90608F453C0F601A2
:10336000E81BF90BCF01883C910508F450C0F12C03
:103370007C2DD98AC88A89890E940818E1E2F2E086
:1033800086E0DF011D928A95E9F70E944818AFC0D8
:10339000751314C0341312C0611110C0809126023D
:1033A000F8018583C8010E949C1786E0E1E2F2E003
:1033B000DF011D928A95E9F7FE2C99C04D875E8743
:1033C0008D859E856A8B0E9403186A89882309F47B
:1033D000BECF662309F4BBCF20912602822F8295AF
:1033E0008F7090E002970CF48ECF80912102909123
:1033F00022029A8389831B82DD82CC822E83CE01B6
:1034000001967FCF809590958C0D9D1DACCFF62EAB
:10341000662309F49CCF75132EC034132CC0209161
:10342000260220FD1FC0822F82958F70D9F0D8010F
:1034300015962C9315978F3049F08F5F982F9295A2
:10344000907F822F8F70892B15968C93C8010E94D4
:103450009C1786E0F801A1E2B2E001900D928A95F6
:10346000E1F793CF86E0F801A1E2B2E001900D927E
:103470008A95E1F73CC04D875E878D859E850E94C9
:103480000318811140CF809126028160809326022B
:10349000C8010E949C172BC0662309F458CF4D87A2
:1034A0005E878D859E850E940318F82E882309F477
:1034B0004ECF86E0F801A1E2B2E001900D928A952C
:1034C000E1F781E292E00E94FF130E9456185DCF5F
:1034D000811139CF0CC0243031050CF038CF9F70EA
:1034E00009F431CFF8019581907F09F02CCF8F2D11
:1034F00062960FB6F894DEBF0FBECDBFDF91CF91BD
:103500001F910F91FF90EF90DF90CF9008951F9340
:10351000CF93DF93CDB7DEB72C970FB6F894DEBF0D
:103520000FBECDBF4F83588769877A878B879C876B
:10353000CE0107960E94B118882369F08F81988583
:103540002A853B85232BF1F19F3F09F063C08F3F14
:1035500009F060C037C086E0FE013796DE011196A3
:1035600001900D928A95E1F76F817885EA85FB8558
:10357000309741F17F3F11F46F3F21F12091F0012D
:1035800030E0C9010196877099274091EF0150E022
:103590008417950709F447C069837A83FD83EC8318
:1035A00096E0929FD001939FB00D1124AF50BE4F73
:1035B000FE01319601900D929A95E1F78093F0010A
:1035C0000E94271816E08091EF019091F001891771
:1035D000C1F1189FC00111248F509E4F0E94B11855
:1035E000882379F1E091EF011E9FF0011124EF5043
:1035F000FE4F4081518162817381848195810E9457
:1036000017188091EF0190E00196877099278093B9
:10361000EF01D9CF4F81588569857A858B859C8547
:103620000E941718CFCF0E94DD171092F001109260
:10363000EF01E1E2F2E086E0DF011D928A95E9F711
:10364000C1CF2C960FB6F894DEBF0FBECDBFDF9171
:10365000CF911F910895EF92FF920F931F93CF93F5
:10366000DF938C01892B09F46CC0F12CEE24E394D8
:10367000E8012196F8018491843740F4843008F001
:1036800051C0813081F0823019F15BC0853709F477
:1036900044C0A8F19CE7980F903708F052C08F778C
:1036A0000E94B11441C00E5F1F4FFE01C49180E221
:1036B0008C0F883048F4C7708E2D01C0880FCA95D2
:1036C000EAF70E94B51D14C08C2F0E9405142DC06E
:1036D0000E5F1F4FFE01C49180E28C0F883058F4BA
:1036E000C7708E2D01C0880FCA95EAF70E94BB1DD6
:1036F0000E94DE1D1AC08C2F0E94B11416C00E5FEE
:103700001F4FFE01C491CC2381F08FE99FE0019708
:10371000F1F700C00000C150F6CF0E5F1F4FFE0151
:10372000F49003C00E9405148E018F2D882309F4A4
:103730009FCFEFE9FFE03197F1F700C00000815023
:10374000F5CFDF91CF911F910F91FF90EF900895EA
:1037500008950C94A81B0E94A91B60935D027093AE
:103760005E0280935F02909360020C94C3170895E9
:103770000C94AB1B0F931F9300915D0210915E029E
:1037800020915F0230916002602B712B822B932B72
:103790001F910F910C94AB1B0F931F9300915D022F
:1037A00010915E0220915F023091600260237123CC
:1037B000822393231F910F910C94AB1B0F931F93A4
:1037C00000915D0210915E0220915F0230916002D3
:1037D00060277127822793271F910F910C94AB1BB1
:1037E00008950C94F01B0E94F11B60935902709392
:1037F0005A0280935B0290935C020C94C31760E0C2
:1038000070E0CB010C94F31B0F931F9341E050E049
:1038100060E070E08A019B0104C0000F111F221FAD
:10382000331F8A95D2F7C901B8011F910F910C94EB
:10383000F31B0F931F9341E050E060E070E004C081
:10384000440F551F661F771F8A95D2F78091590242
:1038500090915A02A0915B02B0915C028A019B0197
:10386000082B192B2A2B3B2BC901B8011F910F9153
:103870000C94F31B0F931F9341E050E060E070E065
:1038800004C0440F551F661F771F8A95D2F74095D5
:103890005095609570958091590290915A02A0912F
:1038A0005B02B0915C028A019B01082319232A2341
:1038B0003B23C901B8011F910F910C94F31B0F9387
:1038C0001F9341E050E060E070E004C0440F551FDA
:1038D000661F771F8A95D2F78091590290915A02FC
:1038E000A0915B02B0915C028A019B010827192715
:1038F0002A273B27C901B8011F910F910C94F31B94
:103900000F931F930091590210915A0220915B026C
:1039100030915C02602B712B822B932B1F910F91A6
:103920000C94F31B0F931F930091590210915A02AC
:1039300020915B0230915C026023712382239323E8
:103940001F910F910C94F31B0F931F930091590239
:1039500010915A0220915B0230915C02602771271E
:10396000822793271F910F910C94F31B08952FE04A
:10397000929F800D1124A82FA695A695A6958770D5
:1039800051E001C0550F8A95EAF785E0A89FD00164
:10399000112420E030E070E0F901EA0FFB1FE95D3F
:1039A000FD4F4081CB01022E02C0969587950A9467
:1039B000E2F7817099278195842785238427808366
:1039C0002F5F3F4F2530310539F708952FE0929F43
:1039D000800D1124682F669566956695982F9770CF
:1039E00085E0689FB001112440E050E080E0FA01DA
:1039F000E60FF71FE95DFD4F208130E0092E02C080
:103A0000369527950A94E2F721703327042E01C0DA
:103A1000220F0A94EAF7822B4F5F5F4F4530510522
:103A200031F70895BF92CF92DF92EF92FF920F93FA
:103A30001F93CF93DF938C01C0905D02D0905E0204
:103A4000E0905F02F09060028091590290915A02DA
:103A5000A0915B02B0915C02C82AD92AEA2AFB2A0B
:103A6000CFE1D0E0D701C6010C2E04C0B695A795D2
:103A7000979587950A94D2F780FF07C0BC2EB801AE
:103A80008C2F0E94FD06019719F4219758F7B12C4D
:103A90008B2DDF91CF911F910F91FF90EF90DF90D1
:103AA000CF90BF900895CF93DF93EC010E94121D39
:103AB000BE010E94FD06DF91CF9108951F93CF9321
:103AC000DF93EB019091EE01992321F0CB010E944D
:103AD000531D13C0882349F0CB010E94121D182FDB
:103AE000682FCE010E94B71C04C0CB010E94E61CC7
:103AF000182FBE01812F0E94FD06DF91CF911F91EB
:103B000008958091610285958595859508958091A8
:103B100061028770089590916102977081E009F4C5
:103B200080E0089580918502089590918502892B07
:103B300080938502089580959091850289238093D2
:103B40008502089510928502089590918402892B30
:103B500080938402089580959091840289238093B4
:103B60008402089510928402089590918302892B13
:103B70008093830208958095909183028923809396
:103B8000830208951092830208958091620208953D
:103B900008950C94C81D90916202981721F08093AB
:103BA00062020C94C91D089580916202882329F055
:103BB0001092620280E00C94C91D0895E0911001FA
:103BC000F0911101809185028083E0911001F091C4
:103BD0001101908180918402892B8083E0911001F2
:103BE000F0911101908180918302892B80838091D3
:103BF0006202882381F0E0911001F091110190811F
:103C0000892B808380911001909111010E94F31EF5
:103C100081110E94D41D80911001909111010C948A
:103C2000AB1208950C94111E98E0899F9001112405
:103C3000262B209361020E94191C809161028595B8
:103C4000859585950C94121E1092610280E00C946B
:103C5000121E209161028095822380936102982F29
:103C6000977079F430E0482F082E000C550B24177C
:103C7000350739F08595859585950E943A1C0C94F9
:103C8000241E089580E090E00E94812D21E08C3E6A
:103C90009E4F09F020E0822F089582E090E00C947E
:103CA000732D682F82E090E00C94872D83E090E0E4
:103CB0000C94732D682F83E090E00C94872DCF93A4
:103CC00084E090E00E94732DC82F81E290E00E9472
:103CD000732D2C2F30E0A901582BCA01CF910895E4
:103CE000CF93C92F682F84E090E00E94872D6C2F1E
:103CF00081E290E0CF910C94872DAB01BC018FE065
:103D000090E00C94992DAB01BC0183E190E00C9400
:103D1000992D60E070E0CB010C94831E60E070E0B0
:103D2000CB010E947D1E0C94891E6CEE7EEF80E01C
:103D300090E00E94A52D60E082E090E00E94872D37
:103D400060E083E090E00E94872D10925D02109267
:103D50005E0210925F021092600260E084E090E0E8
:103D60000E94872D60E081E290E00E94872D60E054
:103D700085E090E00E94872D60E086E090E00E9460
:103D8000872D6FEF87E090E00E94872D40E050E0A4
:103D9000BA0188E090E00E94992D60E08DE090E00B
:103DA0000E94872D40E050E0BA0188E190E00E9437
:103DB000992D60E087E190E00E94872D40E050E07F
:103DC000BA018CE190E00E94992D60E080E290E0E1
:103DD0000E94872D0C948E1E0C94951E682F8EE0E9
:103DE00090E00C94872DFC0132968091220188236B
:103DF00031F08091E80287FF02C09EE101C096E0A9
:103E000080E0915028F021912223D9F38F5FF9CFE0
:103E100008959C01FC0132969FEF80E04191461786
:103E200089F09F3F19F4411101C0982F8F5F8630B0
:103E3000A9F79F3F39F0F901E90FF11D97FDFA95B8
:103E4000628308950895FC01329608962081261316
:103E500001C010823196E817F907C1F70895262F9F
:103E60002695269526952E3168F4FC01E20FF11D6A
:103E7000677021E030E001C0220F6A95EAF7828185
:103E8000282B22830895262F2695269526952E31B8
:103E900070F4FC01E20FF11D677021E030E001C019
:103EA000220F6A95EAF720958281282322830895BC
:103EB00020912201222329F02091E80227FD0C9471
:103EC0002F1F0C94091F20912201222329F02091F9
:103ED000E80227FD0C94431F0C94231F209122011C
:103EE000FC013296222331F08091E80287FF02C064
:103EF0008EE101C086E0DF011D928A95E9F7089501
:103F000008950C94801F0E94811F8091EE028430DE
:103F100049F11092870220E488E190E00FB6F8940E
:103F2000A895809360000FBE2093600080E00E94FF
:103F300084060E94811F83B7817F846083BF83B71B
:103F4000816083BF7894889583B78E7F83BF0FB6D7
:103F5000F894A89580916000886180936000109229
:103F600060000FBE089508950895CF930E94B31F77
:103F70000E9442090E94B41FC0E08C2F0E94E908F1
:103F8000892B29F4CF5FC530C1F780E001C081E003
:103F9000CF91089508950C94CA1F0E94DD170E94C6
:103FA0009F120E9484060C94CB1F1F920F920FB693
:103FB0000F9211248F939F93AF93BF9380918702A9
:103FC000811113C08091E4029091E502A091E60274
:103FD000B091E7024196A11DB11D8093E402909338
:103FE000E502A093E602B093E702BF91AF919F91E3
:103FF0008F910F900FBE0F901F90189582E084BD97
:1040000093E095BD9AEF97BD80936E0008952FB70A
:10401000F8948091E4029091E502A091E602B091BB
:10402000E7022FBF0895CF92DF92EF92FF920F9396
:104030001F932FB7F8944091E4025091E5026091EC
:10404000E6027091E7022FBF6A017B01EE24FF2494
:104050008C0120E030E0C016D106E206F30610F431
:10406000415051099A01281B390BC9011F910F9129
:10407000FF90EF90DF90CF90089578941F920F9269
:104080000FB60F9211248F939F93AF93BF9380919C
:10409000E4029091E502A091E602B091E702019658
:1040A000A11DB11D8093E4029093E502A093E60266
:1040B000B093E702BF91AF919F918F910F900FBE88
:1040C0000F901F90189581E08093E00080E280932C
:1040D000D8001092C9008FE19EE40197F1F700C06B
:1040E000000087E090EBDC018093F7029093F802E8
:1040F000A093F902B093FA029CE088E10FB6F8941D
:10410000A895809360000FBE90936000FFCFAF92A0
:10411000BF92CF92DF92EF92FF920F931F93CF93B4
:10412000C0E0CC24C394D12CE82EF12C8C2F0E941B
:10413000E9085C0100E010E09601002E02C0220FA9
:10414000331F0A94E2F72A213B21232B31F40F5F1E
:104150001F4F0F30110581F70AC0602F7C2F80E0C0
:104160000E94E306E816F90691F781E004C0CF5FEC
:10417000C530E1F680E0CF911F910F91FF90EF9055
:10418000DF90CF90BF90AF900895CF93C82F8CE26F
:104190000E948720882321F08C2FCF910C948720B8
:1041A00080E0CF910895CF930E94421E811102C0FA
:1041B0000E94EC1EC5E6C15049F00E9442098FE3FF
:1041C0009CE90197F1F700C00000F5CF89E20E9459
:1041D000C520811120C18AE20E94C52081110E9460
:1041E000EC1E85E00E94C52081110E9463200E9480
:1041F0004D1E8093860287E00E94C5208823A9F186
:104200008BE10E94C520882351F08091860281FBBA
:10421000222720F991E0922790FB81F90EC08EE0D1
:104220000E94C520882361F08091860282FB2227AC
:1042300020F991E0922790FB82F98093860215C0C5
:1042400080E10E94C52090918602882341F093FB73
:10425000222720F981E0822780FB93F904C0892F6F
:10426000809580FB90F990938602809186020E944F
:10427000511E0E945F1E9093E9028093E80280EE37
:104280000E94C520882341F08091E802982F9095E4
:1042900090FB80F98093E80289E30E94C52088237F
:1042A00059F08091E80281FB222720F991E09227C2
:1042B00090FB81F98093E80282EE0E94C52088235A
:1042C00059F08091E80282FB222720F991E09227A1
:1042D00090FB82F98093E80286EE0E94C520882335
:1042E00059F08091E80283FB222720F991E0922780
:1042F00090FB83F98093E80283EE0E94C520882317
:1043000059F08091E80284FB222720F991E092275E
:1043100090FB84F98093E80285E30E94C5208823FE
:1043200059F08091E80285FB222720F991E092273D
:1043300090FB85F98093E80281E30E94C5208823E1
:1043400059F08091E80286FB222720F991E092271C
:1043500090FB86F98093E80281E10E94C5208823C2
:1043600059F08091E80287FB222720F991E09227FB
:1043700090FB87F98093E8028091E8029091E9022E
:104380000E94701E87E20E94C520C82F8EE10E9405
:10439000C5208111C2608FE10E94C5208111C460D7
:1043A00080E20E94C5208111C86081E20E94C52080
:1043B0008111C06182E20E94C5208111C06283E246
:1043C0000E94C5208111C06484E20E94C520882318
:1043D00011F0C06802C0CC2329F08C2F0E945A1E15
:1043E0006C2F03C00E94561E682F70E080E090E0A2
:1043F0000E94B81B8FE00E94C520882319F081E03D
:104400000E94EE1E85E10E94C520882321F080E0F5
:10441000CF910C94EE1ECF91089580918B0280FF76
:104420000BC06091150185E0689FB001112475955E
:104430006795759567952BC081FF09C0609115013F
:1044400085E0689FB00111247595679520C082FFB3
:1044500007C06091150185E0689FB001112417C065
:1044600090918A029923D1F060911401961788F7F0
:104470002091150185E0289F90011124929FA001B1
:10448000939F500D112470E0CA010E94402D6038A6
:10449000710540F46115710539F002C065E070E006
:1044A000862F08958FE7089581E0089580918B020B
:1044B00080FF08C06091130170E075956795759550
:1044C000679521C081FF06C06091130170E075956A
:1044D000679519C082FF04C06091130170E010C09D
:1044E00090918A029923C1F0609112019617A0F76A
:1044F00080911301899FC001112470E00E94402D1A
:104500006038710528F46115710521F0862F089532
:104510008FE7089581E0089561E070E0F4CF803F77
:1045200021F40E940D22819504C0813F29F40E944C
:104530000D2280938F020895823F21F40E940D2264
:10454000819504C0833F29F40E940D2280938E023E
:104550000895893F19F40E94562205C08A3F31F41C
:104560000E94562281958093900208958B3F21F4FA
:104570000E945622819504C08C3F29F40E94562245
:10458000809391020895843F21F480918D0281608F
:1045900017C0853F21F480918D02826011C0863F53
:1045A00021F480918D0284600BC0873F21F48091BB
:1045B0008D02886005C0883F31F480918D02806152
:1045C00080938D0208958D3F21F480918B0281604C
:1045D0000BC08E3F21F480918B02826005C08F3F1B
:1045E00029F480918B02846080938B020895803F30
:1045F00039F480918F0287FF6CC010928F0269C0DE
:10460000813F29F480918F021816BCF362C090910B
:104610008E02823F29F497FF5CC010928E0259C02F
:10462000833F19F41916CCF354C0893F41F48091AB
:10463000900218160CF04DC0109290024AC08A3FAA
:1046400029F48091900287FF44C0F6CF8B3F39F464
:104650008091910287FF3DC0109291023AC08C3F39
:1046600029F4809191021816BCF333C0843F21F4E1
:1046700080918D028E7F17C0853F21F480918D023D
:104680008D7F11C0863F21F480918D028B7F0BC0FE
:10469000873F21F480918D02877F05C0883F31F4E8
:1046A00080918D028F7E80938D0213C08D3F21F407
:1046B00080918B028E7F0BC08E3F21F480918B0204
:1046C0008D7F05C08F3F29F480918B028B7F809373
:1046D0008B0280918E0281110EC080918F02811118
:1046E0000AC080919002811106C0809191028111CF
:1046F00002C010928A0208958CE892E00E94C512CE
:104700000E940720909389028093880208951F9346
:10471000CF93DF9380918802909189020E941320A9
:10472000AC0190918A02992321F02091160130E08A
:1047300006C0209117018AE0289F9001112442179A
:10474000530708F47BC080918E02C0918F02D091F4
:10475000900210919102811107C0C1116BC0D1115B
:1047600069C0111167C06AC09F3F19F09F5F9093A5
:104770008A02181624F40E940D2280938E028091E2
:104780008E0287FF05C00E940D22819580938E02C4
:104790001C1624F40E940D2280938F0280918F02B8
:1047A00087FF05C00E940D22819580938F02309172
:1047B0008E023323E1F020918F022223C1F045EBDA
:1047C0003403C0011124892F990F990B009709F424
:1047D00081E080938E0235EB2303C0011124892FE1
:1047E000990F990B009709F481E080938F021D16B1
:1047F00024F40E945622809390028091900287FFB9
:1048000005C00E945622819580939002111624F4CF
:104810000E945622809391028091910287FF05C0E9
:104820000E945622819580939102DF91CF911F9132
:104830000C947C239F3F09F099CFA1CFDF91CF91BA
:104840001F910895ECE8F2E086E0DF011D928A9561
:10485000E9F710928A0210928B020895833081F159
:1048600028F4813059F08230D1F00895853009F470
:1048700049C0B8F1863009F456C0089580911701F7
:10488000262F30E0280F311D2F3F310524F4680F0B
:104890006093170108958FEF809317010895809119
:1048A0001601262F30E0280F311D2F3F310524F44B
:1048B000680F6093160108958FEF80931601089595
:1048C00080911501262F30E0280F311D2F3F310533
:1048D00024F4680F6093150108958FEF80931501FC
:1048E000089580911401262F30E0280F311D2F3FAD
:1048F000310524F4680F6093140108958FEF8093BD
:104900001401089580911301262F30E0280F311DE6
:104910002F3F310524F4680F6093130108958FEF42
:1049200080931301089580911201262F30E0280F03
:10493000311D2F3F310524F4680F60931201089553
:104940008FEF809312010895833011F128F48130A4
:1049500049F0823091F00895853081F120F1863060
:10496000C1F1089580911701681720F4861B809388
:104970001701089510921701089580911601681784
:1049800020F4861B80931601089510921601089555
:1049900080911501681720F4861B809315010895F6
:1049A00010921501089580911401681720F4861B58
:1049B00080931401089510921401089580911301B9
:1049C000681720F4861B8093130108951092130139
:1049D000089580911201681720F4861B80931201BC
:1049E00008951092120108950F931F93482F50E0DD
:1049F000FA013597EF33F10508F07FC0E857FF4F14
:104A00000C94542D0E94EC1E71C080918602817F0F
:104A10008E7F8093860281E0809393026FC00E9414
:104A2000DD170FEF13ED20E3015010402040E1F7B8
:104A300000C000000E94632059C080918602982F18
:104A40009095917090FB80F98093860291114EC0F1
:104A5000897F877F10C08091860281FB222720F901
:104A600091E0922790FB81F9809386029923F1F1DE
:104A70008091860281608093860238C08091860290
:104A800082FB222720F991E0922790FB82F9ECCF5C
:104A90008091860283FB222720F991E0922790FBE8
:104AA00083F9E2CF0E94DD178091E80287FB22277D
:104AB00020F991E0922790FB87F98093E80216C0D5
:104AC000895301C08D5141E050E060E070E08A01FF
:104AD0009B0104C0000F111F221F331F8A95D2F7BC
:104AE000C901B8010E94B81B0E94DD1781E006C011
:104AF00061E070E080E090E0F5CF80E01F910F91E1
:104B0000089580E0089580E008958E518A3030F451
:104B1000E82FF0E0E254FE4F8081089580E0089590
:104B2000CF93C82F80919302813051F018F08230DA
:104B300099F17DC00E94921D823209F07AC004C0B2
:104B40000E94921D823261F48C2F0E948125811176
:104B500004C08C2F0E94F4241DC081E090E01AC094
:104B60008C2F0E948325811114C0C43179F048F440
:104B7000CB3079F0C03109F060C082E080939302BD
:104B800008C0C93219F0C83321F057C010929302FF
:104B900054C081E0817053C0C93289F118F5C43125
:104BA00071F1B0F4C73009F046C08EE1809317016F
:104BB00082E3809316018AE08093150184E180935B
:104BC000140188E08093130188E28093120133C0BE
:104BD00082EE8C0F863078F58C2F0E94852580938D
:104BE000920229C0CE34E9F020F4CB3421F56AE0FA
:104BF00013C0C13579F0C235F1F461E00DC0809188
:104C00009202882319F01092920215C081E08093DD
:104C1000930215C061E006C0809192020E942E248A
:104C20000AC06AE0809192020E94A42404C01092FB
:104C3000930280E004C081E002C080E0ABCFCF915E
:104C400008958091B4020895CF93DF9300D01F920E
:104C5000CDB7DEB79091EE02943019F589837B834E
:104C60006A8382E08093E9008FEF9091E8008150A1
:104C700095FD06C095ED9A95F1F700008111F5CFED
:104C80008091E80085FF0DC040E050E063E070E0F7
:104C9000CE0101960E9482288091E8008E77809351
:104CA000E8000F900F900F90DF91CF910895CF9370
:104CB000DF93EC010E946528823011F0843031F4DA
:104CC000BE0184E0DF91CF910C942426DF91CF9137
:104CD0000895BC0183E00C942426CF93DF93EC016C
:104CE0000E946528823011F08430F9F482E08093CC
:104CF000E9009FEF8091E800915085FD06C085EDA9
:104D00008A95F1F700009111F5CF8091E80085FFB9
:104D10000CC040E050E066E070E0CE010E948228C6
:104D20008091E8008E778093E800DF91CF9108951D
:104D3000CF93DF93EC010E946528823011F084301C
:104D4000D9F580912201882339F08091E80287FF0C
:104D500003C060E282E002C068E081E08093E90085
:104D60008FEF9091E800815095FD06C095ED9A95E2
:104D7000F1F700008111F5CF8091E80085FF1CC09C
:104D800080912201811105C040E050E068E070E0B0
:104D900003C070E040E050E0CE010E948228809184
:104DA000E8008E778093E80080E2FE01A4E9B2E09B
:104DB00001900D928A95E1F7DF91CF91089580914E
:104DC000ED02811109C00E94172A0E94742A809165
:104DD000E20084608093E20008951092ED0208954D
:104DE000089508950C94CD1F42E061EC81E00E948B
:104DF000912942E261EC82E00C9491298091F002C9
:104E0000833009F460C030F4813071F0823009F4ED
:104E100099C008958A3009F485C08B3009F46BC0BD
:104E2000893009F0A7C020C08091EF02813A09F0D3
:104E3000A1C08091E800877F8093E8008091F30211
:104E40009091F402892B21F460E284E992E003C09E
:104E500060E080E090E070E00E94CD288091E80062
:104E60008B778093E80008958091EF02813209F0FA
:104E700081C08091F3029091F402029708F07AC009
:104E80008091E800877F8093E8008091E80082FDB0
:104E900005C08091EE028111F8CF6CC02091F30023
:104EA0008091F20090E0922B029729F48091F1001A
:104EB0008B7F813021F48091F1008093B402809146
:104EC000E8008B7753C08091EF02813A09F052C01D
:104ED0008091F3029091F402892B09F04BC08091EC
:104EE000E800877F8093E8008091E80080FFFCCF96
:104EF0008091220136C08091EF028132D9F58091F4
:104F0000F3029091F402892BA9F58091E800877F44
:104F10008093E8000E94C6298091F10280932201CB
:104F20000C94DD178091EF02813221F58091E80029
:104F3000877F8093E8000E94C6298091F2028093C7
:104F4000B50208958091EF02813AA1F48091E800C2
:104F5000877F8093E8008091E80080FFFCCF8091FC
:104F6000B5028093F1008091E8008E778093E8008D
:104F70000C94C629089584B7877F84BF0FB6F89430
:104F8000A895809160008861809360001092600015
:104F90000FBE90E080E80FB6F89480936100909384
:104FA00061000FBE0E940D130E94172A0E94742AEE
:104FB0008091E20084608093E20078940E94032D47
:104FC0000E94151388E191E00E949A128091EE02EE
:104FD000853069F40E94831F8091EC028823B1F32D
:104FE0000E94B51F882391F30E946C28EFCF0E9486
:104FF0001F13ECCF0C94FC27292F332723303105C6
:10500000C9F064F42130310581F02230310509F016
:105010004CC08BE390E02FE43AE04BC021323105E5
:1050200021F12232310589F140C082E190E02AE885
:105030003AE03FC099278130910571F02CF4892B1B
:10504000A1F5EBE4FAE00DC08230910541F0039741
:1050500061F5EBE2FAE005C0EDE3FAE002C0E1E35E
:10506000FAE0849190E09F0124C06115710541F040
:1050700061307105D1F489E090E02AE73AE019C087
:1050800089E090E021E63AE014C06115710541F035
:105090006130710551F48CEB90E02CE93AE009C0E5
:1050A00080E490E028E53BE004C080E090E020E070
:1050B00030E0FA013183208308958091EE0284303C
:1050C00011F081E0089582E008958091B602811187
:1050D00002C00C945D28089580E189BD82E189BDFC
:1050E00009B400FEFDCF8091D8008F7D8093D80059
:1050F0008091E00082608093E0008091E00081FD7B
:10510000FCCF0895CF92DF92EF92FF920F931F93FF
:10511000CF93DF93EC018B016A010E94E529811195
:1051200033C0C114D10439F0F60180819181081B8C
:10513000190BC80FD91FE12CF12C0115110519F11C
:105140008091E80085FD16C08091E8008E778093FD
:10515000E800C114D10449F0F60180819181E80E84
:10516000F91EF182E08285E00FC00E94E5298823C4
:1051700021F30AC089918093F10001501109FFEFDA
:10518000EF1AFF0ADACF80E0DF91CF911F910F91E4
:10519000FF90EF90DF90CF9008952091F50230912D
:1051A000F6022617370748F06115710539F420918A
:1051B000E8002E772093E80001C0B90140E06115B6
:1051C0007105A9F12091EE02222309F443C0253094
:1051D00009F442C02091E80023FD40C02091E8007E
:1051E00022FD32C02091E80020FFE9CF4091F3007A
:1051F0002091F20030E0342BFC01CF0161157105E4
:1052000059F02830310540F481918093F1006150CC
:1052100071092F5F3F4FF1CF41E02830310509F090
:1052200040E02091E8002E772093E800C8CF41119C
:10523000C9CF0AC08091EE02882361F0853061F009
:105240008091E80083FD0AC08091E80082FFF2CFE0
:1052500080E0089582E0089583E0089581E0089554
:105260002091F5023091F6022617370748F06115B4
:10527000710539F42091E8002E772093E80001C0F1
:10528000B901FC0120E06115710591F18091EE02F8
:10529000882309F440C0853009F43FC08091E800BC
:1052A00083FD3DC08091E80082FD2FC08091E80021
:1052B00080FFE9CF2091F3008091F20090E0922BE3
:1052C0006115710559F08830910540F424912093BF
:1052D000F1003196615071090196F2CF21E00897F3
:1052E00009F020E08091E8008E778093E800CBCF32
:1052F0002111CCCF0AC08091EE02882361F0853065
:1053000061F08091E80083FD0AC08091E80082FF8F
:10531000F2CF80E0089582E0089583E0089581E06F
:105320000895982F973058F59093E900981739F021
:105330007091EC002091ED005091F00003C0242FFB
:10534000762F50E021FF19C03091EB003E7F309363
:10535000EB003091ED003D7F3093ED003091EB009C
:1053600031603093EB007093EC002093ED0050938C
:10537000F0002091EE0027FF07C09F5FD3CF8F7012
:105380008093E90081E0089580E008958091EF0224
:1053900087FF11C08091E80082FD05C08091EE0278
:1053A0008111F8CF11C08091E8008B770BC08091FC
:1053B000EE02882349F08091E80080FFF8CF8091C9
:1053C000E8008E778093E80008952091E400309102
:1053D000E50095E64091EC00842F817040FF22C0EB
:1053E0008091E80080FD1CC08091EE02882391F03E
:1053F000853091F08091EB0085FD10C04091E40074
:105400005091E5004217530729F39A01915011F783
:1054100084E0089582E0089583E0089581E008958E
:1054200080E008954091E80042FFDECF08950E9499
:10543000852A0E948D2AE0EEF0E0808181608083E1
:10544000E8EDF0E080818F77808319BCA7EDB0E0B4
:105450008C918E7F8C9380818F7E80831092ED0261
:1054600008950F931F93CF93DF930E94852A0E9484
:105470008D2AC8EDD0E088818F7788838881806805
:10548000888388818F7D888319BC1092EE021092E8
:10549000EA021092EC021092EB0200EE10E0F8012A
:1054A00080818B7F808388818160888342E060E097
:1054B00080E00E949129E1EEF0E080818E7F808380
:1054C000E2EEF0E08081816080838081886080836B
:1054D000F80180818E7F8083888180618883DF915D
:1054E000CF911F910F910895E8EDF0E080818F7EBC
:1054F0008083E7EDF0E080818160808384E082BF7B
:1055000081E08093ED020C94312AE8EDF0E0808197
:105510008E7F80831092E20008951092DA0010923C
:10552000E10008951F920F920FB60F9211242F934E
:105530003F934F935F936F937F938F939F93AF931B
:10554000BF93EF93FF938091E10082FF0BC08091A6
:10555000E20082FF07C08091E1008B7F8093E10031
:105560000E94022D8091DA0080FF1FC08091D80038
:1055700080FF1BC08091DA008E7F8093DA008091DB
:10558000D90080FF0DC080E189BD82E189BD09B4E9
:1055900000FEFDCF81E08093EE020E94DF2605C071
:1055A00019BC1092EE020E94ED268091E10080FF6E
:1055B00019C08091E20080FF15C08091E2008E7FCB
:1055C0008093E2008091E20080618093E20080910C
:1055D000D80080628093D80019BC85E08093EE02E9
:1055E0000E94F1268091E10084FF30C08091E200AA
:1055F00084FF2CC080E189BD82E189BD09B400FE31
:10560000FDCF8091D8008F7D8093D8008091E100FC
:105610008F7E8093E1008091E2008F7E8093E20094
:105620008091E20081608093E2008091EA02882309
:1056300011F084E007C08091E30087FD02C081E0A3
:1056400001C083E08093EE020E94F2268091E10087
:1056500083FF29C08091E20083FF25C08091E10093
:10566000877F8093E10082E08093EE021092EA024D
:105670008091E1008E7F8093E1008091E2008E7F37
:105680008093E2008091E20080618093E20042E03A
:1056900060E080E00E9491298091F0008860809312
:1056A000F0000E94F026FF91EF91BF91AF919F9182
:1056B0008F917F916F915F914F913F912F910F90BB
:1056C0000FBE0F901F9018951F920F920FB60F925A
:1056D00011242F933F934F935F936F937F938F93F7
:1056E0009F93AF93BF93CF93DF93EF93FF93C091BB
:1056F000E900CF708091EC00D82FD17080FDD0E808
:105700001092E9008091F000877F8093F0007894F8
:105710000E94A82B1092E9008091F000886080938D
:10572000F000CD2BCF70C093E900FF91EF91DF9196
:10573000CF91BF91AF919F918F917F916F915F9129
:105740004F913F912F910F900FBE0F901F90189582
:105750001F93CF93DF93CDB7DEB7AA970FB6F89418
:10576000DEBF0FBECDBFEFEEF2E088E08E0F90916E
:10577000F10091938E13FBCF0E94FE268091E800EA
:1057800083FF28C18091EF029091F002492F50E0F1
:105790004A30510508F01EC1FA01E953FF4F0C943D
:1057A000542D803821F0823809F014C108C080914E
:1057B000EB029091EC02992389F082600FC08091F6
:1057C000F3028F70873008F005C18093E900809163
:1057D000EB0085FB882780F91092E9009091E800A2
:1057E000977F9093E8008093F1001092F100D0C071
:1057F000282F2D7F09F0EEC0882319F0823061F048
:10580000E9C08091F102813009F0E4C0933009F0E1
:1058100080E08093EC022EC08091F10281112AC0B9
:105820008091F3028F702FEF280F263008F0D2C03E
:105830008093E9002091EB0020FF1CC0933021F4FD
:105840008091EB00806214C09091EB009061909386
:10585000EB0021E030E0A90102C0440F551F8A95FA
:10586000E2F74093EA001092EA008091EB00886032
:105870008093EB001092E9008091E800877F80938D
:10588000E8000E94C629A6C08111A4C01091F102AF
:105890001F778091E3008078812B8093E3008091D3
:1058A000E800877F8093E8000E94C6298091E80085
:1058B00080FFFCCF8091E30080688093E3001111AA
:1058C00002C082E001C083E08093EE0283C0805872
:1058D000823008F07FC08091F1029091F2028C3DFD
:1058E00053E0950779F583E08A838AE289834FB78D
:1058F000F894DE01139620E03EE051E2E32FF0E061
:1059000050935700E49120FF03C0E295EF703F5F92
:10591000EF708E2F90E0EA3010F0C79601C0C0966D
:105920008D939D932F5F243149F74FBF8091E800FD
:10593000877F8093E8006AE270E0CE0101960E94C2
:10594000CD2815C06091F3027091F402AE014F5F53
:105950005F4F0E94FA27BC01892BE1F19091E8008A
:10596000977F9093E80089819A810E9430298091E5
:10597000E8008B778093E8002DC0803859F580913E
:10598000E800877F8093E8008091EA028093F1002D
:105990008091E8008E7773CF81111CC09091F10245
:1059A0009230C0F48091E800877F8093E800909364
:1059B000EA020E94C6298091EA02811106C0809104
:1059C000E30087FD02C081E001C084E08093EE0225
:1059D0000E94F4268091E80083FF0AC08091E800CD
:1059E000877F8093E8008091EB0080628093EB00DA
:1059F000AA960FB6F894DEBF0FBECDBFDF91CF9150
:105A00001F9108950895CF938091EE028823A1F00D
:105A1000C091E900CF709091EC00892F817090FDCA
:105A200080E8C82B1092E9008091E80083FD0E9475
:105A3000A82BCF70C093E900CF91089587FB082E63
:105A4000062687FD819567FD61950E945A2D0EF40B
:105A5000919507FC81950895AA1BBB1B51E107C0D6
:105A6000AA1FBB1FA617B70710F0A61BB70B881FEE
:105A7000991F5A95A9F780959095BC01CD0108957D
:105A800097FB072E16F4009407D077FD09D00E94EB
:105A90002C2D07FC05D03EF4909581959F4F0895DD
:105AA000709561957F4F0895EE0FFF1F0590F4915B
:105AB000E02D0994991B79E004C0991F961708F00E
:105AC000961B881F7A95C9F780950895FC0141506F
:105AD000504030F001900616D1F73197CF0108956C
