:100000000C94CE050C9415060C9415060C9415064C
:100010000C9415060C9415060C9415060C941506F4
:100020000C9415060C9415060C94E02B0C94B22C31
:100030000C94FB200C9415060C9415060C941506D4
:100040000C9415060C9415060C9415060C941506C4
:100050000C9415060C9463210C9415060C9415064B
:100060000C9415060C9415060C9415060C941506A4
:100070000C9415060C9415060C9415060C94150694
:100080000C9415060C9415060C9415060C94150684
:100090000C9415060C9415060C9415060C94150674
:1000A0000C9415060C9415060C941506CB10CE1066
:1000B000D610DB10E010E510EA10EF10F410F91084
:1000C000FE100311051108110B110E11111114115D
:1000D00016111B1192169216C416C4161117311759
:1000E0009118911873171018211821188118911858
:1000F00091188A1813191319251925191C1925196E
:10010000251925191319131921192519251921192B
:1001100035262B2643269C26A326A3269C26A326EB
:10012000A3266426A3266E267826A326A326A32626
:10013000A3269C26A326A3269C26A3265126A326D7
:10014000A326882688268826882688268826882624
:10015000882688269E26A32635262826A326A3267B
:10016000A326A326A326A326A326A326A326A32647
:100170009E26A326A3269C26A3268626862686269A
:100180008626862686268626862686269E261F2D57
:10019000462D382E462D382E922DB52D382E0B2E6D
:1001A0001A2E29006A006F0035001E001F00200073
:1001B00021002200230024002500260027002E0015
:1001C000000F6B0070002B0014001A0008001500CF
:1001D00017001C0018000C00120013002D00BC00BA
:1001E0006C0071002A0004001600070009000A00D4
:1001F0000B000D000E000F0033003400BB006D003B
:100200007200E1001D491B000600190005001100E5
:10021000100036003700384A2800AE486E007300E0
:10022000E000000F0007E200E300E1002C42284A52
:100230005000510052004F00010001000100010078
:100240001E001F00200021002200230024002500A2
:100250002600270031000100010001000100140008
:10026000070015001A0005000D0009001800130012
:1002700033002D0001000100010001000400160000
:100280000B0017000A001C001100080012000C00EF
:10029000340001000100010001001D491B00100095
:1002A000060019000E000F0036003700384A010022
:1002B0000100010001000100010001000100010036
:1002C0000100010001000100010001000100000027
:1002D000000000000000000000000000000000001E
:1002E00000005300540055005700000000000000BB
:1002F000000000001E021F022F0230023102000027
:100300005F00600061005600000000000000000077
:10031000000020022102260227022E0000005C00BD
:100320005D005E002E0000000000000000000000E4
:10033000220223022F0030003502000059005A002B
:100340005B005800000000000000000000000000FA
:100350000000000000000000000062006200630076
:10036000580000000100010001000100010001002F
:100370000100010001000100010001000100010075
:100380000100010001000100010001000100010065
:100390000100010001000100010001000100010055
:1003A0000100010001000100010001000100010045
:100650000100000000000000000000000000000099
:100660000000000000000000000000000000005C2E
:10067000000000000000000000000000000000007A
:100680000000C35CCB5CC55CC75CC95C145CA900A2
:10069000000000000000000000000000000000005A
:1006A000C45CCC5CC65CC85CCA5C0000AA000000EC
:1006B000000000000000000000000000000000003A
:1006C0000000000000000000000001001050115068
:1006D000000000000000000000000000000000001A
:1006E00000000000C25CBF5C0000000000000000D1
:1006F0003A003B003C003D003E003F00400041000E
:100700004200430000000000000000000000440020
:100710004500680069006A006B006C006D006E00A7
:100720006F00000000000000000000000000AC00AE
:10073000AE00AB000000000070007100720073009A
:10074000000000000000000000000100AA00A80056
:10075000A9000000000000000000000000000000F0
:100760000000000000000000000000000000000089
:100770000000000000000000000000000000000079
:100780000000000000000000000000000000000069
:100790000000000000000000000000000000000059
:1007A0000000000000000000F000F400F500000070
:1007B0004A0052004D000000000000000000000050
:1007C00000000000F200F100F30000000000500003
:1007D00051004F0000000000000000000000000079
:1007E0000000000000000000000000004B000000BE
:1007F0004E000000000000000000000000000000AB
:1008000000000000000000000000000000000000E8
:100810000000000000047F3F1F643214643214782B
:100820003C1E1E140A052223252628292A2C2D2F9A
:100830003032333536383A3B3D3E404243454749F6
:100840004A4C4E5051535557595A5C5E606264662B
:1008500068696B6D6F71737577797B7D7F81838537
:1008600087898A8C8E90929496989A9C9E9FA1A339
:10087000A5A7A8AAACAEAFB1B3B4B6B8B9BBBCBE5D
:10088000BFC1C2C3C5C6C7C9CACBCCCDCED0D1D2D9
:10089000D2D3D4D5D6D7D7D8D9D9DADADBDBDBDCDB
:1008A000DCDCDCDCDDDDDDDDDCDCDCDCDCDBDBDB87
:1008B000DADAD9D9D8D7D7D6D5D4D3D2D2D1D0CEE7
:1008C000CDCCCBCAC9C7C6C5C3C2C1BFBEBCBBB9EC
:1008D000B8B6B4B3B1AFAEACAAA8A7A5A3A19F9E6A
:1008E0009C9A98969492908E8C8A89878583817F32
:1008F0007D7B79777573716F6D6B69686664626013
:100900005E5C5A5957555351504E4C4A49474543DE
:1009100042403E3D3B3A3836353332302F2D2C2A7B
:10092000292826252322FFAA7F5540000101010125
:10093000010101010102020202020202020203039A
:10094000030303030303040404040404040505056A
:10095000050506060606060707070707080808082C
:10096000090909090A0A0A0B0B0B0C0C0C0D0D0DD9
:100970000E0E0E0F0F0F101011111112121313146F
:1009800014151516161717181819191A1A1B1B1CE7
:100990001D1D1E1E1F202021222223242425262641
:1009A000272829292A2B2C2D2D2E2F303132323376
:1009B0003435363738393A3B3C3D3E3F404142437F
:1009C0004445464748494A4C4D4E4F505153545563
:1009D0005658595A5B5D5E5F616264656668696B13
:1009E0006C6D6F7072737577787A7B7D7E80828391
:1009F0008587888A8C8E8F91939596989A9C9EA0D5
:100A0000A2A3A5A7A9ABADAFB1B3B5B7BABCBEC0E1
:100A1000C2C4C6C9CBCDCFD1D4D6D8DBDDDFE2E4AA
:100A2000E7E9EBEEF0F3F5F8FAFDFF040330000020
:100A3000000A03580044003700350000000C03781A
:100A400000690075006400690000000403090409DE
:100A5000023B00020100A0FA0904000001030101A9
:100A6000000921110100012240000705810308004F
:100A70000A0904010001030000000921110100011D
:100A800022C0000705820320000A120110010000A5
:100A90000008CDCD757501000102030105010902B1
:100AA000A10185020901A100050919012905150007
:100AB00025019505750181029501750381010501E7
:100AC000093009311581257F95027508810609389D
:100AD0001581257F950175088106050C0A380215D8
:100AE00081257F950175088106C0C005010980A197
:100AF0000185031A81002A83001601002603009550
:100B00000175108100C0050C0901A10185041A01BD
:100B1000002A9C02160100269C0295017510810096
:100B2000C005010906A1018505050719E029E7159A
:100B30000025019508750181020507190029EF15A7
:100B400000250195F0750181020508190129059517
:100B50000575019102950175039101C00501090612
:100B6000A101050719E029E7150025019508750180
:100B700081029501750881010507190029FF1500FB
:100B800026FF0095067508810005081901290595BD
:100B90000575019102950175039101C011241FBED5
:100BA000CFEFDAE0DEBFCDBF04B603FE27C08091F1
:100BB000950290919602A0919702B0919802873089
:100BC000904BA740B04BD1F4109295021092960230
:100BD000109297021092980214BE84B7877F84BF48
:100BE0000FB6F894A89580916000886180936000AA
:100BF000109260000FBEE0E0F8E3099511E0A0E07C
:100C0000B1E0E6E1FEE502C005900D92A636B1071F
:100C1000D9F722E0A6E6B1E001C01D92A539B207DE
:100C2000E1F70E9409290C94092F0C9400000C9400
:100C3000B4090C943D060C9481062A9A0895229AD0
:100C40000C941D068F9A0895879A0C9422068C980E
:100C50000895849A0C9427068D9A0895859A0C9489
:100C60002C060E941F060E9424060E9429060E944C
:100C70002E060C94B30981E0089581E008951F9336
:100C8000CF93DF9300D000D01F92CDB7DEB749835A
:100C90005A8320918C0189819A81211112C0662387
:100CA00049F00E94381E182F682F89819A810E946E
:100CB000DD1D03C00E940C1E182F69817A81812FCF
:100CC00004C00E94381E69817A810F900F900F90A6
:100CD0000F900F90DF91CF911F910C940D07FC01A5
:100CE000408151816281738184810C943F060E940E
:100CF000681F811102C00E9412200C9431060C94CE
:100D00001706089581E008950C948206CF93C82FAA
:100D10000E941B068C2F0E948406CF91089508958F
:100D20000E9403190E948F062FEF84E39CE021505C
:100D300080409040E1F700C000000C9489210F939F
:100D40001F93CF93DF93EC010E946F068C01BE01CD
:100D50000E941906882309F456C0BE01C8010E94EA
:100D6000C711882309F44FC0BE01C8010E940812B0
:100D7000882309F448C0BE01C8010E94B41088232A
:100D800009F441C08A81882371F001158CE51807A8
:100D900039F00E3D8CE5180731F40E94122033C063
:100DA0000E94900630C006311C4531F50E94B81EE5
:100DB000282F8A814091100150911101882379F0E8
:100DC0002A7A91E009F490E090936601911102C0B3
:100DD00069E201C065E3CA010E947E200AC08091D9
:100DE0006601811102C069E201C065E3CA010E9487
:100DF00089200E94041F07C0CE01DF91CF911F916F
:100E00000F910C943B0680E0DF91CF911F910F91E1
:100E1000089580E090E0089508959FE0799FF001A3
:100E200011249BE4899FE00DF11D1124E60FF11DB3
:100E3000EE0FFF1FEE55FE4F859194910895880F98
:100E4000991FFC01EC5EF74F859194910895CF9323
:100E5000DF930E940D070E94DC08EC01811520E55C
:100E60009207F0F5811530E4930708F024C1883E1D
:100E7000910500F5803E910508F09AC1883A9105E8
:100E800070F4853A910508F09FC08130910509F40E
:100E90008FC108F440C1049708F08AC13CC18F3B60
:100EA000910508F49CC0803C910508F434C1805C35
:100EB0009109F4C0811540E2940758F4C11581E00E
:100EC000D80708F075C1C03FD10508F424C1D0652A
:100ED0006FC1811520E3920708F0E4C09F70DEC067
:100EE000811535E5930708F044C0811544E5940762
:100EF00008F0F8C0C11582E5D80708F5C11521E54D
:100F0000D20708F0DBC08C2F837021E030E002C0F4
:100F1000220F331F8A95E2F73C68CE0174E0969564
:100F200087957A95E1F78370382BCF70C695C69573
:100F300080E2C89FE0011124C22BD32B39C12C2F92
:100F400026952695CE0183709927C115D34508F0C3
:100F5000BAC040E2249F90011124C1E0D0E002C059
:100F6000CC0FDD1F8A95E2F72C2B3D2BE901DC68C5
:100F70001FC1811549E59407A0F4C11588E5D8077C
:100F800008F0B5C0C11526E5D20708F0C4C08C2F03
:100F90000E9470098F71C82FD0E0DC2FCC27D0625F
:100FA00007C181153AE5930708F4A6C0905681154C
:100FB000904208F0B0C08D2F8F710E947009DD271C
:100FC000D0628F71D82BF4C0853A910509F4A6C080
:100FD000863A910509F0A5C0C2E8D0E4E9C0883A94
:100FE000910509F4A1C0893A910509F4A0C08A3A93
:100FF000910509F49FC08B3A910509F49EC08C3A83
:10100000910509F49DC08B3B910509F49CC08C3B74
:10101000910509F49BC08D3A910509F49AC0803B73
:10102000910509F499C08E3A910509F498C08F3A58
:10103000910509F497C0813B910509F496C0823B64
:10104000910509F495C0833B910509F494C0843B54
:10105000910509F493C0853B910509F492C0863B44
:10106000910509F491C0873B910509F490C0883B34
:10107000910509F48FC0893B910509F48EC08D3B21
:10108000910509F48DC08E3B910509F48CC08A3B13
:10109000910509F48BC0C0E0D4E48AC00E941F0708
:1010A000EC0186C09927D3FF03C0EC01D86C80C047
:1010B000EC01D06C7DC0DF70D06A7AC0DC2FCC2709
:1010C000C16FD06A75C040E2249F90011124C1E035
:1010D000D0E002C0CC0FDD1F8A95E2F7C22BD32BE4
:1010E000DA6866C0D82FCC27C46FD06A61C0DC2F05
:1010F000CC27C06FD06A5CC08F700E94700994E0EA
:10110000D695C7959A95E1F7CF70D0E0DC2FCC2724
:10111000D069C82B4DC0C0E0D0E04AC0C1E8D0E4DF
:1011200047C0C3E8D0E444C0C2EED4E441C0C9EE35
:10113000D4E43EC0CAEED4E43BC0C5EBD4E438C02E
:10114000C6EBD4E435C0C3EBD4E432C0C4EBD4E482
:101150002FC0C7EBD4E42CC0CCECD4E429C0CDEC38
:10116000D4E426C0C3E8D5E423C0CAE8D5E420C04F
:10117000C2E9D5E41DC0C4E9D5E41AC0C1E2D6E491
:1011800017C0C3E2D6E414C0C4E2D6E411C0C5E27D
:10119000D6E40EC0C6E2D6E40BC0C7E2D6E408C06F
:1011A000CFE6D4E405C0C0E7D4E402C0CAE2D6E486
:1011B000CE01DF91CF9108958238910569F1B0F4A5
:1011C0008133910509F46DC048F48932910509F421
:1011D00063C08A32910509F469C008958533910589
:1011E00009F455C089339105B9F00895833E9105FE
:1011F00069F138F4803E9105B1F0823E910509F124
:101200000895863E9105A9F1873E9105B9F1843E86
:10121000910509F064C023C02091860220FD4FC0D3
:1012200021FD4DC008958091860280FD44C08091CB
:10123000870280FF44C08091860284FD42C083EE15
:101240004DC08091860282FF38C0F5CF8091860222
:1012500082FD33C08091870280FD31C0ECCF809148
:10126000870281FF32C08091860284FD2AC087EE0A
:1012700035C08091860283FF26C0F5CF809186021B
:1012800083FD21C08091870281FD1FC0ECCF80913A
:10129000860285FD1CC01DC08091860285FD19C097
:1012A00016C08091860286FD16C017C08091860206
:1012B00086FD13C010C089E311C082EE0FC080EE1E
:1012C0000DC080E00BC086EE09C084EE07C089E245
:1012D00005C085E303C08AE201C081E390E0089580
:1012E0009091860292FF0DC0282F2871283019F4A2
:1012F000877F846006C0282F2471243011F48B7FEF
:10130000886093FF0DC0282F2871283119F4877E3B
:10131000846106C0282F2471243111F48B7E8861EA
:101320002091870220FF0DC0382F3871383019F412
:10133000877F816006C0382F3171313011F48E7F84
:10134000886021FF0DC0282F2871283119F4877E6D
:10135000816106C0282F2171213111F48E7E8861B0
:1013600094FD877E089508950895E82FF0E0EE0F2C
:10137000FF1FE15AFD4F8081918108950895A2E3F6
:10138000B1E041E050E025E02A0F8D91E82FE29591
:10139000EF70F0E031A18F70BA0102C0660F771FC5
:1013A0008A95E2F7CB01962F9095932391A392A172
:1013B000892B82A32A13E9CFA3E2B1E041E050E0F8
:1013C0002FE02A0F8D91E82FE295EF70F0E031A128
:1013D0008F70BA0102C0660F771F8A95E2F7CB01C2
:1013E000962F9095932391A392A1892B82A32A13E0
:1013F000E9CFE5E5F2E0AFE5B2E0119211921D927E
:101400001D9272E0EF35F707C1F785E00E94A10A4F
:101410000C9477065F926F927F928F929F92AF9219
:10142000BF92CF92DF92EF92FF920F931F93CF93D1
:10143000DF9302E311E0A5E5B2E0612CEE24E39432
:10144000F12C5D018D909C90119711961C921E922B
:10145000E80189918E01E82FE295EF70F0E091A10B
:101460008F70A70101C0440F8A95EAF7892F842B5A
:1014700081A382A1542E5094852182A3D0EADA95CB
:10148000F1F783E2C82E81E0D82E80E090E0E601FB
:1014900079906E01272D22952F7030E0E90168A127
:1014A0002D913C91119770E0D72DDF7002C075959A
:1014B0006795DA95E2F760FD08C0B701082E02C013
:1014C000660F771F0A94E2F702C060E070E0262BF7
:1014D000372B11963C932E9301968F309105B9F6D8
:1014E00081A1D52DD823D1A382A1482B42A3129646
:1014F00081E0F501208131818216930609F480E0B4
:10150000682AF2E0AF35BF0709F09BCF262D45E0F2
:101510006FE572E085E592E00E94A20A0E947F06D4
:10152000862DDF91CF911F910F91FF90EF90DF906B
:10153000CF90BF90AF909F908F907F906F905F9073
:1015400008950895FF920F931F93CF93DF93F82E82
:10155000092F162FD72FC42F222349F081E0809323
:1015600069010E942D219093680180936701809109
:1015700069018823D9F080916701909168010E94E8
:101580003921069798F0EF2DF02FA12FBD2F80E085
:1015900090E04C2F50E08417950734F4219131915D
:1015A0002D933D930196F7CF10926901DF91CF9172
:1015B0001F910F91FF900895AF92BF92CF92DF924B
:1015C000FF920F931F93CF93DF93D62E372FE82FE1
:1015D000F0E0711106C0E55DF64F6491762F862F1D
:1015E00075C0C72FD0E0E55DF64F2491F22E022F93
:1015F00010E046E0649FC0011124EFEFF0E0BF016E
:101600000E947A2EAB016BEA6403C001659F900DC6
:1016100011248D0D911D8D0D911D982F990F890FFE
:10162000DF01AC1BBD0B0A9FB0010B9F700D1A9F11
:10163000700D1124972F839FD0011124AB2FBB274E
:101640006F01CA1ADB0A0C9DD0010D9DB00D1C9DC7
:10165000B00D11245F01A81AB108AC9E6001AD9EC7
:10166000D00CBC9ED00C1124CD2DDD27EC1BFD0B26
:101670000E9FE0010F9FD00D1E9FD00D1124ED2F66
:101680004230510591F04CF441155105E1F04130E3
:101690005105B9F4E22F2B2F16C04430510569F0E3
:1016A00044F04630510579F00CC0E22F272F9D2FD2
:1016B0000AC0272F9F2DEB2F06C0E72F922F2D2F2B
:1016C00002C0E72F9B2F6E2F722F892FDF91CF91B2
:1016D0001F910F91FF90DF90CF90BF90AF90089532
:1016E0000895CF93DF93762FE901682F842F0E940E
:1016F000DC0A798368838A83DF91CF910895809192
:101700006902282F269530E02115310519F48170E2
:10171000826005C02532310524F081708864809391
:101720006902089588E090E00C94C92ECF93DF936E
:1017300000D000D0CDB7DEB7AB01BC0149835A83DE
:101740006B837C830E947F0B49815A816B817C81F2
:1017500088E090E00F900F900F900F90DF91CF9165
:101760000C94E72EE9E6F2E083E0808311828FEFAC
:1017700082838383148260817181828193810C943E
:10178000960B8091690280FF02C08695089580E0E3
:10179000089580916D02833018F48F5F80936D02FD
:1017A0006091690270916A0280916B0290916C0263
:1017B0000C94960B80916D02882319F081508093D0
:1017C0006D026091690270916A0280916B02909142
:1017D0006C020C94960B6091040170E08091690298
:1017E00080FF0AC080916E0123E0829FC001112416
:1017F00082599D4F0C94571180916D019091030176
:10180000891780F7E82FF0E09F01220F331FE20FC6
:10181000F31FE259FD4F1182108212828F5FF0CFC9
:101820009091690290FF16C090916D012091030183
:10183000921770F4E92FF0E0DF01AA0FBB1FEA0F47
:10184000FB1FE259FD4F8183608342839F5FF0CF8E
:101850000C94EB0B0895CF93DF9300D01F92CDB77C
:10186000DEB79091690290FF0AC09E012F5F3F4F43
:101870000E94710B4B8169818A810E94100C0F902C
:101880000F900F90DF91CF910895CF93DF93EC01EC
:10189000EC81F0E0EA5DF74F4491E9E6F2E0628125
:1018A00081810E942B0C8C818F5F8C83DF91CF9183
:1018B0000895CF93DF93EC01E9E6F2E04381628182
:1018C0008C810E942B0C8C818F5F8C83DF91CF9158
:1018D00008950F931F93CF93DF9300D01F92CDB73E
:1018E000DEB78C0180916A0181110AC09E012F5FD1
:1018F0003F4F4FEF6FEF0E94710B8A8180936A0117
:10190000F8018481813051F028F0823061F44091F7
:101910006A010AC080916A0140E007C060916A01D3
:1019200040E080E003C040E080E060E00E94100CF6
:10193000F801248130E0C901019663E070E00E9463
:101940008E2E84830F900F900F90DF91CF911F9177
:101950000F910895AF92BF92CF92DF92EF92FF92D4
:101960000F931F93CF93DF9300D01F92CDB7DEB7B5
:10197000182FF62E042FE22E9091690290FF6EC070
:10198000E92FE695AE2FB0E0A95CBE4F8C91809315
:1019900076019E7F923061F49E012F5F3F4F812F31
:1019A0000E94710B4B8169818A810E94100C44C096
:1019B000823019F400916C023FC0863019F4109106
:1019C0006A023AC08930D9F38931B1F5E9518E2FD5
:1019D0008170D82EE695F0E0EA5DF64FA590B490C0
:1019E000C12CBB2460910201C61620F5EC2DF0E05D
:1019F000EA9DC001EB9D900DFA9D900D112470E0C1
:101A00000E947A2E812FD11002C0860F01C0861B42
:101A100090916D01E90FF11D9F01220F331FE20F1D
:101A2000F31F9F0122593D4F402F6F2D0E94710BD4
:101A3000C394D8CF0E94EB0B10936A02F0926B0212
:101A400000936C02EE2051F06091690270916A027D
:101A500080916B0290916C020E94960B0F900F90F8
:101A60000F90DF91CF911F910F91FF90EF90DF903A
:101A7000CF90BF90AF900895E9E6F2E09181282FD2
:101A8000438162818CE0890F0C94AA0C81E00C9454
:101A90003C0DE9E6F2E09181282F4381628184EFD9
:101AA000890F0C94AA0C81E00C94490DE9E6F2E050
:101AB000628129E1620F08F46FEF282F4381818151
:101AC0000C94AA0C81E00C94560DE9E6F2E06281D8
:101AD00029E1621B08F460E0282F438181810C9486
:101AE000AA0C81E00C94650DE9E6F2E043812CE05C
:101AF000420F08F44FEF282F628181810C94AA0CC9
:101B000081E00C94740DE9E6F2E043812CE0421B85
:101B100008F440E0282F628181810C94AA0C81E0B6
:101B20000C94830D20E00C94AA0CFF920F931F934A
:101B3000CF93DF93EC01F12C0FEF10E060910201E5
:101B4000F616E8F420916D0130E02F0D311DC9012A
:101B5000880F991F280F391F22593D4F70E0C80187
:101B60000E948E2E962F8C8140916C0260916B02A8
:101B7000F99E800D11240E94710BF394DFCF0E9417
:101B8000EB0B9A818C8190FF02C08F5F01C0815066
:101B90008C83DF91CF911F910F91FF900895AF92A9
:101BA000BF92CF92DF92EF92FF920F931F93CF934A
:101BB000DF93FC01828180FF02C00FEF01C001E0D2
:101BC00010E046E0A42E80910201181708F043C0EF
:101BD000C12ED12C80916D01E601C80FD11DCE011F
:101BE000880F991FC80FD91FC259DD4F198218825B
:101BF0001A8234E0E32EF12CB12C80916C018B0D14
:101C000087302CF06A2D0E946C2E892F05C087FF2B
:101C100003C090910201890F082E000C990BC81681
:101C2000D90691F480916C028E9DA0018F9D500D7C
:101C3000112455954795559547959E0160916B02E6
:101C400080916A020E94710BB00EF1E0EF1AF10868
:101C5000A1F61F5FB8CF0E94EB0B80916C010130A1
:101C600031F4811102C080910201815007C090E0DF
:101C700001966091020170E00E948E2E80936C01AB
:101C8000DF91CF911F910F91FF90EF90DF90CF9058
:101C9000BF90AF900895CF9380916D019091030113
:101CA000891770F4E82FF0E09F01220F331FE20F35
:101CB000F31FE259FD4F1182108212828F5FF0CF25
:101CC000C0E060910201C617B8F5EC2FF0E070E0BB
:101CD000CF010E948E2E40916D01480F80916B01C3
:101CE000082E000C990B50E0E817F907C4F020917A
:101CF0000101022E000C330B2E173F0784F09A01CE
:101D0000220F331F240F351F22593D4F40916C0283
:101D100060916B0280916A020E94710B0BC0FA0104
:101D2000EE0FFF1F4E0F5F1FFA01E259FD4F1182A8
:101D300010821282CF5FC5CF0E94EB0B2091000171
:101D400080916B01820F80936B0190910101920F42
:101D50009093010119165CF4082E000C990B409128
:101D6000020150E041505109841795071CF021955C
:101D700020930001CF9108950F931F93CF93DF938A
:101D80008C01FC018481958101968170992795834E
:101D90008483C0E0D5E580910201C817F8F4209152
:101DA0006D0130E02C0F311DC901880F991F280FDC
:101DB000391F22593D4F4C2F4695F801848195815A
:101DC000840F911D817040916C0260916B028D9F18
:101DD000802D11240E94710BCF5FDDCFDF91CF9159
:101DE0001F910F910C94EB0B0F931F93CF93DF93E5
:101DF000EC0100E010E080910201282F30E0021792
:101E0000130724F590916D019801290F311DA90147
:101E1000440F551F240F351F22593D4F869590E0E2
:101E20004C81081719071CF4442331F002C04111FA
:101E300003C040916C0201C040E060916B02809150
:101E40006A020E94710B0F5F1F4FD5CF0E94EB0BF0
:101E50002C8130E02F5F3F4F217033272C83DF919F
:101E6000CF911F910F910895E9E6F2E080818E7F76
:101E7000808360817181828193810E94960B109290
:101E800077012FEF80E792E0215080409040E1F70A
:101E900000C000000C94EB0B60916902669570E045
:101EA0004BE050E085E091E00E94B42E892B19F4BC
:101EB00081E0809377010E942D219093700180939F
:101EC0006F0108959091690290FF35C09170811162
:101ED00002C0926006C0853210F0986402C0880F7C
:101EE000982B90936902662351F06091690270917A
:101EF0006A0280916B0290916C020E94960B609135
:101F00006902669570E04BE050E085E091E00E9448
:101F1000B42E892B19F01092770102C00E944C0F49
:101F200081E08093720140916C0260916B0280911C
:101F30006A020C94920D0895682F9091690296950B
:101F400081E0890F853208F081E00C94620F81E016
:101F50000C949C0F682F9091690296958FEF890FD2
:101F600009F484E20C94620F81E00C94AA0F61E002
:101F70000C94620FE9E6F2E08081816080838695AF
:101F80000C94B70F8091690280FD0C94340F0C946F
:101F9000BA0F60E00C94620F8091750181112EC020
:101FA0000E94681F811104C00E9412200E94B20B7F
:101FB0000E94920B6093690270936A0280936B0295
:101FC00090936C026E7F61F40E94B20B0E94920BA0
:101FD0006093690270936A0280936B0290936C0223
:101FE0000E947F0B109277018091690280FF03C0ED
:101FF00086950E94C90F81E08093750108950F9323
:102000001F93CF93DF9380917701882309F48CC0CD
:1020100080917601E0916902E695E81BE0937101F9
:10202000823049F4F0E0EE5DF74FE491CE2FD0E03E
:1020300005E41CE049C0863049F4F0E0E15EF74F6A
:10204000E491CE2FD0E009E51CE03EC0893051F488
:10205000E695F0E0E45EF74FE491CE2FD0E005E99D
:102060001DE032C08F3051F4E695F0E0E75EF74FA7
:10207000E491CE2FD0E00FEC1DE026C0853149F46D
:10208000F0E0EA5EF74FE491CE2FD0E00BE41EE0E3
:102090001BC0883181F0833239F4E4E1F8E0C59166
:1020A000D49109E61CE010C0843251F4C4EFD1E0B1
:1020B00004EF1EE009C0C8EED3E00CEB1EE004C044
:1020C000C0EDD7E000E71BE080917201882389F022
:1020D000109272010E942D219E0120953095820F51
:1020E000931F9093700180936F011092740110926E
:1020F000730180916F01909170010E9439218C17BA
:102100009D0790F0E0916F01F0917001CE0FDF1FFD
:10211000D0937001C0936F018FE691E0F801DF91D9
:10212000CF911F910F910994DF91CF911F910F9142
:102130000895882311F0FA0101C0FB010994CF939F
:10214000DF93C82FD62F0E94C10B8C1740F00E943E
:10215000C10B8D1720F4DF91CF910C94A70F8C2F1A
:10216000DF91CF910C94B70F0F931F93CF93FB0187
:10217000C281CC2309F463C08C010E94B81E827214
:10218000F801E25CFC45E431F10508F059C0EA5A77
:10219000FF4F0C94A22E0E94C20F06C044EB5FE0DA
:1021A00067EA7FE00E949910C0E04AC047EA5FE01A
:1021B00064EB7FE0F7CF43E55DE066E47DE0F2CFDE
:1021C00046E45DE063E57DE0EDCF41E75DE062E69A
:1021D0007DE0E8CF42E65DE061E77DE0E3CF4FE8F8
:1021E0005DE060E87DE0DECF40E85DE06FE87DE047
:1021F000D9CF4AED5BE069EC7BE0D4CF49EC5BE002
:102200006AED7BE0CFCF81E017C065E082E010C0CF
:1022100068E086E00DC06EE089E00AC064E18FE00E
:1022200007C067E185E104C088E106C062E289E198
:102230000E949F10B9CF83E20E94B70FB5CFC1E0D3
:102240008C2FCF911F910F91089521B3342F30958A
:10225000232331B3432B3FB7F894FC01680F791F58
:10226000E617F70789F0819198E041BB000000C0B4
:1022700087FF21BB880F000000C000C000C021BB49
:1022800000C09A9591F7ECCF3FBF089520B3242B5F
:1022900020BB9B01220F331F620F731F0E94251169
:1022A00087EC90E00197F1F700C00000089540E44A
:1022B0000C9446110F931F93CF93DF93C62FD42F07
:1022C000022FFC0182818823C9F060937A010E9469
:1022D0002D21909379018093780180E28C0F8830D2
:1022E00008F050C0C77081E001C0880FCA95EAF7B6
:1022F000DF91CF911F910F910C94521610917A019A
:10230000161330C080917801909179010E94392193
:10231000883C910538F5C0E2CD0F1D17B9F080E279
:10232000810F883040F4177081E001C0880F1A9542
:10233000EAF70E945916C83048F481E09D2F977043
:1023400001C0880F9A95EAF70E945216802F0E94CA
:102350003F16C830B8F4D77081E001C0880FDA9515
:10236000EAF70AC080E28C0F883060F4C77081E021
:1023700001C0880FCA95EAF7DF91CF911F910F91A5
:102380000C945916DF91CF911F910F9108959C01E4
:10239000CB01233F4CE53407F9F078F4283DFCE508
:1023A0003F07B9F0293D4CE5340711F1273D3C4585
:1023B00031F526E241EE61EE1EC0253FFCE53F0708
:1023C00099F070F0263F3C45D1F427E245EE66EEE9
:1023D00012C027E245EE0EC026E241EE60EE0BC0D1
:1023E00027E245EE64EE07C026E241EE62EE03C04E
:1023F00028E241E065EE0E945A1180E00895FC0158
:102400008281882319F010927A01089581E008955D
:10241000CF93DF93EC01FB018281882309F41FC174
:10242000C230FCE5DF0708F41BC1C6319CE5D907C3
:1024300038F09E012A5F3C452930310508F010C173
:102440000E94851F9093870280938602C031ECE53D
:10245000DE0709F4C3C008F041C0C8308CE5D807D6
:1024600009F49AC0F0F4C430ECE5DE0709F487C043
:1024700068F4C2308CE5D80709F477C0C330DC4576
:1024800009F0E3C080918602826076C0C630ECE538
:10249000DE0709F46EC008F07BC080918602886078
:1024A0006BC0CC308CE5D80709F485C068F4CA301D
:1024B000ECE5DE0709F474C008F079C00E94031946
:1024C00080918602806858C0CE308CE5D80709F428
:1024D00076C008F07FC0809186028BC0CB3FECE5D0
:1024E000DE0709F44FC018F5C3318CE5D80709F4AD
:1024F0007DC078F4C131ECE5DE0709F473C0C23168
:10250000DC4509F0A2C00E940319809186028F77F2
:1025100033C0C5318CE5D80709F472C008F486C011
:10252000CA3FDC4509F091C0809187023EC0CF3F91
:10253000FCE5DF0709F45FC058F4CD3F9CE5D907FF
:1025400009F444C008F43FC08091870282602DC026
:10255000C130FDE5DF0709F475C008F45DC0C23085
:10256000DD4509F072C080E06EC080918602816016
:1025700003C08091860280618093860266C080914C
:10258000860211C0809187028260809387025DC0BD
:10259000809186028062F0CF809186028064ECCFC9
:1025A0008091860288608460E7CF8160EECF809161
:1025B00086028E7FE1CF809186028D7FDDCF809174
:1025C0008602877FD9CF8091870218C080918702C9
:1025D0008D7FDBCF809186028F7ECECF8091860269
:1025E0008F7DCACF809186028F7BC6CF8091860275
:1025F000877F8B7FC1CF809187028D7F8E7FC5CFF4
:102600008091860282FB222720F991E0922790FB9D
:1026100082F990FB83F9B0CF80918702982F909533
:1026200091708E7F892B90FB81F9AFCF0E940319A7
:102630008091860287FB222720F991E0922790FB68
:1026400087F99ACF81E00E941420809186029091B0
:1026500087020E94961F0E94031980E001C081E05A
:10266000DF91CF9108959093800180937F01089529
:10267000E0917F01F0918001309721F00190F0818D
:10268000E02D099480E00895E0917F01F0918001B0
:10269000309799F020912201222359F0209186024F
:1026A00027FF07C0DC012C9111962C93119725E090
:1026B0002C930280F381E02D09940895E0917F012D
:1026C000F0918001309739F022E0DC012C930480F6
:1026D000F581E02D0994089520917D0130917E01CE
:1026E0008217930771F090937E0180937D01E091B2
:1026F0007F01F0918001309721F00680F781E02D75
:102700000994089520917B0130917C0182179307F1
:1027100071F090937C0180937B01E0917F01F091B7
:102720008001309721F00084F185E02D099408950F
:1027300085B7806885BF85B7806885BF089508958F
:1027400008950C94A01308950C94A3130E94981359
:102750000E949F130C94A11381E008950E942421EC
:102760000E94BF090E94F9210E94CC0F0C94A4136F
:102770007F928F929F92AF92BF92CF92DF92EF9211
:10278000FF920F931F93CF93DF93CDB7DEB72A97B6
:102790000FB6F894DEBF0FBECDBF0E940A0A0E949A
:1027A000AC13811111C08FEF89838A831B820E9431
:1027B0002D218160782F9D838C8349815A816B8183
:1027C0008D810E946A144FC032E8832E31E0932E2F
:1027D00000E010E0702E802F0E94B5096C01F4011A
:1027E000A190B1904F01A826B926A114B10431F4EB
:1027F0000F5F1F4F0530110569F7D5CF8091240277
:1028000081FD0E94BE0990E0EE24E394F12C970133
:102810002A213B21232B09F19E837F82CE20DF20BA
:1028200091E0CD2809F490E098870E942D218160E5
:10283000782F9A8789874E815F8168858A850E9473
:102840006A14000F111FF801EE57FE4F808191812D
:10285000E826F926F182E08206C09F5FEE0CFF1C9D
:102860009F30A9F6C5CF0E94FF0F0E94AD241091A2
:1028700081010E9438131817C9F00E943813809301
:1028800081012A960FB6F894DEBF0FBECDBFDF914F
:10289000CF911F910F91FF90EF90DF90CF90BF905D
:1028A000AF909F908F907F900C9486062A960FB6DB
:1028B000F894DEBF0FBECDBFDF91CF911F910F9176
:1028C000FF90EF90DF90CF90BF90AF909F908F9050
:1028D0007F900895CF93DF93CDB7DEB72B970FB6D8
:1028E000F894DEBF0FBECDBF4F83588769877A87C4
:1028F0008B87DE01119686E0FD0111928A95E9F73A
:1029000085E0FE01379601900D928A95E1F74981A5
:102910005A816B817C818D819E810E94AD1B2B969B
:102920000FB6F894DEBF0FBECDBFDF91CF910895F3
:10293000FC01808191810E94791E0895CF93DF93DD
:102940001F92CDB7DEB7882309F42DC1682F8238D6
:10295000C1F40E94381381FD26C169E38091100102
:10296000909111010E947E200E94041F2FEF81EEA2
:1029700094E0215080409040E1F700C0000069E3FE
:1029800019C0833811F50E94381380FD0CC163E52E
:1029900080911001909111010E947E200E94041FDD
:1029A0002FEF81EE94E0215080409040E1F700C08D
:1029B000000063E580911001909111010E9489202F
:1029C0000F90DF91CF910C94041F8438C1F40E94C2
:1029D000381382FDE8C067E48091100190911101E5
:1029E0000E947E200E94041F2FEF81EE94E0215070
:1029F00080409040E1F700C0000067E4DBCF8CEF3F
:102A0000860F813A70F4862F69830E94B626698109
:102A10008111C9C080911001909111010E947E2006
:102A2000CFCF80E2860F883048F4677081E001C024
:102A3000880F6A95EAF70E94BB1EC2CF8BE5860F0E
:102A4000833088F4653A29F0663A31F083E890E003
:102A500005C081E890E002C082E890E00F90DF912D
:102A6000CF910C946C1388E5860F873108F091C0E4
:102A7000683A09F445C0693A09F445C06A3A09F46C
:102A800045C06B3A09F445C06C3A09F445C06B3B4C
:102A900009F445C06C3B09F445C06D3A09F445C0E2
:102AA000603B09F445C06E3A09F445C06F3A09F439
:102AB00045C0613B09F445C0623B09F445C0633B36
:102AC00009F445C0643B09F445C0653B09F445C0C1
:102AD000663B09F445C0673B09F445C0683B09F40F
:102AE00045C0693B09F445C06D3B09F445C06E3BE8
:102AF00009F445C06A3B09F445C080E090E044C059
:102B000082EE90E041C089EE90E03EC08AEE90E017
:102B10003BC085EB90E038C086EB90E035C083EB9E
:102B200090E032C084EB90E02FC087EB90E02CC0A7
:102B30008CEC90E029C08DEC90E026C083E891E019
:102B400023C08AE891E020C082E991E01DC084E9B9
:102B500091E01AC081E292E017C083E292E014C0D3
:102B600084E292E011C085E292E00EC086E292E03B
:102B70000BC087E292E008C08FE690E005C080E7D6
:102B800090E002C08AE292E00F90DF91CF910C9426
:102B90008213603F40F0862F0E94B5230F90DF9193
:102BA000CF910C94A2240F90DF91CF9108958823A8
:102BB00009F464C0823879F40E94381381FF5EC042
:102BC00069E380911001909111010E947E200E9482
:102BD000041F69E310C08338B1F40E94381380FFEA
:102BE0004DC063E580911001909111010E947E20FB
:102BF0000E94041F63E580911001909111010E94D1
:102C000089200C94041F843879F40E94381382FFC1
:102C100035C067E480911001909111010E947E20DF
:102C20000E94041F67E4E7CF9CEF980F913A10F4DD
:102C3000682FE1CF90E2980F983050F4877091E0C0
:102C400001C0990F8A95EAF7892F0E94C11ED9CF3A
:102C50009BE5980F933020F480E090E00C946C1387
:102C600098E5980F973120F480E090E00C9482135F
:102C7000803F20F00E941D240C94A2240895CF933D
:102C8000C82F0E949E14C93349F42FEF87EE93E0BA
:102C9000215080409040E1F700C000008C2FCF9180
:102CA0000C94D715882321F00E94BB1E0C94041F9E
:102CB0000895882321F00E94C11E0C94041F0895DA
:102CC000BF92CF92DF92EF92FF920F931F93CF9319
:102CD000DF937C01062FC72FFC01158112951F7011
:102CE000D281D1110E94D81E0E94B11E882379F092
:102CF000DD2369F080E2800F883048F082E00E9496
:102D00004F1F0E94B11E91E0B82EB92601C0B12C10
:102D1000CC2EC2948FE0C822D12CF601E659FF4F89
:102D20000C94A22E8C2F807FCF70882311F0C29537
:102D3000C07FDD2399F0CC2309F4CEC180E2800F5F
:102D4000883010F0011104C08C2F0E94BB1E03C0FC
:102D50008C2F0E94CB1E0E94041FBEC1802F0E9498
:102D6000D715CC2309F4DDC180E2800F883010F044
:102D7000011104C08C2F0E94C11E03C08C2F0E9421
:102D8000D11E0E94041FCDC18C2F807FCF70803256
:102D900011F0C295C07F002319F00130C9F022C0A4
:102DA000DD2371F0112341F0113031F40E94EB1E4C
:102DB0008C2B0E94F11EB5C10E94EB1E8C2B1DC0F6
:102DC000112319F0113009F4ACC10E94FA1E25C07C
:102DD000DD2321F0163008F0A4C10EC0153008F034
:102DE000A0C11BC0DD2361F0112331F0F701858103
:102DF00080FF72C18F7085838C2F0E94521691C103
:102E0000112359F0093309F078C1FFEF27EE83E071
:102E1000F15020408040E1F76EC18C2F0E9459167E
:102E200080C18C2F86958695837090E0009719F06D
:102E3000019761F076C1DD2321F0802F9C2F9370E4
:102E400002C080E090E00E946C1376C1DD2321F087
:102E5000802F9C2F937002C080E090E00E9482132C
:102E60006BC1DD23F9F0053F51F0063F71F0043FDF
:102E7000A9F4809180029091810281600BC08091C1
:102E8000800290918102826005C0809180029091C1
:102E9000810284609093810280938002802F0E943F
:102EA000B5231EC0053F51F0063F71F0043FA9F461
:102EB00080918002909181028E7F0BC08091800270
:102EC000909181028D7F05C0809180029091810256
:102ED0008B7F9093810280938002802F0E941D241B
:102EE0000E94A22429C18C2F837009F049C0D111FE
:102EF0001FC1402F429546954770440F440F602FE5
:102F00006F70862F90E0A0E0B0E0042E04C0880F20
:102F1000991FAA1FBB1F0A94D2F704FF10C00FE02D
:102F200010E020E030E004C0000F111F221F331F0B
:102F30004A95D2F7009510952095309503C000E092
:102F400010E09801C695C695C370D0E0BC01CD01D4
:102F5000602B712B822B932BC230D10559F0C330DB
:102F6000D10559F0219719F00E94F21CE1C00E948E
:102F7000E01CDEC00E94041DDBC00E94DE1CD8C025
:102F8000DD2319F08C2F817001C08695882309F408
:102F9000CFC0402F429546954770440F440F602F95
:102FA0006F70862F90E0A0E0B0E0042E04C0880F80
:102FB000991FAA1FBB1F0A94D2F704FF10C00FE08D
:102FC00010E020E030E004C0000F111F221F331F6B
:102FD0004A95D2F7009510952095309503C000E0F2
:102FE00010E09801C695C695C370D0E0BC01CD0134
:102FF000602B712B822B932BC230D10559F0C3303B
:10300000D10559F0219719F00E94B81D91C00E9476
:10301000A61D8EC00E94CA1D8BC00E94191D88C0AB
:10302000CF70DD2339F08C2F0E943F1D802F0E942E
:1030300052167EC0802F0E9459168C2F0E94601D50
:1030400077C0023F01F128F4003F41F0013FA1F0B9
:103050003FC0033FF9F0043F39F13AC0DD2341F0AE
:10306000153008F05EC08C2F8F710E94851D59C0ED
:10307000163008F056C0F7CFDD2339F08C2F8F7152
:103080000E943F1D4EC0DD23C9F38C2F8F710E941B
:10309000601D47C0DD2329F08C2F8F710E942A1DEF
:1030A00040C00E94251D3DC0DD2349F0CF718C2F0B
:1030B0000E943F1D63E08C2F0E943A1F32C081E0C6
:1030C0000E944F1F123068F182E00E944F1F29C0FA
:1030D000DD2331F0112391F2802F0E949E1421C034
:1030E000112399F2093349F49FEFE7EEF3E0915091
:1030F000E040F040E1F700C00000802F0E94D715AB
:1031000010C04C2F4F70602FC7010E9409070E940A
:10311000511C12C04C2F4F70602FC7010E940C072A
:103120000BC028E0C21AD10884E0C816D10420F4EC
:103130000E9438130E948606BB20D1F00E94AD1E6B
:1031400080FD16C0F70112820E94A71E0E943F1D3B
:10315000C7010E94C2180E94A71EDF91CF911F9144
:103160000F91FF90EF90DF90CF90BF900C94601D77
:10317000DF91CF911F910F91FF90EF90DF90CF9053
:10318000BF9008950F931F93CF93DF93EC01888135
:1031900099812B813C81232BB9F09F3F11F48F3F04
:1031A00099F0CE010E949F06882371F06881798191
:1031B0008A810E94841E8C010E94DC1D0E94DD1CFD
:1031C000B801CE010E946016DF91CF911F910F913F
:1031D00008950E94D81E0E94E81E0E94041F0E94AB
:1031E00048250E94A22480E090E00E946C1380E0B9
:1031F00090E00C94821380911001909111010E9433
:1032000094200C94E9180E94C81E0C94FB18E92F16
:10321000E295EF70F0E03297EE30F105B0F4E65849
:10322000FF4F0C94A22E803F91F018F4883E68F472
:103230000EC0843F51F40BC0883E48F0813F29F412
:1032400006C093FB882780F9089580E0089581E007
:1032500008950E94791E0E9407190895CF93DF9365
:1032600000D000D01F92CDB7DEB70F900F900F9017
:103270000F900F90DF91CF910895CF93DF9300D0FF
:1032800000D000D0CDB7DEB726960FB6F894DEBFDB
:103290000FBECDBFDF91CF9108951F93CF93DF93E2
:1032A000C0918D0116E080918E01C81799F0D0E091
:1032B0001C9FF0011D9FF00D1124E157FE4F40812E
:1032C000518162817381848195810E943D1921968B
:1032D000C770E9CFDF91CF911F9108954091BF0151
:1032E0005091C0016091C1017091C2018091C301F0
:1032F0009091C4010C943D198091C40182958F7006
:1033000009F054C08091C101882309F44FC0809115
:103310008D01A0918E016091BF017091C00140911B
:10332000C2015091C301B6E08A1709F43FC090E092
:1033300041155105C1F17F3F11F46F3FA1F1B89FD5
:10334000F001B99FF00D1124E157FE4F2181721356
:103350002AC02081621327C02281211124C0238129
:1033600034812417350710F421503109241B350B03
:10337000283C3105C0F42091C4012F7020612093B6
:10338000C40126E0289FF001299FF00D1124EC567E
:10339000FE4F80818F70806180838FEB91E00E946F
:1033A000C2180C944D1901968770BECF0895CF9224
:1033B000DF92EF92FF920F931F93CF93DF93CDB7DE
:1033C000DEB762970FB6F894DEBF0FBECDBF8C019B
:1033D00085E0F801DE011D9601900D928A95E1F7D6
:1033E000D8014C9111965C91119712966C9112979D
:1033F0001396CD90DC9014973091BF017091C0016D
:103400008091C2019091C301009709F46BC17F3F85
:1034100019F43F3F09F466C1E090C101EE2009F4C0
:10342000C0C02091C401C816D90628F0F601E81BD7
:10343000F90BCF0104C0809590958C0D9D1DFF2444
:10344000F394883C910578F0F12C207F09F0C6C0F8
:103450007C2DD98AC88A89890E942E198FEB91E028
:103460000E94C218B1C0822F807F09F046C0751338
:1034700014C0341312C0611110C02F70206120934A
:10348000C4010E946E198FEB91E00E94C2188091D6
:10349000C401D80115968C932EC0CD2819F15F3F39
:1034A00011F44F3FF9F0F62E61111CC080918D018F
:1034B00020918E0136E0821709F45AC090E0389FBF
:1034C000F001399FF00D1124E157FE4F7181571320
:1034D00006C07081471303C07281711103C0019649
:1034E0008770E9CFF62E662309F427C18091C401C5
:1034F00081608093C401F12C20C1751308C034137E
:1035000006C0611104C08091C401D801C3C04D87B9
:103510005E878D859E856A8B0E9429196A8988231A
:10352000E1F16623D1F12091C401822F82958F7041
:1035300090E0029774F08091BF019091C00198874C
:103540008F831986DB86CA862C87CE0107960E9458
:10355000C21886E0F801AFEBB1E001900D928A95B8
:10356000E1F70E947C190E946E19FF24F394E5C0D4
:103570004D875E878D859E850E94791E292F229515
:103580002F7030E0223031050CF0CBC09F7009F075
:10359000C5C0805E883008F4D0C0C8010E94C2183F
:1035A000E4CFC816D90608F453C0F601E81BF90B9E
:1035B000CF01883C910508F450C0F12C7C2DD98AAC
:1035C000C88A89890E942E19EFEBF1E086E0DF01BD
:1035D0001D928A95E9F70E946E19AFC0751314C049
:1035E000341312C0611110C08091C401F8018583A9
:1035F000C8010E94C21886E0EFEBF1E0DF011D92E6
:103600008A95E9F7FE2C99C04D875E878D859E854A
:103610006A8B0E9429196A89882309F4BECF662320
:1036200009F4BBCF2091C401822F82958F7090E066
:1036300002970CF48ECF8091BF019091C0019A83C4
:1036400089831B82DD82CC822E83CE0101967FCFBF
:10365000809590958C0D9D1DACCFF62E662309F4B8
:103660009CCF75132EC034132CC02091C40120FDB3
:103670001FC0822F82958F70D9F0D80115962C9398
:1036800015978F3049F08F5F982F9295907F822FFA
:103690008F70892B15968C93C8010E94C21886E002
:1036A000F801AFEBB1E001900D928A95E1F793CF6D
:1036B00086E0F801AFEBB1E001900D928A95E1F759
:1036C0003CC04D875E878D859E850E94291981119A
:1036D00040CF8091C40181608093C401C8010E94E1
:1036E000C2182BC0662309F458CF4D875E878D859D
:1036F0009E850E942919F82E882309F44ECF86E072
:10370000F801AFEBB1E001900D928A95E1F78FEBF4
:1037100091E00E9498140E947C195DCF811139CFED
:103720000CC0243031050CF038CF9F7009F431CF34
:10373000F8019581907F09F02CCF8F2D62960FB6FE
:10374000F894DEBF0FBECDBFDF91CF911F910F91D7
:10375000FF90EF90DF90CF9008951F93CF93DF936A
:10376000CDB7DEB72C970FB6F894DEBF0FBECDBF36
:103770004F83588769877A878B879C87CE01079606
:103780000E94D719882369F08F8198852A853B8507
:10379000232BF1F19F3F09F063C08F3F09F060C018
:1037A00037C086E0FE013796DE01119601900D923A
:1037B0008A95E1F76F817885EA85FB85309741F13D
:1037C0007F3F11F46F3F21F120918E0130E0C9015C
:1037D00001968770992740918D0150E084179507D5
:1037E00009F447C069837A83FD83EC8396E0929F56
:1037F000D001939FB00D1124A157BE4FFE01319609
:1038000001900D929A95E1F780938E010E944D19D7
:1038100016E080918D0190918E018917C1F1189F5A
:10382000C001112481579E4F0E94D719882379F136
:10383000E0918D011E9FF0011124E157FE4F408160
:10384000518162817381848195810E943D198091AB
:103850008D0190E001968770992780938D01D9CFD3
:103860004F81588569857A858B859C850E943D1995
:10387000CFCF0E94031910928E0110928D01EFEBB1
:10388000F1E086E0DF011D928A95E9F7C1CF2C9621
:103890000FB6F894DEBF0FBECDBFDF91CF911F9161
:1038A0000895EF92FF920F931F93CF93DF938C01B4
:1038B000892B09F46CC0F12CEE24E394E8012196E5
:1038C000F8018491843740F4843008F051C081308D
:1038D00081F0823019F15BC0853709F444C0A8F14A
:1038E0009CE7980F903708F052C08F770E94D71549
:1038F00041C00E5F1F4FFE01C49180E28C0F8830E3
:1039000048F4C7708E2D01C0880FCA95EAF70E944F
:10391000DB1E14C08C2F0E949E142DC00E5F1F4F03
:10392000FE01C49180E28C0F883058F4C7708E2D50
:1039300001C0880FCA95EAF70E94E11E0E94041F89
:103940001AC08C2F0E94D71516C00E5F1F4FFE01A4
:10395000C491CC2381F08FE99FE00197F1F700C07B
:103960000000C150F6CF0E5F1F4FFE01F49003C060
:103970000E949E148E018F2D882309F49FCFEFE9BA
:10398000FFE03197F1F700C000008150F5CFDF91E3
:10399000CF911F910F91FF90EF90089508950C948F
:1039A000CE1C0E94CF1C6093FB017093FC0180939E
:1039B000FD019093FE010C94E91808950C94D11C1C
:1039C0000F931F930091FB011091FC012091FD01C9
:1039D0003091FE01602B712B822B932B1F910F9145
:1039E0000C94D11C0F931F930091FB011091FC01CB
:1039F0002091FD013091FE016023712382239323E6
:103A00001F910F910C94D11C0F931F930091FB01F8
:103A10001091FC012091FD013091FE01602771277A
:103A2000822793271F910F910C94D11C08950C9419
:103A3000161D0E94171D6093F7017093F801809383
:103A4000F9019093FA010C94E91860E070E0CB0161
:103A50000C94191D0F931F9341E050E060E070E05B
:103A60008A019B0104C0000F111F221F331F8A957A
:103A7000D2F7C901B8011F910F910C94191D0F9332
:103A80001F9341E050E060E070E004C0440F551F18
:103A9000661F771F8A95D2F78091F7019091F80100
:103AA000A091F901B091FA018A019B01082B192B11
:103AB0002A2B3B2BC901B8011F910F910C94191DA2
:103AC0000F931F9341E050E060E070E004C0440FAA
:103AD000551F661F771F8A95D2F7409550956095C0
:103AE00070958091F7019091F801A091F901B09142
:103AF000FA018A019B01082319232A233B23C901C8
:103B0000B8011F910F910C94191D0F931F9341E061
:103B100050E060E070E004C0440F551F661F771F3F
:103B20008A95D2F78091F7019091F801A091F9015F
:103B3000B091FA018A019B01082719272A273B2700
:103B4000C901B8011F910F910C94191D0F931F9378
:103B50000091F7011091F8012091F9013091FA01DB
:103B6000602B712B822B932B1F910F910C94191D9D
:103B70000F931F930091F7011091F8012091F90123
:103B80003091FA0160237123822393231F910F91B7
:103B90000C94191D0F931F930091F7011091F801D8
:103BA0002091F9013091FA0160277127822793272C
:103BB0001F910F910C94191D08952FE0929F800D75
:103BC0001124A82FA695A695A695877051E001C04F
:103BD000550F8A95EAF785E0A89FD001112420E0CF
:103BE00030E070E0F901EA0FFB1FEB53FE4F40811C
:103BF000CB01022E02C0969587950A94E2F7817058
:103C00009927819584278523842780832F5F3F4FC1
:103C10002530310539F708952FE0929F800D11244A
:103C2000682F669566956695982F977085E0689FD2
:103C3000B001112440E050E080E0FA01E60FF71FE8
:103C4000EB53FE4F208130E0092E02C036952795B8
:103C50000A94E2F721703327042E01C0220F0A9440
:103C6000EAF7822B4F5F5F4F4530510531F70895DA
:103C7000BF92CF92DF92EF92FF920F931F93CF9359
:103C8000DF938C01C090FB01D090FC01E090FD011E
:103C9000F090FE018091F7019091F801A091F90157
:103CA000B091FA01C82AD92AEA2AFB2ACFE1D0E04A
:103CB000D701C6010C2E04C0B695A7959795879598
:103CC0000A94D2F780FF07C0BC2EB8018C2F0E9447
:103CD0002707019719F4219758F7B12C8B2DDF9105
:103CE000CF911F910F91FF90EF90DF90CF90BF90F9
:103CF0000895CF93DF93EC010E94381EBE010E940D
:103D00002707DF91CF9108951F93CF93DF93EB01A6
:103D100090918C01992321F0CB010E94791E13C050
:103D2000882349F0CB010E94381E182F682FCE013E
:103D30000E94DD1D04C0CB010E940C1E182FBE0185
:103D4000812F0E942707DF91CF911F9108958091C5
:103D5000FF0185958595859508958091FF01877070
:103D600008959091FF01977081E009F480E0089533
:103D700080912302089590912302892B809323023E
:103D800008958095909123028923809323020895BA
:103D900010922302089590912202892B809322028F
:103DA000089580959091220289238093220208959C
:103DB00010922202089590912102892B8093210272
:103DC000089580959091210289238093210208957E
:103DD00010922102089580910002089508950C9494
:103DE000EE1E90910002981721F0809300020C942F
:103DF000EF1E089580910002882329F0109200029E
:103E000080E00C94EF1E0895E0911001F0911101F3
:103E1000809123028083E0911001F0911101908143
:103E200080912202892B8083E0911001F091110191
:103E3000908180912102892B8083809100028823C8
:103E400081F0E0911001F09111019081892B808324
:103E500080911001909111010E94192081110E94FE
:103E6000FA1E80911001909111010C944413089551
:103E70000C94371F98E0899F90011124262B2093E2
:103E8000FF010E943F1D8091FF01859585958595D5
:103E90000C94381F1092FF0180E00C94381F209181
:103EA000FF01809582238093FF01982F977079F40A
:103EB00030E0482F082E000C550B2417350739F039
:103EC0008595859585950E94601D0C944A1F0895DF
:103ED00080E090E00E94CF2E21E08C3E9E4F09F0C2
:103EE00020E0822F089582E090E00C94C12E682F8C
:103EF00082E090E00C94D52E83E090E00C94C12EEB
:103F0000682F83E090E00C94D52ECF9384E090E06E
:103F10000E94C12EC82F81E290E00E94C12E2C2F5A
:103F200030E0A901582BCA01CF910895CF93C92F32
:103F3000682F84E090E00E94D52E6C2F81E290E003
:103F4000CF910C94D52EAB01BC018FE090E00C9486
:103F5000E72EAB01BC0183E190E00C94E72E60E01A
:103F600070E0CB010C94A91F60E070E0CB010E94CF
:103F7000A31F0C94AF1F6CEE7EEF80E090E00E94D8
:103F8000F32E60E082E090E00E94D52E60E083E0B6
:103F900090E00E94D52E1092FB011092FC0110922D
:103FA000FD011092FE0160E084E090E00E94D52EB9
:103FB00060E081E290E00E94D52E60E085E090E034
:103FC0000E94D52E60E086E090E00E94D52E6FEF33
:103FD00087E090E00E94D52E40E050E0BA0188E0F2
:103FE00090E00E94E72E60E08DE090E00E94D52EE8
:103FF00040E050E0BA0188E190E00E94E72E60E0E6
:1040000087E190E00E94D52E40E050E0BA018CE1BB
:1040100090E00E94E72E60E080E290E00E94D52EC2
:104020000C94B41F0C94BB1F682F8EE090E00C948E
:10403000D52EFC01329680912201882331F08091A7
:10404000860287FF02C09EE101C096E080E09150A9
:1040500028F021912223D9F38F5FF9CF08959C0195
:10406000FC0132969FEF80E04191461789F09F3F17
:1040700019F4411101C0982F8F5F8630A9F79F3F37
:1040800039F0F901E90FF11D97FDFA956283089562
:104090000895FC01329608962081261301C01082F3
:1040A0003196E817F907C1F70895262F269526952A
:1040B00026952E3168F4FC01E20FF11D677021E0B6
:1040C00030E001C0220F6A95EAF78281282B228313
:1040D0000895262F2695269526952E3170F4FC01FD
:1040E000E20FF11D677021E030E001C0220F6A95F8
:1040F000EAF72095828128232283089520912201C6
:10410000222329F02091860227FD0C9455200C943F
:104110002F2020912201222329F02091860227FDC1
:104120000C9469200C94492020912201FC013296C4
:10413000222331F08091860287FF02C08EE101C008
:1041400086E0DF011D928A95E9F7089508950C94A1
:10415000A6200E94A72080918C02843049F1109201
:10416000250220E488E190E00FB6F894A8958093AA
:1041700060000FBE2093600080E00E9486060E94CF
:10418000A72083B7817F846083BF83B7816083BFAB
:104190007894889583B78E7F83BF0FB6F894A895DF
:1041A00080916000886180936000109260000FBE73
:1041B000089508950895CF930E94D9200E940A0A75
:1041C0000E94DA20C0E08C2F0E94B509892B29F4C7
:1041D000CF5FC530C1F780E001C081E0CF91089585
:1041E00008950C94F0200E9403190E9438130E9435
:1041F00086060C94F1201F920F920FB60F92112495
:104200008F939F93AF93BF9380912502811113C029
:104210008091820290918302A0918402B0918502E4
:104220004196A11DB11D8093820290938302A093B9
:104230008402B0938502BF91AF919F918F910F90AF
:104240000FBE0F901F90189582E084BD93E095BD3E
:104250009AEF97BD80936E0008952FB7F8948091E0
:10426000820290918302A0918402B09185022FBFB7
:104270000895CF92DF92EF92FF920F931F932FB783
:10428000F89440918202509183026091840270916F
:1042900085022FBF6A017B01EE24FF248C0120E000
:1042A00030E0C016D106E206F30610F44150510981
:1042B0009A01281B390BC9011F910F91FF90EF90B4
:1042C000DF90CF90089578941F920F920FB60F92BF
:1042D00011248F939F93AF93BF938091820290910B
:1042E0008302A0918402B09185020196A11DB11DA7
:1042F0008093820290938302A0938402B0938502FC
:10430000BF91AF919F918F910F900FBE0F901F9013
:10431000189581E08093E00080E28093D8001092AD
:10432000C9008FE19EE40197F1F700C0000087E02B
:1043300090EBDC018093950290939602A0939702F4
:10434000B09398029CE088E10FB6F894A89580930A
:1043500060000FBE90936000FFCFAF92BF92CF92EC
:10436000DF92EF92FF920F931F93CF93C0E0CC2484
:10437000C394D12CE82EF12C8C2F0E94B5095C013E
:1043800000E010E09601002E02C0220F331F0A94B5
:10439000E2F72A213B21232B31F40F5F1F4F0F300F
:1043A000110581F70AC0602F7C2F80E00E940D0765
:1043B000E816F90691F781E004C0CF5FC530E1F659
:1043C00080E0CF911F910F91FF90EF90DF90CF9001
:1043D000BF90AF900895CF93C82F8CE20E94AD217B
:1043E000882321F08C2FCF910C94AD2180E0CF91C8
:1043F0000895CF930E94681F811102C00E9412206D
:10440000C5E6C15049F00E940A0A8FE39CE9019772
:10441000F1F700C00000F5CF89E20E94EB21811185
:1044200020C18AE20E94EB2181110E94122085E0C6
:104430000E94EB2181110E9489210E94731F8093A9
:10444000240287E00E94EB218823A9F18BE10E94DE
:10445000EB21882351F08091240281FB222720F94F
:1044600091E0922790FB81F90EC08EE00E94EB2133
:10447000882361F08091240282FB222720F991E0B9
:10448000922790FB82F98093240215C080E10E945C
:10449000EB2190912402882341F093FB222720F9FD
:1044A00081E0822780FB93F904C0892F809580FBEF
:1044B00090F990932402809124020E94771F0E9419
:1044C000851F909387028093860280EE0E94EB21E5
:1044D000882341F080918602982F909590FB80F977
:1044E0008093860289E30E94EB21882359F0809112
:1044F000860281FB222720F991E0922790FB81F927
:104500008093860282EE0E94EB21882359F08091ED
:10451000860282FB222720F991E0922790FB82F904
:104520008093860286EE0E94EB21882359F08091C9
:10453000860283FB222720F991E0922790FB83F9E2
:104540008093860283EE0E94EB21882359F08091AC
:10455000860284FB222720F991E0922790FB84F9C0
:104560008093860285E30E94EB21882359F0809195
:10457000860285FB222720F991E0922790FB85F99E
:104580008093860281E30E94EB21882359F0809179
:10459000860286FB222720F991E0922790FB86F97C
:1045A0008093860281E10E94EB21882359F080915B
:1045B000860287FB222720F991E0922790FB87F95A
:1045C0008093860280918602909187020E94961FB6
:1045D00087E20E94EB21C82F8EE10E94EB2181111E
:1045E000C2608FE10E94EB218111C46080E20E94D1
:1045F000EB218111C86081E20E94EB218111C06131
:1046000082E20E94EB218111C06283E20E94EB21D1
:104610008111C06484E20E94EB21882311F0C068FC
:1046200002C0CC2329F08C2F0E94801F6C2F03C066
:104630000E947C1F682F70E080E090E00E94DE1CEA
:104640008FE00E94EB21882319F081E00E94142062
:1046500085E10E94EB21882321F080E0CF910C942A
:104660001420CF9108958091290280FF0BC06091A2
:10467000150185E0689FB0011124759567957595C2
:1046800067952BC081FF09C06091150185E0689F87
:10469000B00111247595679520C082FF07C0609115
:1046A000150185E0689FB001112417C09091280280
:1046B0009923D1F060911401961788F72091150184
:1046C00085E0289F90011124929FA001939F500D97
:1046D000112470E0CA010E948E2E6038710540F4EA
:1046E0006115710539F002C065E070E0862F08950C
:1046F0008FE7089581E008958091290280FF08C026
:104700006091130170E0759567957595679521C067
:1047100081FF06C06091130170E07595679519C01F
:1047200082FF04C06091130170E010C090912802D4
:104730009923C1F0609112019617A0F7809113019F
:10474000899FC001112470E00E948E2E603871058F
:1047500028F46115710521F0862F08958FE70895DB
:1047600081E0089561E070E0F4CF803F21F40E9481
:104770003323819504C0813F29F40E943323809321
:104780002D020895823F21F40E943323819504C0B5
:10479000833F29F40E94332380932C020895893F9C
:1047A00019F40E947C2305C08A3F31F40E947C23C7
:1047B000819580932E0208958B3F21F40E947C23E3
:1047C000819504C08C3F29F40E947C2380932F02A2
:1047D0000895843F21F480912B02816017C0853FAA
:1047E00021F480912B02826011C0863F21F48091D8
:1047F0002B0284600BC0873F21F480912B028860DC
:1048000005C0883F31F480912B02806180932B0298
:1048100008958D3F21F48091290281600BC08E3F65
:1048200021F480912902826005C08F3F29F4809194
:1048300029028460809329020895803F39F4809191
:104840002D0287FF6CC010922D0269C0813F29F4B0
:1048500080912D021816BCF362C090912C02823F09
:1048600029F497FF5CC010922C0259C0833F19F4C1
:104870001916CCF354C0893F41F480912E021816CA
:104880000CF04DC010922E024AC08A3F29F480914C
:104890002E0287FF44C0F6CF8B3F39F480912F0260
:1048A00087FF3DC010922F023AC08C3F29F48091BF
:1048B0002F021816BCF333C0843F21F480912B02E1
:1048C0008E7F17C0853F21F480912B028D7F11C010
:1048D000863F21F480912B028B7F0BC0873F21F410
:1048E00080912B02877F05C0883F31F480912B0295
:1048F0008F7E80932B0213C08D3F21F4809129027B
:104900008E7F0BC08E3F21F4809129028D7F05C0E0
:104910008F3F29F4809129028B7F80932902809117
:104920002C0281110EC080912D0281110AC080914C
:104930002E02811106C080912F02811102C01092B7
:10494000280208958AE292E00E945E130E942D21BF
:10495000909327028093260208951F93CF93DF93AD
:1049600080912602909127020E943921AC019091FA
:104970002802992321F02091160130E006C02091F1
:1049800017018AE0289F900111244217530708F469
:104990007BC080912C02C0912D02D0912E021091EB
:1049A0002F02811107C0C1116BC0D11169C0111153
:1049B00067C06AC09F3F19F09F5F90932802181646
:1049C00024F40E94332380932C0280912C0287FFD1
:1049D00005C00E943323819580932C021C1624F479
:1049E0000E94332380932D0280912D0287FF05C002
:1049F0000E943323819580932D0230912C02332322
:104A0000E1F020912D022223C1F045EB3403C001D7
:104A10001124892F990F990B009709F481E0809355
:104A20002C0235EB2303C0011124892F990F990B18
:104A3000009709F481E080932D021D1624F40E9452
:104A40007C2380932E0280912E0287FF05C00E9456
:104A50007C23819580932E02111624F40E947C23DE
:104A600080932F0280912F0287FF05C00E947C2334
:104A7000819580932F02DF91CF911F910C94A224F6
:104A80009F3F09F099CFA1CFDF91CF911F9108955A
:104A9000EAE2F2E086E0DF011D928A95E9F71092E2
:104AA0002802109229020895833081F128F4813080
:104AB00059F08230D1F00895853009F449C0B8F139
:104AC000863009F456C0089580911701262F30E0F2
:104AD000280F311D2F3F310524F4680F6093170113
:104AE00008958FEF80931701089580911601262F66
:104AF00030E0280F311D2F3F310524F4680F6093FB
:104B0000160108958FEF8093160108958091150185
:104B1000262F30E0280F311D2F3F310524F4680F78
:104B20006093150108958FEF80931501089580918A
:104B30001401262F30E0280F311D2F3F310524F4BA
:104B4000680F6093140108958FEF80931401089506
:104B500080911301262F30E0280F311D2F3F3105A2
:104B600024F4680F6093130108958FEF809313016D
:104B7000089580911201262F30E0280F311D2F3F1C
:104B8000310524F4680F6093120108958FEF80932C
:104B900012010895833011F128F4813049F08230F8
:104BA00091F00895853081F120F18630C1F10895AA
:104BB00080911701681720F4861B809317010895D0
:104BC00010921701089580911601681720F4861B32
:104BD0008093160108951092160108958091150191
:104BE000681720F4861B8093150108951092150113
:104BF000089580911401681720F4861B8093140196
:104C0000089510921401089580911301681720F4FB
:104C1000861B8093130108951092130108958091CB
:104C20001201681720F4861B8093120108951092D8
:104C3000120108950F931F93482F50E0FA01359702
:104C4000EF33F10508F07FC0E857FF4F0C94A22E18
:104C50000E94122071C080912402817F8E7F8093F8
:104C6000240281E0809331026FC00E9403190FEF8C
:104C700013ED20E3015010402040E1F700C0000098
:104C80000E94892159C080912402982F909591709B
:104C900090FB80F98093240291114EC0897F877F19
:104CA00010C08091240281FB222720F991E09227F5
:104CB00090FB81F9809324029923F1F180912402E1
:104CC00081608093240238C08091240282FB2227D5
:104CD00020F991E0922790FB82F9ECCF8091240299
:104CE00083FB222720F991E0922790FB83F9E2CF02
:104CF0000E9403198091860287FB222720F991E008
:104D0000922790FB87F98093860216C0895301C0D1
:104D10008D5141E050E060E070E08A019B0104C0E9
:104D2000000F111F221F331F8A95D2F7C901B80146
:104D30000E94DE1C0E94031981E006C061E070E061
:104D400080E090E0F5CF80E01F910F91089580E022
:104D5000089580E008958E518A3030F4E82FF0E015
:104D6000E45AFE4F8081089580E00895CF93C82FC4
:104D700080913102813051F018F0823099F17DC07C
:104D80000E94B81E823209F07AC004C00E94B81E88
:104D9000823261F48C2F0E94A726811104C08C2FCF
:104DA0000E941A261DC081E090E01AC08C2F0E943C
:104DB000A926811114C0C43179F048F4CB3079F0C0
:104DC000C03109F060C082E08093310208C0C9326E
:104DD00019F0C83321F057C01092310254C081E05D
:104DE000817053C0C93289F118F5C43171F1B0F442
:104DF000C73009F046C08EE18093170182E38093AB
:104E000016018AE08093150184E18093140188E003
:104E10008093130188E28093120133C082EE8C0FDD
:104E2000863078F58C2F0E94AB268093300229C003
:104E3000CE34E9F020F4CB3421F56AE013C0C1355B
:104E400079F0C235F1F461E00DC080913002882321
:104E500019F01092300215C081E08093310215C024
:104E600061E006C0809130020E9454250AC06AE0C9
:104E7000809130020E94CA2504C01092310280E065
:104E800004C081E002C080E0ABCFCF910895809153
:104E9000520208950F931F93CF93DF9300D01F9278
:104EA000CDB7DEB78C010E94B329823011F0843077
:104EB00021F584E089831B830A8382E08093E900E3
:104EC0008FEF9091E800815095FD06C095ED9A9581
:104ED000F1F700008111F5CF8091E80085FF0DC04A
:104EE00040E050E063E070E0CE0101960E94D029DE
:104EF0008091E8008E778093E8000F900F900F90DC
:104F0000DF91CF911F910F910895CF93DF9300D040
:104F10001F92CDB7DEB720918C02243031F523E00B
:104F20002983805891099B838A8382E08093E900DA
:104F30008FEF9091E800815095FD06C095ED9A9510
:104F4000F1F700008111F5CF8091E80085FF0DC0D9
:104F500040E050E063E070E0CE0101960E94D0296D
:104F60008091E8008E778093E8000F900F900F906B
:104F7000DF91CF910895CF93DF93EC010E94B32985
:104F8000823011F08430F9F482E08093E9009FEFE1
:104F90008091E800915085FD06C085ED8A95F1F776
:104FA00000009111F5CF8091E80085FF0CC040E032
:104FB00050E066E070E0CE010E94D0298091E800C8
:104FC0008E778093E800DF91CF910895CF93DF93A0
:104FD000EC010E94B329823011F08430D9F5809120
:104FE0002201882339F08091860287FF03C060E2A6
:104FF00082E002C068E081E08093E9008FEF909149
:10500000E800815095FD06C095ED9A95F1F70000F6
:105010008111F5CF8091E80085FF1CC080912201AD
:10502000811105C040E050E068E070E003C070E02E
:1050300040E050E0CE010E94D0298091E8008E77B8
:105040008093E80080E2FE01A2E3B2E001900D92BD
:105050008A95E1F7DF91CF91089580918B028111BC
:1050600009C00E94652B0E94C22B8091E2008460DF
:105070008093E200089510928B0208950895089598
:105080000C94F32042E061EC81E00E94DF2A42E2CE
:1050900061EC82E00C94DF2A80918E02833009F467
:1050A00060C030F4813071F0823009F499C0089505
:1050B0008A3009F485C08B3009F46BC0893009F05F
:1050C000A7C020C080918D02813A09F0A1C08091D3
:1050D000E800877F8093E80080919102909192028E
:1050E000892B21F460E282E392E003C060E080E07B
:1050F00090E070E00E941B2A8091E8008B778093FB
:10510000E800089580918D02813209F081C080917C
:10511000910290919202029708F07AC08091E80083
:10512000877F8093E8008091E80082FD05C0809130
:105130008C028111F8CF6CC02091F3008091F200B5
:1051400090E0922B029729F48091F1008B7F8130BF
:1051500021F48091F100809352028091E8008B77D6
:1051600053C080918D02813A09F052C08091910222
:1051700090919202892B09F04BC08091E800877FC3
:105180008093E8008091E80080FFFCCF80912201AD
:1051900036C080918D028132D9F580919102909133
:1051A0009202892BA9F58091E800877F8093E8001F
:1051B0000E94142B80918F02809322010C9403197A
:1051C00080918D02813221F58091E800877F809364
:1051D000E8000E94142B809190028093530208955E
:1051E00080918D02813AA1F48091E800877F8093BD
:1051F000E8008091E80080FFFCCF8091530280930B
:10520000F1008091E8008E778093E8000C94142BD5
:10521000089584B7877F84BF0FB6F894A8958091CE
:105220006000886180936000109260000FBE90E083
:1052300080E80FB6F89480936100909361000FBEF0
:105240000E94A6130E94652B0E94C22B8091E2004F
:1052500084608093E20078940E94512E0E94AE13E5
:1052600088E191E00E94331380918C02853069F4CB
:105270000E94A92080918A028823B1F30E94DB203A
:10528000882391F30E94BA29EFCF0E94B813ECCF84
:105290000C944A29292F332723303105C9F064F4AF
:1052A0002130310581F02230310509F04CC08BE30B
:1052B00090E02FE43AE04BC02132310521F1223257
:1052C000310589F140C082E190E02AE83AE03FC030
:1052D00099278130910571F02CF4892BA1F5EBE42D
:1052E000FAE00DC08230910541F0039761F5EBE2E1
:1052F000FAE005C0EDE3FAE002C0E1E3FAE08491F0
:1053000090E09F0124C06115710541F06130710585
:10531000D1F489E090E02AE73AE019C089E090E012
:1053200021E63AE014C06115710541F06130710564
:1053300051F480EC90E02CE93AE009C080E490E080
:105340002CE53BE004C080E090E020E030E0FA0192
:1053500031832083089580918C02843011F081E0A4
:10536000089582E0089580915402811102C00C9446
:10537000AB29089580E189BD82E189BD09B400FEB1
:10538000FDCF8091D8008F7D8093D8008091E00080
:1053900082608093E0008091E00081FDFCCF089561
:1053A000CF92DF92EF92FF920F931F93CF93DF93F1
:1053B000EC018B016A010E94332B811133C0C114AF
:1053C000D10439F0F60180819181081B190BC80FB7
:1053D000D91FE12CF12C0115110519F18091E8007C
:1053E00085FD16C08091E8008E778093E800C11497
:1053F000D10449F0F60180819181E80EF91EF18215
:10540000E08285E00FC00E94332B882321F30AC07D
:1054100089918093F10001501109FFEFEF1AFF0A03
:10542000DACF80E0DF91CF911F910F91FF90EF9045
:10543000DF90CF9008952091930230919402261727
:10544000370748F06115710539F42091E8002E778F
:105450002093E80001C0B90140E061157105A9F190
:1054600020918C02222309F443C0253009F442C064
:105470002091E80023FD40C02091E80022FD32C0C9
:105480002091E80020FFE9CF4091F3002091F20045
:1054900030E0342BFC01CF016115710559F0283043
:1054A000310540F481918093F100615071092F5FC3
:1054B0003F4FF1CF41E02830310509F040E0209125
:1054C000E8002E772093E800C8CF4111C9CF0AC069
:1054D00080918C02882361F0853061F08091E80032
:1054E00083FD0AC08091E80082FFF2CF80E008953A
:1054F00082E0089583E0089581E008952091930269
:10550000309194022617370748F06115710539F478
:105510002091E8002E772093E80001C0B901FC013A
:1055200020E06115710591F180918C02882309F4C6
:1055300040C0853009F43FC08091E80083FD3DC044
:105540008091E80082FD2FC08091E80080FFE9CFC4
:105550002091F3008091F20090E0922B611571058B
:1055600059F08830910540F424912093F100319650
:10557000615071090196F2CF21E0089709F020E00F
:105580008091E8008E778093E800CBCF2111CCCFBB
:105590000AC080918C02882361F0853061F080918F
:1055A000E80083FD0AC08091E80082FFF2CF80E02E
:1055B000089582E0089583E0089581E00895982F8A
:1055C000973058F59093E900981739F07091EC00F6
:1055D0002091ED005091F00003C0242F762F50E071
:1055E00021FF19C03091EB003E7F3093EB003091EA
:1055F000ED003D7F3093ED003091EB003160309352
:10560000EB007093EC002093ED005093F00020919C
:10561000EE0027FF07C09F5FD3CF8F708093E90014
:1056200081E0089580E0089580918D0287FF11C088
:105630008091E80082FD05C080918C028111F8CF35
:1056400011C08091E8008B770BC080918C02882379
:1056500049F08091E80080FFF8CF8091E8008E77D4
:105660008093E80008952091E4003091E50095E6EC
:105670004091EC00842F817040FF22C08091E800AF
:1056800080FD1CC080918C02882391F0853091F0C0
:105690008091EB0085FD10C04091E4005091E50041
:1056A0004217530729F39A01915011F784E00895A6
:1056B00082E0089583E0089581E0089580E00895F0
:1056C0004091E80042FFDECF08950E94D32B0E9454
:1056D000DB2BE0EEF0E0808181608083E8EDF0E09C
:1056E00080818F77808319BCA7EDB0E08C918E7F8D
:1056F0008C9380818F7E808310928B0208950F930C
:105700001F93CF93DF930E94D32B0E94DB2BC8ED16
:10571000D0E088818F7788838881806888838881BA
:105720008F7D888319BC10928C021092880210928F
:105730008A021092890200EE10E0F80180818B7FCE
:10574000808388818160888342E060E080E00E94FD
:10575000DF2AE1EEF0E080818E7F8083E2EEF0E0F0
:10576000808181608083808188608083F80180816E
:105770008E7F8083888180618883DF91CF911F91A4
:105780000F910895E8EDF0E080818F7E8083E7ED52
:10579000F0E080818160808384E082BF81E080933B
:1057A0008B020C947F2BE8EDF0E080818E7F80836C
:1057B0001092E20008951092DA001092E10008952C
:1057C0001F920F920FB60F9211242F933F934F9376
:1057D0005F936F937F938F939F93AF93BF93EF9359
:1057E000FF938091E10082FF0BC08091E20082FF75
:1057F00007C08091E1008B7F8093E1000E94502ED2
:105800008091DA0080FF1FC08091D80080FF1BC00C
:105810008091DA008E7F8093DA008091D90080FF3A
:105820000DC080E189BD82E189BD09B400FEFDCFD4
:1058300081E080938C020E942D2805C019BC109233
:105840008C020E943B288091E10080FF19C080916A
:10585000E20080FF15C08091E2008E7F8093E2001D
:105860008091E20080618093E2008091D8008062A4
:105870008093D80019BC85E080938C020E943F2859
:105880008091E10084FF30C08091E20084FF2CC051
:1058900080E189BD82E189BD09B400FEFDCF809120
:1058A000D8008F7D8093D8008091E1008F7E809317
:1058B000E1008091E2008F7E8093E2008091E2001F
:1058C00081608093E20080918802882311F084E057
:1058D00007C08091E30087FD02C081E001C083E042
:1058E00080938C020E9440288091E10083FF29C0B0
:1058F0008091E20083FF25C08091E100877F809343
:10590000E10082E080938C02109288028091E10095
:105910008E7F8093E1008091E2008E7F8093E20091
:105920008091E20080618093E20042E060E080E0EC
:105930000E94DF2A8091F00088608093F0000E942E
:105940003E28FF91EF91BF91AF919F918F917F91F1
:105950006F915F914F913F912F910F900FBE0F90DC
:105960001F9018951F920F920FB60F9211242F932C
:105970003F934F935F936F937F938F939F93AF93D7
:10598000BF93CF93DF93EF93FF93C091E900CF7064
:105990008091EC00D82FD17080FDD0E81092E90002
:1059A0008091F000877F8093F00078940E94F62C1D
:1059B0001092E9008091F00088608093F000CD2B78
:1059C000CF70C093E900FF91EF91DF91CF91BF912C
:1059D000AF919F918F917F916F915F914F913F9187
:1059E0002F910F900FBE0F901F9018951F93CF937C
:1059F000DF93CDB7DEB7AA970FB6F894DEBF0FBE20
:105A0000CDBFEDE8F2E088E08E0F9091F100919328
:105A10008E13FBCF0E944C288091E80083FF28C1A1
:105A200080918D0290918E02492F50E04A305105AD
:105A300008F01EC1FA01E953FF4F0C94A22E8038E2
:105A400021F0823809F014C108C080918902909138
:105A50008A02992389F082600FC0809191028F7031
:105A6000873008F005C18093E9008091EB0085FB49
:105A7000882780F91092E9009091E800977F909331
:105A8000E8008093F1001092F100D0C0282F2D7F04
:105A900009F0EEC0882319F0823061F0E9C08091EE
:105AA0008F02813009F0E4C0933009F080E08093E8
:105AB0008A022EC080918F0281112AC080919102AA
:105AC0008F702FEF280F263008F0D2C08093E900A6
:105AD0002091EB0020FF1CC0933021F48091EB005B
:105AE000806214C09091EB0090619093EB0021E0F4
:105AF00030E0A90102C0440F551F8A95E2F7409398
:105B0000EA001092EA008091EB0088608093EB003D
:105B10001092E9008091E800877F8093E8000E945E
:105B2000142BA6C08111A4C010918F021F77809101
:105B3000E3008078812B8093E3008091E800877FE9
:105B40008093E8000E94142B8091E80080FFFCCF36
:105B50008091E30080688093E300111102C082E02D
:105B600001C083E080938C0283C08058823008F0AB
:105B70007FC080918F02909190028C3D53E09507F9
:105B800079F583E08A838AE289834FB7F894DE014E
:105B9000139620E03EE051E2E32FF0E050935700EF
:105BA000E49120FF03C0E295EF703F5FEF708E2F0E
:105BB00090E0EA3010F0C79601C0C0968D939D9397
:105BC0002F5F243149F74FBF8091E800877F809392
:105BD000E8006AE270E0CE0101960E941B2A15C01F
:105BE0006091910270919202AE014F5F5F4F0E94EF
:105BF0004829BC01892BE1F19091E800977F9093AF
:105C0000E80089819A810E947E2A8091E8008B7742
:105C10008093E8002DC0803859F58091E800877F97
:105C20008093E800809188028093F1008091E800E1
:105C30008E7773CF81111CC090918F029230C0F487
:105C40008091E800877F8093E800909388020E940B
:105C5000142B80918802811106C08091E30087FD9A
:105C600002C081E001C084E080938C020E9442283F
:105C70008091E80083FF0AC08091E800877F8093CD
:105C8000E8008091EB0080628093EB00AA960FB64B
:105C9000F894DEBF0FBECDBFDF91CF911F91089565
:105CA0000895CF9380918C028823A1F0C091E900E0
:105CB000CF709091EC00892F817090FD80E8C82B07
:105CC0001092E9008091E80083FD0E94F62CCF70CD
:105CD000C093E900CF91089587FB082E062687FD23
:105CE000819567FD61950E94A82E0EF4919507FCA1
:105CF00081950895AA1BBB1B51E107C0AA1FBB1FBA
:105D0000A617B70710F0A61BB70B881F991F5A9547
:105D1000A9F780959095BC01CD01089597FB072EBA
:105D200016F4009407D077FD09D00E947A2E07FC64
:105D300005D03EF4909581959F4F0895709561959B
:105D40007F4F0895EE0FFF1F0590F491E02D099409
:105D5000991B79E004C0991F961708F0961B881FBD
:105D60007A95C9F780950895FC014150504030F074
:105D700001900616D1F73197CF010895882799270A
